{
	"data": {
		"bytecode": {
			"linkReferences": {},
			"object": "608060405234801562000010575f80fd5b5060405162000e9b38038062000e9b83398181016040528101906200003691906200029b565b805f73ffffffffffffffffffffffffffffffffffffffff168173ffffffffffffffffffffffffffffffffffffffff1603620000aa575f6040517f1e4fbdf7000000000000000000000000000000000000000000000000000000008152600401620000a19190620002f1565b60405180910390fd5b620000bb816200017560201b60201c565b505f73ffffffffffffffffffffffffffffffffffffffff168273ffffffffffffffffffffffffffffffffffffffff16036200012d576040517f08c379a0000000000000000000000000000000000000000000000000000000008152600401620001249062000390565b60405180910390fd5b8160015f6101000a81548173ffffffffffffffffffffffffffffffffffffffff021916908373ffffffffffffffffffffffffffffffffffffffff1602179055505050620003b0565b5f805f9054906101000a900473ffffffffffffffffffffffffffffffffffffffff169050815f806101000a81548173ffffffffffffffffffffffffffffffffffffffff021916908373ffffffffffffffffffffffffffffffffffffffff1602179055508173ffffffffffffffffffffffffffffffffffffffff168173ffffffffffffffffffffffffffffffffffffffff167f8be0079c531659141344cd1fd0a4f28419497f9722a3daafe3b4186f6b6457e060405160405180910390a35050565b5f80fd5b5f73ffffffffffffffffffffffffffffffffffffffff82169050919050565b5f62000265826200023a565b9050919050565b620002778162000259565b811462000282575f80fd5b50565b5f8151905062000295816200026c565b92915050565b5f8060408385031215620002b457620002b362000236565b5b5f620002c38582860162000285565b9250506020620002d68582860162000285565b9150509250929050565b620002eb8162000259565b82525050565b5f602082019050620003065f830184620002e0565b92915050565b5f82825260208201905092915050565b7f566f6c756d546f6b656e20616464726573732063616e6e6f74206265207a65725f8201527f6f00000000000000000000000000000000000000000000000000000000000000602082015250565b5f620003786021836200030c565b915062000385826200031c565b604082019050919050565b5f6020820190508181035f830152620003a9816200036a565b9050919050565b610add80620003be5f395ff3fe608060405234801561000f575f80fd5b506004361061007b575f3560e01c80638bdf67f2116100595780638bdf67f2146100c35780638da5cb5b146100df5780639af08dd5146100fd578063f2fde38b1461011b5761007b565b80631ec8bb8c1461007f5780634a0668521461009b578063715018a6146100b9575b5f80fd5b61009960048036038101906100949190610692565b610137565b005b6100a36102c9565b6040516100b091906106df565b60405180910390f35b6100c16102cf565b005b6100dd60048036038101906100d891906106f8565b6102e2565b005b6100e76103e2565b6040516100f49190610732565b60405180910390f35b610105610409565b60405161011291906107a6565b60405180910390f35b610135600480360381019061013091906107bf565b61042e565b005b61013f6104b2565b600254811115610184576040517f08c379a000000000000000000000000000000000000000000000000000000000815260040161017b9061086a565b60405180910390fd5b60015f9054906101000a900473ffffffffffffffffffffffffffffffffffffffff1673ffffffffffffffffffffffffffffffffffffffff1663a9059cbb83836040518363ffffffff1660e01b81526004016101e0929190610888565b6020604051808303815f875af11580156101fc573d5f803e3d5ffd5b505050506040513d601f19601f8201168201806040525081019061022091906108e4565b61025f576040517f08c379a000000000000000000000000000000000000000000000000000000000815260040161025690610959565b60405180910390fd5b8060025f82825461027091906109a4565b925050819055508173ffffffffffffffffffffffffffffffffffffffff167fe2403640ba68fed3a2f88b7557551d1993f84b99bb10ff833f0cf8db0c5e0486826040516102bd91906106df565b60405180910390a25050565b60025481565b6102d76104b2565b6102e05f610539565b565b6102ea6104b2565b60015f9054906101000a900473ffffffffffffffffffffffffffffffffffffffff1673ffffffffffffffffffffffffffffffffffffffff166323b872dd3330846040518463ffffffff1660e01b8152600401610348939291906109d7565b6020604051808303815f875af1158015610364573d5f803e3d5ffd5b505050506040513d601f19601f8201168201806040525081019061038891906108e4565b6103c7576040517f08c379a00000000000000000000000000000000000000000000000000000000081526004016103be90610a56565b60405180910390fd5b8060025f8282546103d89190610a74565b9250508190555050565b5f805f9054906101000a900473ffffffffffffffffffffffffffffffffffffffff16905090565b60015f9054906101000a900473ffffffffffffffffffffffffffffffffffffffff1681565b6104366104b2565b5f73ffffffffffffffffffffffffffffffffffffffff168173ffffffffffffffffffffffffffffffffffffffff16036104a6575f6040517f1e4fbdf700000000000000000000000000000000000000000000000000000000815260040161049d9190610732565b60405180910390fd5b6104af81610539565b50565b6104ba6105fa565b73ffffffffffffffffffffffffffffffffffffffff166104d86103e2565b73ffffffffffffffffffffffffffffffffffffffff1614610537576104fb6105fa565b6040517f118cdaa700000000000000000000000000000000000000000000000000000000815260040161052e9190610732565b60405180910390fd5b565b5f805f9054906101000a900473ffffffffffffffffffffffffffffffffffffffff169050815f806101000a81548173ffffffffffffffffffffffffffffffffffffffff021916908373ffffffffffffffffffffffffffffffffffffffff1602179055508173ffffffffffffffffffffffffffffffffffffffff168173ffffffffffffffffffffffffffffffffffffffff167f8be0079c531659141344cd1fd0a4f28419497f9722a3daafe3b4186f6b6457e060405160405180910390a35050565b5f33905090565b5f80fd5b5f73ffffffffffffffffffffffffffffffffffffffff82169050919050565b5f61062e82610605565b9050919050565b61063e81610624565b8114610648575f80fd5b50565b5f8135905061065981610635565b92915050565b5f819050919050565b6106718161065f565b811461067b575f80fd5b50565b5f8135905061068c81610668565b92915050565b5f80604083850312156106a8576106a7610601565b5b5f6106b58582860161064b565b92505060206106c68582860161067e565b9150509250929050565b6106d98161065f565b82525050565b5f6020820190506106f25f8301846106d0565b92915050565b5f6020828403121561070d5761070c610601565b5b5f61071a8482850161067e565b91505092915050565b61072c81610624565b82525050565b5f6020820190506107455f830184610723565b92915050565b5f819050919050565b5f61076e61076961076484610605565b61074b565b610605565b9050919050565b5f61077f82610754565b9050919050565b5f61079082610775565b9050919050565b6107a081610786565b82525050565b5f6020820190506107b95f830184610797565b92915050565b5f602082840312156107d4576107d3610601565b5b5f6107e18482850161064b565b91505092915050565b5f82825260208201905092915050565b7f496e73756666696369656e74207265776172647320706f6f6c2062616c616e635f8201527f6500000000000000000000000000000000000000000000000000000000000000602082015250565b5f6108546021836107ea565b915061085f826107fa565b604082019050919050565b5f6020820190508181035f83015261088181610848565b9050919050565b5f60408201905061089b5f830185610723565b6108a860208301846106d0565b9392505050565b5f8115159050919050565b6108c3816108af565b81146108cd575f80fd5b50565b5f815190506108de816108ba565b92915050565b5f602082840312156108f9576108f8610601565b5b5f610906848285016108d0565b91505092915050565b7f526577617264207472616e73666572206661696c6564000000000000000000005f82015250565b5f6109436016836107ea565b915061094e8261090f565b602082019050919050565b5f6020820190508181035f83015261097081610937565b9050919050565b7f4e487b71000000000000000000000000000000000000000000000000000000005f52601160045260245ffd5b5f6109ae8261065f565b91506109b98361065f565b92508282039050818111156109d1576109d0610977565b5b92915050565b5f6060820190506109ea5f830186610723565b6109f76020830185610723565b610a0460408301846106d0565b949350505050565b7f5472616e73666572206661696c656400000000000000000000000000000000005f82015250565b5f610a40600f836107ea565b9150610a4b82610a0c565b602082019050919050565b5f6020820190508181035f830152610a6d81610a34565b9050919050565b5f610a7e8261065f565b9150610a898361065f565b9250828201905080821115610aa157610aa0610977565b5b9291505056fea2646970667358221220de92cfaf54f05beed60cb9f6cf3ad17dcda297a19dc1ce6efc2f70333ba1c23b64736f6c63430008140033",
			"opcodes": "PUSH1 0x80 PUSH1 0x40 MSTORE CALLVALUE DUP1 ISZERO PUSH3 0x10 JUMPI PUSH0 DUP1 REVERT JUMPDEST POP PUSH1 0x40 MLOAD PUSH3 0xE9B CODESIZE SUB DUP1 PUSH3 0xE9B DUP4 CODECOPY DUP2 DUP2 ADD PUSH1 0x40 MSTORE DUP2 ADD SWAP1 PUSH3 0x36 SWAP2 SWAP1 PUSH3 0x29B JUMP JUMPDEST DUP1 PUSH0 PUSH20 0xFFFFFFFFFFFFFFFFFFFFFFFFFFFFFFFFFFFFFFFF AND DUP2 PUSH20 0xFFFFFFFFFFFFFFFFFFFFFFFFFFFFFFFFFFFFFFFF AND SUB PUSH3 0xAA JUMPI PUSH0 PUSH1 0x40 MLOAD PUSH32 0x1E4FBDF700000000000000000000000000000000000000000000000000000000 DUP2 MSTORE PUSH1 0x4 ADD PUSH3 0xA1 SWAP2 SWAP1 PUSH3 0x2F1 JUMP JUMPDEST PUSH1 0x40 MLOAD DUP1 SWAP2 SUB SWAP1 REVERT JUMPDEST PUSH3 0xBB DUP2 PUSH3 0x175 PUSH1 0x20 SHL PUSH1 0x20 SHR JUMP JUMPDEST POP PUSH0 PUSH20 0xFFFFFFFFFFFFFFFFFFFFFFFFFFFFFFFFFFFFFFFF AND DUP3 PUSH20 0xFFFFFFFFFFFFFFFFFFFFFFFFFFFFFFFFFFFFFFFF AND SUB PUSH3 0x12D JUMPI PUSH1 0x40 MLOAD PUSH32 0x8C379A000000000000000000000000000000000000000000000000000000000 DUP2 MSTORE PUSH1 0x4 ADD PUSH3 0x124 SWAP1 PUSH3 0x390 JUMP JUMPDEST PUSH1 0x40 MLOAD DUP1 SWAP2 SUB SWAP1 REVERT JUMPDEST DUP2 PUSH1 0x1 PUSH0 PUSH2 0x100 EXP DUP2 SLOAD DUP2 PUSH20 0xFFFFFFFFFFFFFFFFFFFFFFFFFFFFFFFFFFFFFFFF MUL NOT AND SWAP1 DUP4 PUSH20 0xFFFFFFFFFFFFFFFFFFFFFFFFFFFFFFFFFFFFFFFF AND MUL OR SWAP1 SSTORE POP POP POP PUSH3 0x3B0 JUMP JUMPDEST PUSH0 DUP1 PUSH0 SWAP1 SLOAD SWAP1 PUSH2 0x100 EXP SWAP1 DIV PUSH20 0xFFFFFFFFFFFFFFFFFFFFFFFFFFFFFFFFFFFFFFFF AND SWAP1 POP DUP2 PUSH0 DUP1 PUSH2 0x100 EXP DUP2 SLOAD DUP2 PUSH20 0xFFFFFFFFFFFFFFFFFFFFFFFFFFFFFFFFFFFFFFFF MUL NOT AND SWAP1 DUP4 PUSH20 0xFFFFFFFFFFFFFFFFFFFFFFFFFFFFFFFFFFFFFFFF AND MUL OR SWAP1 SSTORE POP DUP2 PUSH20 0xFFFFFFFFFFFFFFFFFFFFFFFFFFFFFFFFFFFFFFFF AND DUP2 PUSH20 0xFFFFFFFFFFFFFFFFFFFFFFFFFFFFFFFFFFFFFFFF AND PUSH32 0x8BE0079C531659141344CD1FD0A4F28419497F9722A3DAAFE3B4186F6B6457E0 PUSH1 0x40 MLOAD PUSH1 0x40 MLOAD DUP1 SWAP2 SUB SWAP1 LOG3 POP POP JUMP JUMPDEST PUSH0 DUP1 REVERT JUMPDEST PUSH0 PUSH20 0xFFFFFFFFFFFFFFFFFFFFFFFFFFFFFFFFFFFFFFFF DUP3 AND SWAP1 POP SWAP2 SWAP1 POP JUMP JUMPDEST PUSH0 PUSH3 0x265 DUP3 PUSH3 0x23A JUMP JUMPDEST SWAP1 POP SWAP2 SWAP1 POP JUMP JUMPDEST PUSH3 0x277 DUP2 PUSH3 0x259 JUMP JUMPDEST DUP2 EQ PUSH3 0x282 JUMPI PUSH0 DUP1 REVERT JUMPDEST POP JUMP JUMPDEST PUSH0 DUP2 MLOAD SWAP1 POP PUSH3 0x295 DUP2 PUSH3 0x26C JUMP JUMPDEST SWAP3 SWAP2 POP POP JUMP JUMPDEST PUSH0 DUP1 PUSH1 0x40 DUP4 DUP6 SUB SLT ISZERO PUSH3 0x2B4 JUMPI PUSH3 0x2B3 PUSH3 0x236 JUMP JUMPDEST JUMPDEST PUSH0 PUSH3 0x2C3 DUP6 DUP3 DUP7 ADD PUSH3 0x285 JUMP JUMPDEST SWAP3 POP POP PUSH1 0x20 PUSH3 0x2D6 DUP6 DUP3 DUP7 ADD PUSH3 0x285 JUMP JUMPDEST SWAP2 POP POP SWAP3 POP SWAP3 SWAP1 POP JUMP JUMPDEST PUSH3 0x2EB DUP2 PUSH3 0x259 JUMP JUMPDEST DUP3 MSTORE POP POP JUMP JUMPDEST PUSH0 PUSH1 0x20 DUP3 ADD SWAP1 POP PUSH3 0x306 PUSH0 DUP4 ADD DUP5 PUSH3 0x2E0 JUMP JUMPDEST SWAP3 SWAP2 POP POP JUMP JUMPDEST PUSH0 DUP3 DUP3 MSTORE PUSH1 0x20 DUP3 ADD SWAP1 POP SWAP3 SWAP2 POP POP JUMP JUMPDEST PUSH32 0x566F6C756D546F6B656E20616464726573732063616E6E6F74206265207A6572 PUSH0 DUP3 ADD MSTORE PUSH32 0x6F00000000000000000000000000000000000000000000000000000000000000 PUSH1 0x20 DUP3 ADD MSTORE POP JUMP JUMPDEST PUSH0 PUSH3 0x378 PUSH1 0x21 DUP4 PUSH3 0x30C JUMP JUMPDEST SWAP2 POP PUSH3 0x385 DUP3 PUSH3 0x31C JUMP JUMPDEST PUSH1 0x40 DUP3 ADD SWAP1 POP SWAP2 SWAP1 POP JUMP JUMPDEST PUSH0 PUSH1 0x20 DUP3 ADD SWAP1 POP DUP2 DUP2 SUB PUSH0 DUP4 ADD MSTORE PUSH3 0x3A9 DUP2 PUSH3 0x36A JUMP JUMPDEST SWAP1 POP SWAP2 SWAP1 POP JUMP JUMPDEST PUSH2 0xADD DUP1 PUSH3 0x3BE PUSH0 CODECOPY PUSH0 RETURN INVALID PUSH1 0x80 PUSH1 0x40 MSTORE CALLVALUE DUP1 ISZERO PUSH2 0xF JUMPI PUSH0 DUP1 REVERT JUMPDEST POP PUSH1 0x4 CALLDATASIZE LT PUSH2 0x7B JUMPI PUSH0 CALLDATALOAD PUSH1 0xE0 SHR DUP1 PUSH4 0x8BDF67F2 GT PUSH2 0x59 JUMPI DUP1 PUSH4 0x8BDF67F2 EQ PUSH2 0xC3 JUMPI DUP1 PUSH4 0x8DA5CB5B EQ PUSH2 0xDF JUMPI DUP1 PUSH4 0x9AF08DD5 EQ PUSH2 0xFD JUMPI DUP1 PUSH4 0xF2FDE38B EQ PUSH2 0x11B JUMPI PUSH2 0x7B JUMP JUMPDEST DUP1 PUSH4 0x1EC8BB8C EQ PUSH2 0x7F JUMPI DUP1 PUSH4 0x4A066852 EQ PUSH2 0x9B JUMPI DUP1 PUSH4 0x715018A6 EQ PUSH2 0xB9 JUMPI JUMPDEST PUSH0 DUP1 REVERT JUMPDEST PUSH2 0x99 PUSH1 0x4 DUP1 CALLDATASIZE SUB DUP2 ADD SWAP1 PUSH2 0x94 SWAP2 SWAP1 PUSH2 0x692 JUMP JUMPDEST PUSH2 0x137 JUMP JUMPDEST STOP JUMPDEST PUSH2 0xA3 PUSH2 0x2C9 JUMP JUMPDEST PUSH1 0x40 MLOAD PUSH2 0xB0 SWAP2 SWAP1 PUSH2 0x6DF JUMP JUMPDEST PUSH1 0x40 MLOAD DUP1 SWAP2 SUB SWAP1 RETURN JUMPDEST PUSH2 0xC1 PUSH2 0x2CF JUMP JUMPDEST STOP JUMPDEST PUSH2 0xDD PUSH1 0x4 DUP1 CALLDATASIZE SUB DUP2 ADD SWAP1 PUSH2 0xD8 SWAP2 SWAP1 PUSH2 0x6F8 JUMP JUMPDEST PUSH2 0x2E2 JUMP JUMPDEST STOP JUMPDEST PUSH2 0xE7 PUSH2 0x3E2 JUMP JUMPDEST PUSH1 0x40 MLOAD PUSH2 0xF4 SWAP2 SWAP1 PUSH2 0x732 JUMP JUMPDEST PUSH1 0x40 MLOAD DUP1 SWAP2 SUB SWAP1 RETURN JUMPDEST PUSH2 0x105 PUSH2 0x409 JUMP JUMPDEST PUSH1 0x40 MLOAD PUSH2 0x112 SWAP2 SWAP1 PUSH2 0x7A6 JUMP JUMPDEST PUSH1 0x40 MLOAD DUP1 SWAP2 SUB SWAP1 RETURN JUMPDEST PUSH2 0x135 PUSH1 0x4 DUP1 CALLDATASIZE SUB DUP2 ADD SWAP1 PUSH2 0x130 SWAP2 SWAP1 PUSH2 0x7BF JUMP JUMPDEST PUSH2 0x42E JUMP JUMPDEST STOP JUMPDEST PUSH2 0x13F PUSH2 0x4B2 JUMP JUMPDEST PUSH1 0x2 SLOAD DUP2 GT ISZERO PUSH2 0x184 JUMPI PUSH1 0x40 MLOAD PUSH32 0x8C379A000000000000000000000000000000000000000000000000000000000 DUP2 MSTORE PUSH1 0x4 ADD PUSH2 0x17B SWAP1 PUSH2 0x86A JUMP JUMPDEST PUSH1 0x40 MLOAD DUP1 SWAP2 SUB SWAP1 REVERT JUMPDEST PUSH1 0x1 PUSH0 SWAP1 SLOAD SWAP1 PUSH2 0x100 EXP SWAP1 DIV PUSH20 0xFFFFFFFFFFFFFFFFFFFFFFFFFFFFFFFFFFFFFFFF AND PUSH20 0xFFFFFFFFFFFFFFFFFFFFFFFFFFFFFFFFFFFFFFFF AND PUSH4 0xA9059CBB DUP4 DUP4 PUSH1 0x40 MLOAD DUP4 PUSH4 0xFFFFFFFF AND PUSH1 0xE0 SHL DUP2 MSTORE PUSH1 0x4 ADD PUSH2 0x1E0 SWAP3 SWAP2 SWAP1 PUSH2 0x888 JUMP JUMPDEST PUSH1 0x20 PUSH1 0x40 MLOAD DUP1 DUP4 SUB DUP2 PUSH0 DUP8 GAS CALL ISZERO DUP1 ISZERO PUSH2 0x1FC JUMPI RETURNDATASIZE PUSH0 DUP1 RETURNDATACOPY RETURNDATASIZE PUSH0 REVERT JUMPDEST POP POP POP POP PUSH1 0x40 MLOAD RETURNDATASIZE PUSH1 0x1F NOT PUSH1 0x1F DUP3 ADD AND DUP3 ADD DUP1 PUSH1 0x40 MSTORE POP DUP2 ADD SWAP1 PUSH2 0x220 SWAP2 SWAP1 PUSH2 0x8E4 JUMP JUMPDEST PUSH2 0x25F JUMPI PUSH1 0x40 MLOAD PUSH32 0x8C379A000000000000000000000000000000000000000000000000000000000 DUP2 MSTORE PUSH1 0x4 ADD PUSH2 0x256 SWAP1 PUSH2 0x959 JUMP JUMPDEST PUSH1 0x40 MLOAD DUP1 SWAP2 SUB SWAP1 REVERT JUMPDEST DUP1 PUSH1 0x2 PUSH0 DUP3 DUP3 SLOAD PUSH2 0x270 SWAP2 SWAP1 PUSH2 0x9A4 JUMP JUMPDEST SWAP3 POP POP DUP2 SWAP1 SSTORE POP DUP2 PUSH20 0xFFFFFFFFFFFFFFFFFFFFFFFFFFFFFFFFFFFFFFFF AND PUSH32 0xE2403640BA68FED3A2F88B7557551D1993F84B99BB10FF833F0CF8DB0C5E0486 DUP3 PUSH1 0x40 MLOAD PUSH2 0x2BD SWAP2 SWAP1 PUSH2 0x6DF JUMP JUMPDEST PUSH1 0x40 MLOAD DUP1 SWAP2 SUB SWAP1 LOG2 POP POP JUMP JUMPDEST PUSH1 0x2 SLOAD DUP2 JUMP JUMPDEST PUSH2 0x2D7 PUSH2 0x4B2 JUMP JUMPDEST PUSH2 0x2E0 PUSH0 PUSH2 0x539 JUMP JUMPDEST JUMP JUMPDEST PUSH2 0x2EA PUSH2 0x4B2 JUMP JUMPDEST PUSH1 0x1 PUSH0 SWAP1 SLOAD SWAP1 PUSH2 0x100 EXP SWAP1 DIV PUSH20 0xFFFFFFFFFFFFFFFFFFFFFFFFFFFFFFFFFFFFFFFF AND PUSH20 0xFFFFFFFFFFFFFFFFFFFFFFFFFFFFFFFFFFFFFFFF AND PUSH4 0x23B872DD CALLER ADDRESS DUP5 PUSH1 0x40 MLOAD DUP5 PUSH4 0xFFFFFFFF AND PUSH1 0xE0 SHL DUP2 MSTORE PUSH1 0x4 ADD PUSH2 0x348 SWAP4 SWAP3 SWAP2 SWAP1 PUSH2 0x9D7 JUMP JUMPDEST PUSH1 0x20 PUSH1 0x40 MLOAD DUP1 DUP4 SUB DUP2 PUSH0 DUP8 GAS CALL ISZERO DUP1 ISZERO PUSH2 0x364 JUMPI RETURNDATASIZE PUSH0 DUP1 RETURNDATACOPY RETURNDATASIZE PUSH0 REVERT JUMPDEST POP POP POP POP PUSH1 0x40 MLOAD RETURNDATASIZE PUSH1 0x1F NOT PUSH1 0x1F DUP3 ADD AND DUP3 ADD DUP1 PUSH1 0x40 MSTORE POP DUP2 ADD SWAP1 PUSH2 0x388 SWAP2 SWAP1 PUSH2 0x8E4 JUMP JUMPDEST PUSH2 0x3C7 JUMPI PUSH1 0x40 MLOAD PUSH32 0x8C379A000000000000000000000000000000000000000000000000000000000 DUP2 MSTORE PUSH1 0x4 ADD PUSH2 0x3BE SWAP1 PUSH2 0xA56 JUMP JUMPDEST PUSH1 0x40 MLOAD DUP1 SWAP2 SUB SWAP1 REVERT JUMPDEST DUP1 PUSH1 0x2 PUSH0 DUP3 DUP3 SLOAD PUSH2 0x3D8 SWAP2 SWAP1 PUSH2 0xA74 JUMP JUMPDEST SWAP3 POP POP DUP2 SWAP1 SSTORE POP POP JUMP JUMPDEST PUSH0 DUP1 PUSH0 SWAP1 SLOAD SWAP1 PUSH2 0x100 EXP SWAP1 DIV PUSH20 0xFFFFFFFFFFFFFFFFFFFFFFFFFFFFFFFFFFFFFFFF AND SWAP1 POP SWAP1 JUMP JUMPDEST PUSH1 0x1 PUSH0 SWAP1 SLOAD SWAP1 PUSH2 0x100 EXP SWAP1 DIV PUSH20 0xFFFFFFFFFFFFFFFFFFFFFFFFFFFFFFFFFFFFFFFF AND DUP2 JUMP JUMPDEST PUSH2 0x436 PUSH2 0x4B2 JUMP JUMPDEST PUSH0 PUSH20 0xFFFFFFFFFFFFFFFFFFFFFFFFFFFFFFFFFFFFFFFF AND DUP2 PUSH20 0xFFFFFFFFFFFFFFFFFFFFFFFFFFFFFFFFFFFFFFFF AND SUB PUSH2 0x4A6 JUMPI PUSH0 PUSH1 0x40 MLOAD PUSH32 0x1E4FBDF700000000000000000000000000000000000000000000000000000000 DUP2 MSTORE PUSH1 0x4 ADD PUSH2 0x49D SWAP2 SWAP1 PUSH2 0x732 JUMP JUMPDEST PUSH1 0x40 MLOAD DUP1 SWAP2 SUB SWAP1 REVERT JUMPDEST PUSH2 0x4AF DUP2 PUSH2 0x539 JUMP JUMPDEST POP JUMP JUMPDEST PUSH2 0x4BA PUSH2 0x5FA JUMP JUMPDEST PUSH20 0xFFFFFFFFFFFFFFFFFFFFFFFFFFFFFFFFFFFFFFFF AND PUSH2 0x4D8 PUSH2 0x3E2 JUMP JUMPDEST PUSH20 0xFFFFFFFFFFFFFFFFFFFFFFFFFFFFFFFFFFFFFFFF AND EQ PUSH2 0x537 JUMPI PUSH2 0x4FB PUSH2 0x5FA JUMP JUMPDEST PUSH1 0x40 MLOAD PUSH32 0x118CDAA700000000000000000000000000000000000000000000000000000000 DUP2 MSTORE PUSH1 0x4 ADD PUSH2 0x52E SWAP2 SWAP1 PUSH2 0x732 JUMP JUMPDEST PUSH1 0x40 MLOAD DUP1 SWAP2 SUB SWAP1 REVERT JUMPDEST JUMP JUMPDEST PUSH0 DUP1 PUSH0 SWAP1 SLOAD SWAP1 PUSH2 0x100 EXP SWAP1 DIV PUSH20 0xFFFFFFFFFFFFFFFFFFFFFFFFFFFFFFFFFFFFFFFF AND SWAP1 POP DUP2 PUSH0 DUP1 PUSH2 0x100 EXP DUP2 SLOAD DUP2 PUSH20 0xFFFFFFFFFFFFFFFFFFFFFFFFFFFFFFFFFFFFFFFF MUL NOT AND SWAP1 DUP4 PUSH20 0xFFFFFFFFFFFFFFFFFFFFFFFFFFFFFFFFFFFFFFFF AND MUL OR SWAP1 SSTORE POP DUP2 PUSH20 0xFFFFFFFFFFFFFFFFFFFFFFFFFFFFFFFFFFFFFFFF AND DUP2 PUSH20 0xFFFFFFFFFFFFFFFFFFFFFFFFFFFFFFFFFFFFFFFF AND PUSH32 0x8BE0079C531659141344CD1FD0A4F28419497F9722A3DAAFE3B4186F6B6457E0 PUSH1 0x40 MLOAD PUSH1 0x40 MLOAD DUP1 SWAP2 SUB SWAP1 LOG3 POP POP JUMP JUMPDEST PUSH0 CALLER SWAP1 POP SWAP1 JUMP JUMPDEST PUSH0 DUP1 REVERT JUMPDEST PUSH0 PUSH20 0xFFFFFFFFFFFFFFFFFFFFFFFFFFFFFFFFFFFFFFFF DUP3 AND SWAP1 POP SWAP2 SWAP1 POP JUMP JUMPDEST PUSH0 PUSH2 0x62E DUP3 PUSH2 0x605 JUMP JUMPDEST SWAP1 POP SWAP2 SWAP1 POP JUMP JUMPDEST PUSH2 0x63E DUP2 PUSH2 0x624 JUMP JUMPDEST DUP2 EQ PUSH2 0x648 JUMPI PUSH0 DUP1 REVERT JUMPDEST POP JUMP JUMPDEST PUSH0 DUP2 CALLDATALOAD SWAP1 POP PUSH2 0x659 DUP2 PUSH2 0x635 JUMP JUMPDEST SWAP3 SWAP2 POP POP JUMP JUMPDEST PUSH0 DUP2 SWAP1 POP SWAP2 SWAP1 POP JUMP JUMPDEST PUSH2 0x671 DUP2 PUSH2 0x65F JUMP JUMPDEST DUP2 EQ PUSH2 0x67B JUMPI PUSH0 DUP1 REVERT JUMPDEST POP JUMP JUMPDEST PUSH0 DUP2 CALLDATALOAD SWAP1 POP PUSH2 0x68C DUP2 PUSH2 0x668 JUMP JUMPDEST SWAP3 SWAP2 POP POP JUMP JUMPDEST PUSH0 DUP1 PUSH1 0x40 DUP4 DUP6 SUB SLT ISZERO PUSH2 0x6A8 JUMPI PUSH2 0x6A7 PUSH2 0x601 JUMP JUMPDEST JUMPDEST PUSH0 PUSH2 0x6B5 DUP6 DUP3 DUP7 ADD PUSH2 0x64B JUMP JUMPDEST SWAP3 POP POP PUSH1 0x20 PUSH2 0x6C6 DUP6 DUP3 DUP7 ADD PUSH2 0x67E JUMP JUMPDEST SWAP2 POP POP SWAP3 POP SWAP3 SWAP1 POP JUMP JUMPDEST PUSH2 0x6D9 DUP2 PUSH2 0x65F JUMP JUMPDEST DUP3 MSTORE POP POP JUMP JUMPDEST PUSH0 PUSH1 0x20 DUP3 ADD SWAP1 POP PUSH2 0x6F2 PUSH0 DUP4 ADD DUP5 PUSH2 0x6D0 JUMP JUMPDEST SWAP3 SWAP2 POP POP JUMP JUMPDEST PUSH0 PUSH1 0x20 DUP3 DUP5 SUB SLT ISZERO PUSH2 0x70D JUMPI PUSH2 0x70C PUSH2 0x601 JUMP JUMPDEST JUMPDEST PUSH0 PUSH2 0x71A DUP5 DUP3 DUP6 ADD PUSH2 0x67E JUMP JUMPDEST SWAP2 POP POP SWAP3 SWAP2 POP POP JUMP JUMPDEST PUSH2 0x72C DUP2 PUSH2 0x624 JUMP JUMPDEST DUP3 MSTORE POP POP JUMP JUMPDEST PUSH0 PUSH1 0x20 DUP3 ADD SWAP1 POP PUSH2 0x745 PUSH0 DUP4 ADD DUP5 PUSH2 0x723 JUMP JUMPDEST SWAP3 SWAP2 POP POP JUMP JUMPDEST PUSH0 DUP2 SWAP1 POP SWAP2 SWAP1 POP JUMP JUMPDEST PUSH0 PUSH2 0x76E PUSH2 0x769 PUSH2 0x764 DUP5 PUSH2 0x605 JUMP JUMPDEST PUSH2 0x74B JUMP JUMPDEST PUSH2 0x605 JUMP JUMPDEST SWAP1 POP SWAP2 SWAP1 POP JUMP JUMPDEST PUSH0 PUSH2 0x77F DUP3 PUSH2 0x754 JUMP JUMPDEST SWAP1 POP SWAP2 SWAP1 POP JUMP JUMPDEST PUSH0 PUSH2 0x790 DUP3 PUSH2 0x775 JUMP JUMPDEST SWAP1 POP SWAP2 SWAP1 POP JUMP JUMPDEST PUSH2 0x7A0 DUP2 PUSH2 0x786 JUMP JUMPDEST DUP3 MSTORE POP POP JUMP JUMPDEST PUSH0 PUSH1 0x20 DUP3 ADD SWAP1 POP PUSH2 0x7B9 PUSH0 DUP4 ADD DUP5 PUSH2 0x797 JUMP JUMPDEST SWAP3 SWAP2 POP POP JUMP JUMPDEST PUSH0 PUSH1 0x20 DUP3 DUP5 SUB SLT ISZERO PUSH2 0x7D4 JUMPI PUSH2 0x7D3 PUSH2 0x601 JUMP JUMPDEST JUMPDEST PUSH0 PUSH2 0x7E1 DUP5 DUP3 DUP6 ADD PUSH2 0x64B JUMP JUMPDEST SWAP2 POP POP SWAP3 SWAP2 POP POP JUMP JUMPDEST PUSH0 DUP3 DUP3 MSTORE PUSH1 0x20 DUP3 ADD SWAP1 POP SWAP3 SWAP2 POP POP JUMP JUMPDEST PUSH32 0x496E73756666696369656E74207265776172647320706F6F6C2062616C616E63 PUSH0 DUP3 ADD MSTORE PUSH32 0x6500000000000000000000000000000000000000000000000000000000000000 PUSH1 0x20 DUP3 ADD MSTORE POP JUMP JUMPDEST PUSH0 PUSH2 0x854 PUSH1 0x21 DUP4 PUSH2 0x7EA JUMP JUMPDEST SWAP2 POP PUSH2 0x85F DUP3 PUSH2 0x7FA JUMP JUMPDEST PUSH1 0x40 DUP3 ADD SWAP1 POP SWAP2 SWAP1 POP JUMP JUMPDEST PUSH0 PUSH1 0x20 DUP3 ADD SWAP1 POP DUP2 DUP2 SUB PUSH0 DUP4 ADD MSTORE PUSH2 0x881 DUP2 PUSH2 0x848 JUMP JUMPDEST SWAP1 POP SWAP2 SWAP1 POP JUMP JUMPDEST PUSH0 PUSH1 0x40 DUP3 ADD SWAP1 POP PUSH2 0x89B PUSH0 DUP4 ADD DUP6 PUSH2 0x723 JUMP JUMPDEST PUSH2 0x8A8 PUSH1 0x20 DUP4 ADD DUP5 PUSH2 0x6D0 JUMP JUMPDEST SWAP4 SWAP3 POP POP POP JUMP JUMPDEST PUSH0 DUP2 ISZERO ISZERO SWAP1 POP SWAP2 SWAP1 POP JUMP JUMPDEST PUSH2 0x8C3 DUP2 PUSH2 0x8AF JUMP JUMPDEST DUP2 EQ PUSH2 0x8CD JUMPI PUSH0 DUP1 REVERT JUMPDEST POP JUMP JUMPDEST PUSH0 DUP2 MLOAD SWAP1 POP PUSH2 0x8DE DUP2 PUSH2 0x8BA JUMP JUMPDEST SWAP3 SWAP2 POP POP JUMP JUMPDEST PUSH0 PUSH1 0x20 DUP3 DUP5 SUB SLT ISZERO PUSH2 0x8F9 JUMPI PUSH2 0x8F8 PUSH2 0x601 JUMP JUMPDEST JUMPDEST PUSH0 PUSH2 0x906 DUP5 DUP3 DUP6 ADD PUSH2 0x8D0 JUMP JUMPDEST SWAP2 POP POP SWAP3 SWAP2 POP POP JUMP JUMPDEST PUSH32 0x526577617264207472616E73666572206661696C656400000000000000000000 PUSH0 DUP3 ADD MSTORE POP JUMP JUMPDEST PUSH0 PUSH2 0x943 PUSH1 0x16 DUP4 PUSH2 0x7EA JUMP JUMPDEST SWAP2 POP PUSH2 0x94E DUP3 PUSH2 0x90F JUMP JUMPDEST PUSH1 0x20 DUP3 ADD SWAP1 POP SWAP2 SWAP1 POP JUMP JUMPDEST PUSH0 PUSH1 0x20 DUP3 ADD SWAP1 POP DUP2 DUP2 SUB PUSH0 DUP4 ADD MSTORE PUSH2 0x970 DUP2 PUSH2 0x937 JUMP JUMPDEST SWAP1 POP SWAP2 SWAP1 POP JUMP JUMPDEST PUSH32 0x4E487B7100000000000000000000000000000000000000000000000000000000 PUSH0 MSTORE PUSH1 0x11 PUSH1 0x4 MSTORE PUSH1 0x24 PUSH0 REVERT JUMPDEST PUSH0 PUSH2 0x9AE DUP3 PUSH2 0x65F JUMP JUMPDEST SWAP2 POP PUSH2 0x9B9 DUP4 PUSH2 0x65F JUMP JUMPDEST SWAP3 POP DUP3 DUP3 SUB SWAP1 POP DUP2 DUP2 GT ISZERO PUSH2 0x9D1 JUMPI PUSH2 0x9D0 PUSH2 0x977 JUMP JUMPDEST JUMPDEST SWAP3 SWAP2 POP POP JUMP JUMPDEST PUSH0 PUSH1 0x60 DUP3 ADD SWAP1 POP PUSH2 0x9EA PUSH0 DUP4 ADD DUP7 PUSH2 0x723 JUMP JUMPDEST PUSH2 0x9F7 PUSH1 0x20 DUP4 ADD DUP6 PUSH2 0x723 JUMP JUMPDEST PUSH2 0xA04 PUSH1 0x40 DUP4 ADD DUP5 PUSH2 0x6D0 JUMP JUMPDEST SWAP5 SWAP4 POP POP POP POP JUMP JUMPDEST PUSH32 0x5472616E73666572206661696C65640000000000000000000000000000000000 PUSH0 DUP3 ADD MSTORE POP JUMP JUMPDEST PUSH0 PUSH2 0xA40 PUSH1 0xF DUP4 PUSH2 0x7EA JUMP JUMPDEST SWAP2 POP PUSH2 0xA4B DUP3 PUSH2 0xA0C JUMP JUMPDEST PUSH1 0x20 DUP3 ADD SWAP1 POP SWAP2 SWAP1 POP JUMP JUMPDEST PUSH0 PUSH1 0x20 DUP3 ADD SWAP1 POP DUP2 DUP2 SUB PUSH0 DUP4 ADD MSTORE PUSH2 0xA6D DUP2 PUSH2 0xA34 JUMP JUMPDEST SWAP1 POP SWAP2 SWAP1 POP JUMP JUMPDEST PUSH0 PUSH2 0xA7E DUP3 PUSH2 0x65F JUMP JUMPDEST SWAP2 POP PUSH2 0xA89 DUP4 PUSH2 0x65F JUMP JUMPDEST SWAP3 POP DUP3 DUP3 ADD SWAP1 POP DUP1 DUP3 GT ISZERO PUSH2 0xAA1 JUMPI PUSH2 0xAA0 PUSH2 0x977 JUMP JUMPDEST JUMPDEST SWAP3 SWAP2 POP POP JUMP INVALID LOG2 PUSH5 0x6970667358 0x22 SLT KECCAK256 0xDE SWAP3 0xCF 0xAF SLOAD CREATE JUMPDEST 0xEE 0xD6 0xC 0xB9 0xF6 0xCF GASPRICE 0xD1 PUSH30 0xCDA297A19DC1CE6EFC2F70333BA1C23B64736F6C63430008140033000000 "
		},
		"gasEstimates": {
			"creation": {
				"codeDepositCost": "556200",
				"executionCost": "infinite",
				"totalCost": "infinite"
			},
			"external": {
				"depositRewards(uint256)": "infinite",
				"distributeReward(address,uint256)": "infinite",
				"owner()": "2537",
				"renounceOwnership()": "infinite",
				"rewardsPoolBalance()": "2448",
				"transferOwnership(address)": "infinite",
				"volumToken()": "infinite"
			}
		},
		"methodIdentifiers": {
			"depositRewards(uint256)": "8bdf67f2",
			"distributeReward(address,uint256)": "1ec8bb8c",
			"owner()": "8da5cb5b",
			"renounceOwnership()": "715018a6",
			"rewardsPoolBalance()": "4a066852",
			"transferOwnership(address)": "f2fde38b",
			"volumToken()": "9af08dd5"
		}
	},
	"abi": [
		{
			"inputs": [
				{
					"internalType": "address",
					"name": "_volumTokenAddress",
					"type": "address"
				},
				{
					"internalType": "address",
					"name": "initialOwner",
					"type": "address"
				}
			],
			"stateMutability": "nonpayable",
			"type": "constructor"
		},
		{
			"inputs": [
				{
					"internalType": "address",
					"name": "owner",
					"type": "address"
				}
			],
			"name": "OwnableInvalidOwner",
			"type": "error"
		},
		{
			"inputs": [
				{
					"internalType": "address",
					"name": "account",
					"type": "address"
				}
			],
			"name": "OwnableUnauthorizedAccount",
			"type": "error"
		},
		{
			"anonymous": false,
			"inputs": [
				{
					"indexed": true,
					"internalType": "address",
					"name": "previousOwner",
					"type": "address"
				},
				{
					"indexed": true,
					"internalType": "address",
					"name": "newOwner",
					"type": "address"
				}
			],
			"name": "OwnershipTransferred",
			"type": "event"
		},
		{
			"anonymous": false,
			"inputs": [
				{
					"indexed": true,
					"internalType": "address",
					"name": "user",
					"type": "address"
				},
				{
					"indexed": false,
					"internalType": "uint256",
					"name": "rewardAmount",
					"type": "uint256"
				}
			],
			"name": "RewardPaid",
			"type": "event"
		},
		{
			"inputs": [
				{
					"internalType": "uint256",
					"name": "amount",
					"type": "uint256"
				}
			],
			"name": "depositRewards",
			"outputs": [],
			"stateMutability": "nonpayable",
			"type": "function"
		},
		{
			"inputs": [
				{
					"internalType": "address",
					"name": "user",
					"type": "address"
				},
				{
					"internalType": "uint256",
					"name": "amount",
					"type": "uint256"
				}
			],
			"name": "distributeReward",
			"outputs": [],
			"stateMutability": "nonpayable",
			"type": "function"
		},
		{
			"inputs": [],
			"name": "owner",
			"outputs": [
				{
					"internalType": "address",
					"name": "",
					"type": "address"
				}
			],
			"stateMutability": "view",
			"type": "function"
		},
		{
			"inputs": [],
			"name": "renounceOwnership",
			"outputs": [],
			"stateMutability": "nonpayable",
			"type": "function"
		},
		{
			"inputs": [],
			"name": "rewardsPoolBalance",
			"outputs": [
				{
					"internalType": "uint256",
					"name": "",
					"type": "uint256"
				}
			],
			"stateMutability": "view",
			"type": "function"
		},
		{
			"inputs": [
				{
					"internalType": "address",
					"name": "newOwner",
					"type": "address"
				}
			],
			"name": "transferOwnership",
			"outputs": [],
			"stateMutability": "nonpayable",
			"type": "function"
		},
		{
			"inputs": [],
			"name": "volumToken",
			"outputs": [
				{
					"internalType": "contract IERC20",
					"name": "",
					"type": "address"
				}
			],
			"stateMutability": "view",
			"type": "function"
		}
	]
}