{
	"contracts/VolumICO.sol": {
		"VolumICO": {
			"abi": [
				{
					"inputs": [
						{
							"internalType": "address",
							"name": "_volumTokenAddress",
							"type": "address"
						},
						{
							"internalType": "uint256",
							"name": "_icoDuration",
							"type": "uint256"
						}
					],
					"stateMutability": "nonpayable",
					"type": "constructor"
				},
				{
					"inputs": [
						{
							"internalType": "address",
							"name": "owner",
							"type": "address"
						}
					],
					"name": "OwnableInvalidOwner",
					"type": "error"
				},
				{
					"inputs": [
						{
							"internalType": "address",
							"name": "account",
							"type": "address"
						}
					],
					"name": "OwnableUnauthorizedAccount",
					"type": "error"
				},
				{
					"anonymous": false,
					"inputs": [
						{
							"indexed": true,
							"internalType": "address",
							"name": "previousOwner",
							"type": "address"
						},
						{
							"indexed": true,
							"internalType": "address",
							"name": "newOwner",
							"type": "address"
						}
					],
					"name": "OwnershipTransferred",
					"type": "event"
				},
				{
					"anonymous": false,
					"inputs": [
						{
							"indexed": true,
							"internalType": "address",
							"name": "purchaser",
							"type": "address"
						},
						{
							"indexed": false,
							"internalType": "uint256",
							"name": "amount",
							"type": "uint256"
						}
					],
					"name": "TokensPurchased",
					"type": "event"
				},
				{
					"inputs": [],
					"name": "ICO_ALLOCATION",
					"outputs": [
						{
							"internalType": "uint256",
							"name": "",
							"type": "uint256"
						}
					],
					"stateMutability": "view",
					"type": "function"
				},
				{
					"inputs": [],
					"name": "ICO_PRICE",
					"outputs": [
						{
							"internalType": "uint256",
							"name": "",
							"type": "uint256"
						}
					],
					"stateMutability": "view",
					"type": "function"
				},
				{
					"inputs": [],
					"name": "burnRateOnBuy",
					"outputs": [
						{
							"internalType": "uint256",
							"name": "",
							"type": "uint256"
						}
					],
					"stateMutability": "view",
					"type": "function"
				},
				{
					"inputs": [],
					"name": "buyTokens",
					"outputs": [],
					"stateMutability": "payable",
					"type": "function"
				},
				{
					"inputs": [],
					"name": "endIco",
					"outputs": [],
					"stateMutability": "nonpayable",
					"type": "function"
				},
				{
					"inputs": [],
					"name": "icoEndTime",
					"outputs": [
						{
							"internalType": "uint256",
							"name": "",
							"type": "uint256"
						}
					],
					"stateMutability": "view",
					"type": "function"
				},
				{
					"inputs": [],
					"name": "owner",
					"outputs": [
						{
							"internalType": "address",
							"name": "",
							"type": "address"
						}
					],
					"stateMutability": "view",
					"type": "function"
				},
				{
					"inputs": [],
					"name": "renounceOwnership",
					"outputs": [],
					"stateMutability": "nonpayable",
					"type": "function"
				},
				{
					"inputs": [],
					"name": "tokensSold",
					"outputs": [
						{
							"internalType": "uint256",
							"name": "",
							"type": "uint256"
						}
					],
					"stateMutability": "view",
					"type": "function"
				},
				{
					"inputs": [
						{
							"internalType": "address",
							"name": "newOwner",
							"type": "address"
						}
					],
					"name": "transferOwnership",
					"outputs": [],
					"stateMutability": "nonpayable",
					"type": "function"
				},
				{
					"inputs": [],
					"name": "volumToken",
					"outputs": [
						{
							"internalType": "contract IERC20",
							"name": "",
							"type": "address"
						}
					],
					"stateMutability": "view",
					"type": "function"
				},
				{
					"inputs": [],
					"name": "withdrawFunds",
					"outputs": [],
					"stateMutability": "nonpayable",
					"type": "function"
				}
			],
			"devdoc": {
				"errors": {
					"OwnableInvalidOwner(address)": [
						{
							"details": "The owner is not a valid owner account. (eg. `address(0)`)"
						}
					],
					"OwnableUnauthorizedAccount(address)": [
						{
							"details": "The caller account is not authorized to perform an operation."
						}
					]
				},
				"kind": "dev",
				"methods": {
					"owner()": {
						"details": "Returns the address of the current owner."
					},
					"renounceOwnership()": {
						"details": "Leaves the contract without owner. It will not be possible to call `onlyOwner` functions. Can only be called by the current owner. NOTE: Renouncing ownership will leave the contract without an owner, thereby disabling any functionality that is only available to the owner."
					},
					"transferOwnership(address)": {
						"details": "Transfers ownership of the contract to a new account (`newOwner`). Can only be called by the current owner."
					}
				},
				"version": 1
			},
			"evm": {
				"assembly": "    /* \"contracts/VolumICO.sol\":238:2096  contract VolumICO is ReentrancyGuard, Ownable {... */\n  mstore(0x40, 0x80)\n    /* \"contracts/VolumICO.sol\":572:573  1 */\n  0x01\n    /* \"contracts/VolumICO.sol\":541:573  uint256 public burnRateOnBuy = 1 */\n  0x05\n  sstore\n    /* \"contracts/VolumICO.sol\":694:977  constructor(address _volumTokenAddress, uint256 _icoDuration) Ownable(msg.sender) {... */\n  callvalue\n  dup1\n  iszero\n  tag_1\n  jumpi\n  0x00\n  dup1\n  revert\ntag_1:\n  pop\n  mload(0x40)\n  sub(codesize, bytecodeSize)\n  dup1\n  bytecodeSize\n  dup4\n  codecopy\n  dup2\n  dup2\n  add\n  0x40\n  mstore\n  dup2\n  add\n  swap1\n  tag_2\n  swap2\n  swap1\n  tag_3\n  jump\t// in\ntag_2:\n    /* \"contracts/VolumICO.sol\":764:774  msg.sender */\n  caller\n    /* \"@openzeppelin/contracts/security/ReentrancyGuard.sol\":1716:1717  1 */\n  0x01\n    /* \"@openzeppelin/contracts/security/ReentrancyGuard.sol\":1821:1828  _status */\n  0x00\n    /* \"@openzeppelin/contracts/security/ReentrancyGuard.sol\":1821:1843  _status = _NOT_ENTERED */\n  dup2\n  swap1\n  sstore\n  pop\n    /* \"@openzeppelin/contracts/access/Ownable.sol\":1297:1298  0 */\n  0x00\n    /* \"@openzeppelin/contracts/access/Ownable.sol\":1273:1299  initialOwner == address(0) */\n  0xffffffffffffffffffffffffffffffffffffffff\n  and\n    /* \"@openzeppelin/contracts/access/Ownable.sol\":1273:1285  initialOwner */\n  dup2\n    /* \"@openzeppelin/contracts/access/Ownable.sol\":1273:1299  initialOwner == address(0) */\n  0xffffffffffffffffffffffffffffffffffffffff\n  and\n  sub\n    /* \"@openzeppelin/contracts/access/Ownable.sol\":1269:1364  if (initialOwner == address(0)) {... */\n  tag_9\n  jumpi\n    /* \"@openzeppelin/contracts/access/Ownable.sol\":1350:1351  0 */\n  0x00\n    /* \"@openzeppelin/contracts/access/Ownable.sol\":1322:1353  OwnableInvalidOwner(address(0)) */\n  mload(0x40)\n  0x1e4fbdf700000000000000000000000000000000000000000000000000000000\n  dup2\n  mstore\n  0x04\n  add\n  tag_10\n  swap2\n  swap1\n  tag_11\n  jump\t// in\ntag_10:\n  mload(0x40)\n  dup1\n  swap2\n  sub\n  swap1\n  revert\n    /* \"@openzeppelin/contracts/access/Ownable.sol\":1269:1364  if (initialOwner == address(0)) {... */\ntag_9:\n    /* \"@openzeppelin/contracts/access/Ownable.sol\":1373:1405  _transferOwnership(initialOwner) */\n  tag_12\n    /* \"@openzeppelin/contracts/access/Ownable.sol\":1392:1404  initialOwner */\n  dup2\n    /* \"@openzeppelin/contracts/access/Ownable.sol\":1373:1391  _transferOwnership */\n  shl(0x20, tag_13)\n    /* \"@openzeppelin/contracts/access/Ownable.sol\":1373:1405  _transferOwnership(initialOwner) */\n  0x20\n  shr\n  jump\t// in\ntag_12:\n    /* \"@openzeppelin/contracts/access/Ownable.sol\":1225:1412  constructor(address initialOwner) {... */\n  pop\n    /* \"contracts/VolumICO.sol\":825:826  0 */\n  0x00\n    /* \"contracts/VolumICO.sol\":795:827  _volumTokenAddress != address(0) */\n  0xffffffffffffffffffffffffffffffffffffffff\n  and\n    /* \"contracts/VolumICO.sol\":795:813  _volumTokenAddress */\n  dup3\n    /* \"contracts/VolumICO.sol\":795:827  _volumTokenAddress != address(0) */\n  0xffffffffffffffffffffffffffffffffffffffff\n  and\n  sub\n    /* \"contracts/VolumICO.sol\":787:865  require(_volumTokenAddress != address(0), \"VolumToken address cannot be zero\") */\n  tag_15\n  jumpi\n  mload(0x40)\n  0x08c379a000000000000000000000000000000000000000000000000000000000\n  dup2\n  mstore\n  0x04\n  add\n  tag_16\n  swap1\n  tag_17\n  jump\t// in\ntag_16:\n  mload(0x40)\n  dup1\n  swap2\n  sub\n  swap1\n  revert\ntag_15:\n    /* \"contracts/VolumICO.sol\":896:914  _volumTokenAddress */\n  dup2\n    /* \"contracts/VolumICO.sol\":876:886  volumToken */\n  0x02\n  0x00\n    /* \"contracts/VolumICO.sol\":876:915  volumToken = IERC20(_volumTokenAddress) */\n  0x0100\n  exp\n  dup2\n  sload\n  dup2\n  0xffffffffffffffffffffffffffffffffffffffff\n  mul\n  not\n  and\n  swap1\n  dup4\n  0xffffffffffffffffffffffffffffffffffffffff\n  and\n  mul\n  or\n  swap1\n  sstore\n  pop\n    /* \"contracts/VolumICO.sol\":957:969  _icoDuration */\n  dup1\n    /* \"contracts/VolumICO.sol\":939:954  block.timestamp */\n  timestamp\n    /* \"contracts/VolumICO.sol\":939:969  block.timestamp + _icoDuration */\n  tag_18\n  swap2\n  swap1\n  tag_19\n  jump\t// in\ntag_18:\n    /* \"contracts/VolumICO.sol\":926:936  icoEndTime */\n  0x04\n    /* \"contracts/VolumICO.sol\":926:969  icoEndTime = block.timestamp + _icoDuration */\n  dup2\n  swap1\n  sstore\n  pop\n    /* \"contracts/VolumICO.sol\":694:977  constructor(address _volumTokenAddress, uint256 _icoDuration) Ownable(msg.sender) {... */\n  pop\n  pop\n    /* \"contracts/VolumICO.sol\":238:2096  contract VolumICO is ReentrancyGuard, Ownable {... */\n  jump(tag_20)\n    /* \"@openzeppelin/contracts/access/Ownable.sol\":2912:3099  function _transferOwnership(address newOwner) internal virtual {... */\ntag_13:\n    /* \"@openzeppelin/contracts/access/Ownable.sol\":2985:3001  address oldOwner */\n  0x00\n    /* \"@openzeppelin/contracts/access/Ownable.sol\":3004:3010  _owner */\n  0x01\n  0x00\n  swap1\n  sload\n  swap1\n  0x0100\n  exp\n  swap1\n  div\n  0xffffffffffffffffffffffffffffffffffffffff\n  and\n    /* \"@openzeppelin/contracts/access/Ownable.sol\":2985:3010  address oldOwner = _owner */\n  swap1\n  pop\n    /* \"@openzeppelin/contracts/access/Ownable.sol\":3029:3037  newOwner */\n  dup2\n    /* \"@openzeppelin/contracts/access/Ownable.sol\":3020:3026  _owner */\n  0x01\n  0x00\n    /* \"@openzeppelin/contracts/access/Ownable.sol\":3020:3037  _owner = newOwner */\n  0x0100\n  exp\n  dup2\n  sload\n  dup2\n  0xffffffffffffffffffffffffffffffffffffffff\n  mul\n  not\n  and\n  swap1\n  dup4\n  0xffffffffffffffffffffffffffffffffffffffff\n  and\n  mul\n  or\n  swap1\n  sstore\n  pop\n    /* \"@openzeppelin/contracts/access/Ownable.sol\":3083:3091  newOwner */\n  dup2\n    /* \"@openzeppelin/contracts/access/Ownable.sol\":3052:3092  OwnershipTransferred(oldOwner, newOwner) */\n  0xffffffffffffffffffffffffffffffffffffffff\n  and\n    /* \"@openzeppelin/contracts/access/Ownable.sol\":3073:3081  oldOwner */\n  dup2\n    /* \"@openzeppelin/contracts/access/Ownable.sol\":3052:3092  OwnershipTransferred(oldOwner, newOwner) */\n  0xffffffffffffffffffffffffffffffffffffffff\n  and\n  0x8be0079c531659141344cd1fd0a4f28419497f9722a3daafe3b4186f6b6457e0\n  mload(0x40)\n  mload(0x40)\n  dup1\n  swap2\n  sub\n  swap1\n  log3\n    /* \"@openzeppelin/contracts/access/Ownable.sol\":2975:3099  {... */\n  pop\n    /* \"@openzeppelin/contracts/access/Ownable.sol\":2912:3099  function _transferOwnership(address newOwner) internal virtual {... */\n  pop\n  jump\t// out\n    /* \"#utility.yul\":88:205   */\ntag_23:\n    /* \"#utility.yul\":197:198   */\n  0x00\n    /* \"#utility.yul\":194:195   */\n  dup1\n    /* \"#utility.yul\":187:199   */\n  revert\n    /* \"#utility.yul\":334:460   */\ntag_25:\n    /* \"#utility.yul\":371:378   */\n  0x00\n    /* \"#utility.yul\":411:453   */\n  0xffffffffffffffffffffffffffffffffffffffff\n    /* \"#utility.yul\":404:409   */\n  dup3\n    /* \"#utility.yul\":400:454   */\n  and\n    /* \"#utility.yul\":389:454   */\n  swap1\n  pop\n    /* \"#utility.yul\":334:460   */\n  swap2\n  swap1\n  pop\n  jump\t// out\n    /* \"#utility.yul\":466:562   */\ntag_26:\n    /* \"#utility.yul\":503:510   */\n  0x00\n    /* \"#utility.yul\":532:556   */\n  tag_43\n    /* \"#utility.yul\":550:555   */\n  dup3\n    /* \"#utility.yul\":532:556   */\n  tag_25\n  jump\t// in\ntag_43:\n    /* \"#utility.yul\":521:556   */\n  swap1\n  pop\n    /* \"#utility.yul\":466:562   */\n  swap2\n  swap1\n  pop\n  jump\t// out\n    /* \"#utility.yul\":568:690   */\ntag_27:\n    /* \"#utility.yul\":641:665   */\n  tag_45\n    /* \"#utility.yul\":659:664   */\n  dup2\n    /* \"#utility.yul\":641:665   */\n  tag_26\n  jump\t// in\ntag_45:\n    /* \"#utility.yul\":634:639   */\n  dup2\n    /* \"#utility.yul\":631:666   */\n  eq\n    /* \"#utility.yul\":621:684   */\n  tag_46\n  jumpi\n    /* \"#utility.yul\":680:681   */\n  0x00\n    /* \"#utility.yul\":677:678   */\n  dup1\n    /* \"#utility.yul\":670:682   */\n  revert\n    /* \"#utility.yul\":621:684   */\ntag_46:\n    /* \"#utility.yul\":568:690   */\n  pop\n  jump\t// out\n    /* \"#utility.yul\":696:839   */\ntag_28:\n    /* \"#utility.yul\":753:758   */\n  0x00\n    /* \"#utility.yul\":784:790   */\n  dup2\n    /* \"#utility.yul\":778:791   */\n  mload\n    /* \"#utility.yul\":769:791   */\n  swap1\n  pop\n    /* \"#utility.yul\":800:833   */\n  tag_48\n    /* \"#utility.yul\":827:832   */\n  dup2\n    /* \"#utility.yul\":800:833   */\n  tag_27\n  jump\t// in\ntag_48:\n    /* \"#utility.yul\":696:839   */\n  swap3\n  swap2\n  pop\n  pop\n  jump\t// out\n    /* \"#utility.yul\":845:922   */\ntag_29:\n    /* \"#utility.yul\":882:889   */\n  0x00\n    /* \"#utility.yul\":911:916   */\n  dup2\n    /* \"#utility.yul\":900:916   */\n  swap1\n  pop\n    /* \"#utility.yul\":845:922   */\n  swap2\n  swap1\n  pop\n  jump\t// out\n    /* \"#utility.yul\":928:1050   */\ntag_30:\n    /* \"#utility.yul\":1001:1025   */\n  tag_51\n    /* \"#utility.yul\":1019:1024   */\n  dup2\n    /* \"#utility.yul\":1001:1025   */\n  tag_29\n  jump\t// in\ntag_51:\n    /* \"#utility.yul\":994:999   */\n  dup2\n    /* \"#utility.yul\":991:1026   */\n  eq\n    /* \"#utility.yul\":981:1044   */\n  tag_52\n  jumpi\n    /* \"#utility.yul\":1040:1041   */\n  0x00\n    /* \"#utility.yul\":1037:1038   */\n  dup1\n    /* \"#utility.yul\":1030:1042   */\n  revert\n    /* \"#utility.yul\":981:1044   */\ntag_52:\n    /* \"#utility.yul\":928:1050   */\n  pop\n  jump\t// out\n    /* \"#utility.yul\":1056:1199   */\ntag_31:\n    /* \"#utility.yul\":1113:1118   */\n  0x00\n    /* \"#utility.yul\":1144:1150   */\n  dup2\n    /* \"#utility.yul\":1138:1151   */\n  mload\n    /* \"#utility.yul\":1129:1151   */\n  swap1\n  pop\n    /* \"#utility.yul\":1160:1193   */\n  tag_54\n    /* \"#utility.yul\":1187:1192   */\n  dup2\n    /* \"#utility.yul\":1160:1193   */\n  tag_30\n  jump\t// in\ntag_54:\n    /* \"#utility.yul\":1056:1199   */\n  swap3\n  swap2\n  pop\n  pop\n  jump\t// out\n    /* \"#utility.yul\":1205:1712   */\ntag_3:\n    /* \"#utility.yul\":1284:1290   */\n  0x00\n    /* \"#utility.yul\":1292:1298   */\n  dup1\n    /* \"#utility.yul\":1341:1343   */\n  0x40\n    /* \"#utility.yul\":1329:1338   */\n  dup4\n    /* \"#utility.yul\":1320:1327   */\n  dup6\n    /* \"#utility.yul\":1316:1339   */\n  sub\n    /* \"#utility.yul\":1312:1344   */\n  slt\n    /* \"#utility.yul\":1309:1428   */\n  iszero\n  tag_56\n  jumpi\n    /* \"#utility.yul\":1347:1426   */\n  tag_57\n  tag_23\n  jump\t// in\ntag_57:\n    /* \"#utility.yul\":1309:1428   */\ntag_56:\n    /* \"#utility.yul\":1467:1468   */\n  0x00\n    /* \"#utility.yul\":1492:1556   */\n  tag_58\n    /* \"#utility.yul\":1548:1555   */\n  dup6\n    /* \"#utility.yul\":1539:1545   */\n  dup3\n    /* \"#utility.yul\":1528:1537   */\n  dup7\n    /* \"#utility.yul\":1524:1546   */\n  add\n    /* \"#utility.yul\":1492:1556   */\n  tag_28\n  jump\t// in\ntag_58:\n    /* \"#utility.yul\":1482:1556   */\n  swap3\n  pop\n    /* \"#utility.yul\":1438:1566   */\n  pop\n    /* \"#utility.yul\":1605:1607   */\n  0x20\n    /* \"#utility.yul\":1631:1695   */\n  tag_59\n    /* \"#utility.yul\":1687:1694   */\n  dup6\n    /* \"#utility.yul\":1678:1684   */\n  dup3\n    /* \"#utility.yul\":1667:1676   */\n  dup7\n    /* \"#utility.yul\":1663:1685   */\n  add\n    /* \"#utility.yul\":1631:1695   */\n  tag_31\n  jump\t// in\ntag_59:\n    /* \"#utility.yul\":1621:1695   */\n  swap2\n  pop\n    /* \"#utility.yul\":1576:1705   */\n  pop\n    /* \"#utility.yul\":1205:1712   */\n  swap3\n  pop\n  swap3\n  swap1\n  pop\n  jump\t// out\n    /* \"#utility.yul\":1718:1836   */\ntag_32:\n    /* \"#utility.yul\":1805:1829   */\n  tag_61\n    /* \"#utility.yul\":1823:1828   */\n  dup2\n    /* \"#utility.yul\":1805:1829   */\n  tag_26\n  jump\t// in\ntag_61:\n    /* \"#utility.yul\":1800:1803   */\n  dup3\n    /* \"#utility.yul\":1793:1830   */\n  mstore\n    /* \"#utility.yul\":1718:1836   */\n  pop\n  pop\n  jump\t// out\n    /* \"#utility.yul\":1842:2064   */\ntag_11:\n    /* \"#utility.yul\":1935:1939   */\n  0x00\n    /* \"#utility.yul\":1973:1975   */\n  0x20\n    /* \"#utility.yul\":1962:1971   */\n  dup3\n    /* \"#utility.yul\":1958:1976   */\n  add\n    /* \"#utility.yul\":1950:1976   */\n  swap1\n  pop\n    /* \"#utility.yul\":1986:2057   */\n  tag_63\n    /* \"#utility.yul\":2054:2055   */\n  0x00\n    /* \"#utility.yul\":2043:2052   */\n  dup4\n    /* \"#utility.yul\":2039:2056   */\n  add\n    /* \"#utility.yul\":2030:2036   */\n  dup5\n    /* \"#utility.yul\":1986:2057   */\n  tag_32\n  jump\t// in\ntag_63:\n    /* \"#utility.yul\":1842:2064   */\n  swap3\n  swap2\n  pop\n  pop\n  jump\t// out\n    /* \"#utility.yul\":2070:2239   */\ntag_33:\n    /* \"#utility.yul\":2154:2165   */\n  0x00\n    /* \"#utility.yul\":2188:2194   */\n  dup3\n    /* \"#utility.yul\":2183:2186   */\n  dup3\n    /* \"#utility.yul\":2176:2195   */\n  mstore\n    /* \"#utility.yul\":2228:2232   */\n  0x20\n    /* \"#utility.yul\":2223:2226   */\n  dup3\n    /* \"#utility.yul\":2219:2233   */\n  add\n    /* \"#utility.yul\":2204:2233   */\n  swap1\n  pop\n    /* \"#utility.yul\":2070:2239   */\n  swap3\n  swap2\n  pop\n  pop\n  jump\t// out\n    /* \"#utility.yul\":2245:2465   */\ntag_34:\n    /* \"#utility.yul\":2385:2419   */\n  0x566f6c756d546f6b656e20616464726573732063616e6e6f74206265207a6572\n    /* \"#utility.yul\":2381:2382   */\n  0x00\n    /* \"#utility.yul\":2373:2379   */\n  dup3\n    /* \"#utility.yul\":2369:2383   */\n  add\n    /* \"#utility.yul\":2362:2420   */\n  mstore\n    /* \"#utility.yul\":2454:2457   */\n  0x6f00000000000000000000000000000000000000000000000000000000000000\n    /* \"#utility.yul\":2449:2451   */\n  0x20\n    /* \"#utility.yul\":2441:2447   */\n  dup3\n    /* \"#utility.yul\":2437:2452   */\n  add\n    /* \"#utility.yul\":2430:2458   */\n  mstore\n    /* \"#utility.yul\":2245:2465   */\n  pop\n  jump\t// out\n    /* \"#utility.yul\":2471:2837   */\ntag_35:\n    /* \"#utility.yul\":2613:2616   */\n  0x00\n    /* \"#utility.yul\":2634:2701   */\n  tag_67\n    /* \"#utility.yul\":2698:2700   */\n  0x21\n    /* \"#utility.yul\":2693:2696   */\n  dup4\n    /* \"#utility.yul\":2634:2701   */\n  tag_33\n  jump\t// in\ntag_67:\n    /* \"#utility.yul\":2627:2701   */\n  swap2\n  pop\n    /* \"#utility.yul\":2710:2803   */\n  tag_68\n    /* \"#utility.yul\":2799:2802   */\n  dup3\n    /* \"#utility.yul\":2710:2803   */\n  tag_34\n  jump\t// in\ntag_68:\n    /* \"#utility.yul\":2828:2830   */\n  0x40\n    /* \"#utility.yul\":2823:2826   */\n  dup3\n    /* \"#utility.yul\":2819:2831   */\n  add\n    /* \"#utility.yul\":2812:2831   */\n  swap1\n  pop\n    /* \"#utility.yul\":2471:2837   */\n  swap2\n  swap1\n  pop\n  jump\t// out\n    /* \"#utility.yul\":2843:3262   */\ntag_17:\n    /* \"#utility.yul\":3009:3013   */\n  0x00\n    /* \"#utility.yul\":3047:3049   */\n  0x20\n    /* \"#utility.yul\":3036:3045   */\n  dup3\n    /* \"#utility.yul\":3032:3050   */\n  add\n    /* \"#utility.yul\":3024:3050   */\n  swap1\n  pop\n    /* \"#utility.yul\":3096:3105   */\n  dup2\n    /* \"#utility.yul\":3090:3094   */\n  dup2\n    /* \"#utility.yul\":3086:3106   */\n  sub\n    /* \"#utility.yul\":3082:3083   */\n  0x00\n    /* \"#utility.yul\":3071:3080   */\n  dup4\n    /* \"#utility.yul\":3067:3084   */\n  add\n    /* \"#utility.yul\":3060:3107   */\n  mstore\n    /* \"#utility.yul\":3124:3255   */\n  tag_70\n    /* \"#utility.yul\":3250:3254   */\n  dup2\n    /* \"#utility.yul\":3124:3255   */\n  tag_35\n  jump\t// in\ntag_70:\n    /* \"#utility.yul\":3116:3255   */\n  swap1\n  pop\n    /* \"#utility.yul\":2843:3262   */\n  swap2\n  swap1\n  pop\n  jump\t// out\n    /* \"#utility.yul\":3268:3448   */\ntag_36:\n    /* \"#utility.yul\":3316:3393   */\n  0x4e487b7100000000000000000000000000000000000000000000000000000000\n    /* \"#utility.yul\":3313:3314   */\n  0x00\n    /* \"#utility.yul\":3306:3394   */\n  mstore\n    /* \"#utility.yul\":3413:3417   */\n  0x11\n    /* \"#utility.yul\":3410:3411   */\n  0x04\n    /* \"#utility.yul\":3403:3418   */\n  mstore\n    /* \"#utility.yul\":3437:3441   */\n  0x24\n    /* \"#utility.yul\":3434:3435   */\n  0x00\n    /* \"#utility.yul\":3427:3442   */\n  revert\n    /* \"#utility.yul\":3454:3645   */\ntag_19:\n    /* \"#utility.yul\":3494:3497   */\n  0x00\n    /* \"#utility.yul\":3513:3533   */\n  tag_73\n    /* \"#utility.yul\":3531:3532   */\n  dup3\n    /* \"#utility.yul\":3513:3533   */\n  tag_29\n  jump\t// in\ntag_73:\n    /* \"#utility.yul\":3508:3533   */\n  swap2\n  pop\n    /* \"#utility.yul\":3547:3567   */\n  tag_74\n    /* \"#utility.yul\":3565:3566   */\n  dup4\n    /* \"#utility.yul\":3547:3567   */\n  tag_29\n  jump\t// in\ntag_74:\n    /* \"#utility.yul\":3542:3567   */\n  swap3\n  pop\n    /* \"#utility.yul\":3590:3591   */\n  dup3\n    /* \"#utility.yul\":3587:3588   */\n  dup3\n    /* \"#utility.yul\":3583:3592   */\n  add\n    /* \"#utility.yul\":3576:3592   */\n  swap1\n  pop\n    /* \"#utility.yul\":3611:3614   */\n  dup1\n    /* \"#utility.yul\":3608:3609   */\n  dup3\n    /* \"#utility.yul\":3605:3615   */\n  gt\n    /* \"#utility.yul\":3602:3638   */\n  iszero\n  tag_75\n  jumpi\n    /* \"#utility.yul\":3618:3636   */\n  tag_76\n  tag_36\n  jump\t// in\ntag_76:\n    /* \"#utility.yul\":3602:3638   */\ntag_75:\n    /* \"#utility.yul\":3454:3645   */\n  swap3\n  swap2\n  pop\n  pop\n  jump\t// out\n    /* \"contracts/VolumICO.sol\":238:2096  contract VolumICO is ReentrancyGuard, Ownable {... */\ntag_20:\n  dataSize(sub_0)\n  dup1\n  dataOffset(sub_0)\n  0x00\n  codecopy\n  0x00\n  return\nstop\n\nsub_0: assembly {\n        /* \"contracts/VolumICO.sol\":238:2096  contract VolumICO is ReentrancyGuard, Ownable {... */\n      mstore(0x40, 0x80)\n      jumpi(tag_1, lt(calldatasize, 0x04))\n      shr(0xe0, calldataload(0x00))\n      dup1\n      0x9af08dd5\n      gt\n      tag_14\n      jumpi\n      dup1\n      0x9af08dd5\n      eq\n      tag_8\n      jumpi\n      dup1\n      0xa715bf33\n      eq\n      tag_9\n      jumpi\n      dup1\n      0xb0a65b3e\n      eq\n      tag_10\n      jumpi\n      dup1\n      0xd0febe4c\n      eq\n      tag_11\n      jumpi\n      dup1\n      0xe657807b\n      eq\n      tag_12\n      jumpi\n      dup1\n      0xf2fde38b\n      eq\n      tag_13\n      jumpi\n      jump(tag_1)\n    tag_14:\n      dup1\n      0x24600fc3\n      eq\n      tag_2\n      jumpi\n      dup1\n      0x4513ef7a\n      eq\n      tag_3\n      jumpi\n      dup1\n      0x518ab2a8\n      eq\n      tag_4\n      jumpi\n      dup1\n      0x715018a6\n      eq\n      tag_5\n      jumpi\n      dup1\n      0x7e1055b6\n      eq\n      tag_6\n      jumpi\n      dup1\n      0x8da5cb5b\n      eq\n      tag_7\n      jumpi\n    tag_1:\n      0x00\n      dup1\n      revert\n        /* \"contracts/VolumICO.sol\":1790:1901  function withdrawFunds() external onlyOwner {... */\n    tag_2:\n      callvalue\n      dup1\n      iszero\n      tag_15\n      jumpi\n      0x00\n      dup1\n      revert\n    tag_15:\n      pop\n      tag_16\n      tag_17\n      jump\t// in\n    tag_16:\n      stop\n        /* \"contracts/VolumICO.sol\":541:573  uint256 public burnRateOnBuy = 1 */\n    tag_3:\n      callvalue\n      dup1\n      iszero\n      tag_18\n      jumpi\n      0x00\n      dup1\n      revert\n    tag_18:\n      pop\n      tag_19\n      tag_20\n      jump\t// in\n    tag_19:\n      mload(0x40)\n      tag_21\n      swap2\n      swap1\n      tag_22\n      jump\t// in\n    tag_21:\n      mload(0x40)\n      dup1\n      swap2\n      sub\n      swap1\n      return\n        /* \"contracts/VolumICO.sol\":477:502  uint256 public tokensSold */\n    tag_4:\n      callvalue\n      dup1\n      iszero\n      tag_23\n      jumpi\n      0x00\n      dup1\n      revert\n    tag_23:\n      pop\n      tag_24\n      tag_25\n      jump\t// in\n    tag_24:\n      mload(0x40)\n      tag_26\n      swap2\n      swap1\n      tag_22\n      jump\t// in\n    tag_26:\n      mload(0x40)\n      dup1\n      swap2\n      sub\n      swap1\n      return\n        /* \"@openzeppelin/contracts/access/Ownable.sol\":2293:2394  function renounceOwnership() public virtual onlyOwner {... */\n    tag_5:\n      callvalue\n      dup1\n      iszero\n      tag_27\n      jumpi\n      0x00\n      dup1\n      revert\n    tag_27:\n      pop\n      tag_28\n      tag_29\n      jump\t// in\n    tag_28:\n      stop\n        /* \"contracts/VolumICO.sol\":509:534  uint256 public icoEndTime */\n    tag_6:\n      callvalue\n      dup1\n      iszero\n      tag_30\n      jumpi\n      0x00\n      dup1\n      revert\n    tag_30:\n      pop\n      tag_31\n      tag_32\n      jump\t// in\n    tag_31:\n      mload(0x40)\n      tag_33\n      swap2\n      swap1\n      tag_22\n      jump\t// in\n    tag_33:\n      mload(0x40)\n      dup1\n      swap2\n      sub\n      swap1\n      return\n        /* \"@openzeppelin/contracts/access/Ownable.sol\":1638:1723  function owner() public view virtual returns (address) {... */\n    tag_7:\n      callvalue\n      dup1\n      iszero\n      tag_34\n      jumpi\n      0x00\n      dup1\n      revert\n    tag_34:\n      pop\n      tag_35\n      tag_36\n      jump\t// in\n    tag_35:\n      mload(0x40)\n      tag_37\n      swap2\n      swap1\n      tag_38\n      jump\t// in\n    tag_37:\n      mload(0x40)\n      dup1\n      swap2\n      sub\n      swap1\n      return\n        /* \"contracts/VolumICO.sol\":291:315  IERC20 public volumToken */\n    tag_8:\n      callvalue\n      dup1\n      iszero\n      tag_39\n      jumpi\n      0x00\n      dup1\n      revert\n    tag_39:\n      pop\n      tag_40\n      tag_41\n      jump\t// in\n    tag_40:\n      mload(0x40)\n      tag_42\n      swap2\n      swap1\n      tag_43\n      jump\t// in\n    tag_42:\n      mload(0x40)\n      dup1\n      swap2\n      sub\n      swap1\n      return\n        /* \"contracts/VolumICO.sol\":394:437  uint256 public constant ICO_PRICE = 1 ether */\n    tag_9:\n      callvalue\n      dup1\n      iszero\n      tag_44\n      jumpi\n      0x00\n      dup1\n      revert\n    tag_44:\n      pop\n      tag_45\n      tag_46\n      jump\t// in\n    tag_45:\n      mload(0x40)\n      tag_47\n      swap2\n      swap1\n      tag_22\n      jump\t// in\n    tag_47:\n      mload(0x40)\n      dup1\n      swap2\n      sub\n      swap1\n      return\n        /* \"contracts/VolumICO.sol\":322:387  uint256 public constant ICO_ALLOCATION = 300_000_000 * (10 ** 18) */\n    tag_10:\n      callvalue\n      dup1\n      iszero\n      tag_48\n      jumpi\n      0x00\n      dup1\n      revert\n    tag_48:\n      pop\n      tag_49\n      tag_50\n      jump\t// in\n    tag_49:\n      mload(0x40)\n      tag_51\n      swap2\n      swap1\n      tag_22\n      jump\t// in\n    tag_51:\n      mload(0x40)\n      dup1\n      swap2\n      sub\n      swap1\n      return\n        /* \"contracts/VolumICO.sol\":985:1782  function buyTokens() external payable nonReentrant {... */\n    tag_11:\n      tag_52\n      tag_53\n      jump\t// in\n    tag_52:\n      stop\n        /* \"contracts/VolumICO.sol\":1909:2093  function endIco() external onlyOwner {... */\n    tag_12:\n      callvalue\n      dup1\n      iszero\n      tag_54\n      jumpi\n      0x00\n      dup1\n      revert\n    tag_54:\n      pop\n      tag_55\n      tag_56\n      jump\t// in\n    tag_55:\n      stop\n        /* \"@openzeppelin/contracts/access/Ownable.sol\":2543:2758  function transferOwnership(address newOwner) public virtual onlyOwner {... */\n    tag_13:\n      callvalue\n      dup1\n      iszero\n      tag_57\n      jumpi\n      0x00\n      dup1\n      revert\n    tag_57:\n      pop\n      tag_58\n      0x04\n      dup1\n      calldatasize\n      sub\n      dup2\n      add\n      swap1\n      tag_59\n      swap2\n      swap1\n      tag_60\n      jump\t// in\n    tag_59:\n      tag_61\n      jump\t// in\n    tag_58:\n      stop\n        /* \"contracts/VolumICO.sol\":1790:1901  function withdrawFunds() external onlyOwner {... */\n    tag_17:\n        /* \"@openzeppelin/contracts/access/Ownable.sol\":1531:1544  _checkOwner() */\n      tag_63\n        /* \"@openzeppelin/contracts/access/Ownable.sol\":1531:1542  _checkOwner */\n      tag_64\n        /* \"@openzeppelin/contracts/access/Ownable.sol\":1531:1544  _checkOwner() */\n      jump\t// in\n    tag_63:\n        /* \"contracts/VolumICO.sol\":1853:1860  owner() */\n      tag_66\n        /* \"contracts/VolumICO.sol\":1853:1858  owner */\n      tag_36\n        /* \"contracts/VolumICO.sol\":1853:1860  owner() */\n      jump\t// in\n    tag_66:\n        /* \"contracts/VolumICO.sol\":1845:1870  payable(owner()).transfer */\n      0xffffffffffffffffffffffffffffffffffffffff\n      and\n        /* \"contracts/VolumICO.sol\":1845:1893  payable(owner()).transfer(address(this).balance) */\n      0x08fc\n        /* \"contracts/VolumICO.sol\":1871:1892  address(this).balance */\n      selfbalance\n        /* \"contracts/VolumICO.sol\":1845:1893  payable(owner()).transfer(address(this).balance) */\n      swap1\n      dup2\n      iszero\n      mul\n      swap1\n      mload(0x40)\n      0x00\n      mload(0x40)\n      dup1\n      dup4\n      sub\n      dup2\n      dup6\n      dup9\n      dup9\n      call\n      swap4\n      pop\n      pop\n      pop\n      pop\n      iszero\n      dup1\n      iszero\n      tag_68\n      jumpi\n      returndatasize\n      0x00\n      dup1\n      returndatacopy\n      revert(0x00, returndatasize)\n    tag_68:\n      pop\n        /* \"contracts/VolumICO.sol\":1790:1901  function withdrawFunds() external onlyOwner {... */\n      jump\t// out\n        /* \"contracts/VolumICO.sol\":541:573  uint256 public burnRateOnBuy = 1 */\n    tag_20:\n      sload(0x05)\n      dup2\n      jump\t// out\n        /* \"contracts/VolumICO.sol\":477:502  uint256 public tokensSold */\n    tag_25:\n      sload(0x03)\n      dup2\n      jump\t// out\n        /* \"@openzeppelin/contracts/access/Ownable.sol\":2293:2394  function renounceOwnership() public virtual onlyOwner {... */\n    tag_29:\n        /* \"@openzeppelin/contracts/access/Ownable.sol\":1531:1544  _checkOwner() */\n      tag_70\n        /* \"@openzeppelin/contracts/access/Ownable.sol\":1531:1542  _checkOwner */\n      tag_64\n        /* \"@openzeppelin/contracts/access/Ownable.sol\":1531:1544  _checkOwner() */\n      jump\t// in\n    tag_70:\n        /* \"@openzeppelin/contracts/access/Ownable.sol\":2357:2387  _transferOwnership(address(0)) */\n      tag_72\n        /* \"@openzeppelin/contracts/access/Ownable.sol\":2384:2385  0 */\n      0x00\n        /* \"@openzeppelin/contracts/access/Ownable.sol\":2357:2375  _transferOwnership */\n      tag_73\n        /* \"@openzeppelin/contracts/access/Ownable.sol\":2357:2387  _transferOwnership(address(0)) */\n      jump\t// in\n    tag_72:\n        /* \"@openzeppelin/contracts/access/Ownable.sol\":2293:2394  function renounceOwnership() public virtual onlyOwner {... */\n      jump\t// out\n        /* \"contracts/VolumICO.sol\":509:534  uint256 public icoEndTime */\n    tag_32:\n      sload(0x04)\n      dup2\n      jump\t// out\n        /* \"@openzeppelin/contracts/access/Ownable.sol\":1638:1723  function owner() public view virtual returns (address) {... */\n    tag_36:\n        /* \"@openzeppelin/contracts/access/Ownable.sol\":1684:1691  address */\n      0x00\n        /* \"@openzeppelin/contracts/access/Ownable.sol\":1710:1716  _owner */\n      0x01\n      0x00\n      swap1\n      sload\n      swap1\n      0x0100\n      exp\n      swap1\n      div\n      0xffffffffffffffffffffffffffffffffffffffff\n      and\n        /* \"@openzeppelin/contracts/access/Ownable.sol\":1703:1716  return _owner */\n      swap1\n      pop\n        /* \"@openzeppelin/contracts/access/Ownable.sol\":1638:1723  function owner() public view virtual returns (address) {... */\n      swap1\n      jump\t// out\n        /* \"contracts/VolumICO.sol\":291:315  IERC20 public volumToken */\n    tag_41:\n      0x02\n      0x00\n      swap1\n      sload\n      swap1\n      0x0100\n      exp\n      swap1\n      div\n      0xffffffffffffffffffffffffffffffffffffffff\n      and\n      dup2\n      jump\t// out\n        /* \"contracts/VolumICO.sol\":394:437  uint256 public constant ICO_PRICE = 1 ether */\n    tag_46:\n        /* \"contracts/VolumICO.sol\":430:437  1 ether */\n      0x0de0b6b3a7640000\n        /* \"contracts/VolumICO.sol\":394:437  uint256 public constant ICO_PRICE = 1 ether */\n      dup2\n      jump\t// out\n        /* \"contracts/VolumICO.sol\":322:387  uint256 public constant ICO_ALLOCATION = 300_000_000 * (10 ** 18) */\n    tag_50:\n        /* \"contracts/VolumICO.sol\":363:387  300_000_000 * (10 ** 18) */\n      0xf8277896582678ac000000\n        /* \"contracts/VolumICO.sol\":322:387  uint256 public constant ICO_ALLOCATION = 300_000_000 * (10 ** 18) */\n      dup2\n      jump\t// out\n        /* \"contracts/VolumICO.sol\":985:1782  function buyTokens() external payable nonReentrant {... */\n    tag_53:\n        /* \"@openzeppelin/contracts/security/ReentrancyGuard.sol\":2261:2282  _nonReentrantBefore() */\n      tag_76\n        /* \"@openzeppelin/contracts/security/ReentrancyGuard.sol\":2261:2280  _nonReentrantBefore */\n      tag_77\n        /* \"@openzeppelin/contracts/security/ReentrancyGuard.sol\":2261:2282  _nonReentrantBefore() */\n      jump\t// in\n    tag_76:\n        /* \"contracts/VolumICO.sol\":1073:1083  icoEndTime */\n      sload(0x04)\n        /* \"contracts/VolumICO.sol\":1055:1070  block.timestamp */\n      timestamp\n        /* \"contracts/VolumICO.sol\":1055:1083  block.timestamp < icoEndTime */\n      lt\n        /* \"contracts/VolumICO.sol\":1047:1101  require(block.timestamp < icoEndTime, \"ICO has ended\") */\n      tag_79\n      jumpi\n      mload(0x40)\n      0x08c379a000000000000000000000000000000000000000000000000000000000\n      dup2\n      mstore\n      0x04\n      add\n      tag_80\n      swap1\n      tag_81\n      jump\t// in\n    tag_80:\n      mload(0x40)\n      dup1\n      swap2\n      sub\n      swap1\n      revert\n    tag_79:\n        /* \"contracts/VolumICO.sol\":1132:1133  0 */\n      0x00\n        /* \"contracts/VolumICO.sol\":1120:1129  msg.value */\n      callvalue\n        /* \"contracts/VolumICO.sol\":1120:1133  msg.value > 0 */\n      gt\n        /* \"contracts/VolumICO.sol\":1112:1179  require(msg.value > 0, \"Amount to purchase must be greater than 0\") */\n      tag_82\n      jumpi\n      mload(0x40)\n      0x08c379a000000000000000000000000000000000000000000000000000000000\n      dup2\n      mstore\n      0x04\n      add\n      tag_83\n      swap1\n      tag_84\n      jump\t// in\n    tag_83:\n      mload(0x40)\n      dup1\n      swap2\n      sub\n      swap1\n      revert\n    tag_82:\n        /* \"contracts/VolumICO.sol\":1192:1216  uint256 amountToPurchase */\n      0x00\n        /* \"contracts/VolumICO.sol\":430:437  1 ether */\n      0x0de0b6b3a7640000\n        /* \"contracts/VolumICO.sol\":1219:1228  msg.value */\n      callvalue\n        /* \"contracts/VolumICO.sol\":1219:1240  msg.value / ICO_PRICE */\n      tag_85\n      swap2\n      swap1\n      tag_86\n      jump\t// in\n    tag_85:\n        /* \"contracts/VolumICO.sol\":1192:1240  uint256 amountToPurchase = msg.value / ICO_PRICE */\n      swap1\n      pop\n        /* \"contracts/VolumICO.sol\":1278:1279  0 */\n      0x00\n        /* \"contracts/VolumICO.sol\":1259:1275  amountToPurchase */\n      dup2\n        /* \"contracts/VolumICO.sol\":1259:1279  amountToPurchase > 0 */\n      gt\n        /* \"contracts/VolumICO.sol\":1251:1325  require(amountToPurchase > 0, \"Amount to purchase must be greater than 0\") */\n      tag_87\n      jumpi\n      mload(0x40)\n      0x08c379a000000000000000000000000000000000000000000000000000000000\n      dup2\n      mstore\n      0x04\n      add\n      tag_88\n      swap1\n      tag_84\n      jump\t// in\n    tag_88:\n      mload(0x40)\n      dup1\n      swap2\n      sub\n      swap1\n      revert\n    tag_87:\n        /* \"contracts/VolumICO.sol\":363:387  300_000_000 * (10 ** 18) */\n      0xf8277896582678ac000000\n        /* \"contracts/VolumICO.sol\":1357:1373  amountToPurchase */\n      dup2\n        /* \"contracts/VolumICO.sol\":1344:1354  tokensSold */\n      sload(0x03)\n        /* \"contracts/VolumICO.sol\":1344:1373  tokensSold + amountToPurchase */\n      tag_89\n      swap2\n      swap1\n      tag_90\n      jump\t// in\n    tag_89:\n        /* \"contracts/VolumICO.sol\":1344:1391  tokensSold + amountToPurchase <= ICO_ALLOCATION */\n      gt\n      iszero\n        /* \"contracts/VolumICO.sol\":1336:1419  require(tokensSold + amountToPurchase <= ICO_ALLOCATION, \"ICO allocation exceeded\") */\n      tag_91\n      jumpi\n      mload(0x40)\n      0x08c379a000000000000000000000000000000000000000000000000000000000\n      dup2\n      mstore\n      0x04\n      add\n      tag_92\n      swap1\n      tag_93\n      jump\t// in\n    tag_92:\n      mload(0x40)\n      dup1\n      swap2\n      sub\n      swap1\n      revert\n    tag_91:\n        /* \"contracts/VolumICO.sol\":1432:1450  uint256 burnAmount */\n      0x00\n        /* \"contracts/VolumICO.sol\":1490:1493  100 */\n      0x64\n        /* \"contracts/VolumICO.sol\":1473:1486  burnRateOnBuy */\n      sload(0x05)\n        /* \"contracts/VolumICO.sol\":1454:1470  amountToPurchase */\n      dup4\n        /* \"contracts/VolumICO.sol\":1454:1486  amountToPurchase * burnRateOnBuy */\n      tag_94\n      swap2\n      swap1\n      tag_95\n      jump\t// in\n    tag_94:\n        /* \"contracts/VolumICO.sol\":1453:1493  (amountToPurchase * burnRateOnBuy) / 100 */\n      tag_96\n      swap2\n      swap1\n      tag_86\n      jump\t// in\n    tag_96:\n        /* \"contracts/VolumICO.sol\":1432:1493  uint256 burnAmount = (amountToPurchase * burnRateOnBuy) / 100 */\n      swap1\n      pop\n        /* \"contracts/VolumICO.sol\":1526:1536  volumToken */\n      0x02\n      0x00\n      swap1\n      sload\n      swap1\n      0x0100\n      exp\n      swap1\n      div\n      0xffffffffffffffffffffffffffffffffffffffff\n      and\n        /* \"contracts/VolumICO.sol\":1526:1546  volumToken.balanceOf */\n      0xffffffffffffffffffffffffffffffffffffffff\n      and\n      0x70a08231\n        /* \"contracts/VolumICO.sol\":1555:1559  this */\n      address\n        /* \"contracts/VolumICO.sol\":1526:1561  volumToken.balanceOf(address(this)) */\n      mload(0x40)\n      dup3\n      0xffffffff\n      and\n      0xe0\n      shl\n      dup2\n      mstore\n      0x04\n      add\n      tag_97\n      swap2\n      swap1\n      tag_38\n      jump\t// in\n    tag_97:\n      0x20\n      mload(0x40)\n      dup1\n      dup4\n      sub\n      dup2\n      dup7\n      gas\n      staticcall\n      iszero\n      dup1\n      iszero\n      tag_99\n      jumpi\n      returndatasize\n      0x00\n      dup1\n      returndatacopy\n      revert(0x00, returndatasize)\n    tag_99:\n      pop\n      pop\n      pop\n      pop\n      mload(0x40)\n      returndatasize\n      not(0x1f)\n      0x1f\n      dup3\n      add\n      and\n      dup3\n      add\n      dup1\n      0x40\n      mstore\n      pop\n      dup2\n      add\n      swap1\n      tag_100\n      swap2\n      swap1\n      tag_101\n      jump\t// in\n    tag_100:\n        /* \"contracts/VolumICO.sol\":1512:1522  burnAmount */\n      dup2\n        /* \"contracts/VolumICO.sol\":1512:1561  burnAmount <= volumToken.balanceOf(address(this)) */\n      gt\n      iszero\n        /* \"contracts/VolumICO.sol\":1504:1608  require(burnAmount <= volumToken.balanceOf(address(this)), \"Insufficient token balance in ICO contract\") */\n      tag_102\n      jumpi\n      mload(0x40)\n      0x08c379a000000000000000000000000000000000000000000000000000000000\n      dup2\n      mstore\n      0x04\n      add\n      tag_103\n      swap1\n      tag_104\n      jump\t// in\n    tag_103:\n      mload(0x40)\n      dup1\n      swap2\n      sub\n      swap1\n      revert\n    tag_102:\n        /* \"contracts/VolumICO.sol\":1635:1651  amountToPurchase */\n      dup2\n        /* \"contracts/VolumICO.sol\":1621:1631  tokensSold */\n      0x03\n      0x00\n        /* \"contracts/VolumICO.sol\":1621:1651  tokensSold += amountToPurchase */\n      dup3\n      dup3\n      sload\n      tag_105\n      swap2\n      swap1\n      tag_90\n      jump\t// in\n    tag_105:\n      swap3\n      pop\n      pop\n      dup2\n      swap1\n      sstore\n      pop\n        /* \"contracts/VolumICO.sol\":1662:1672  volumToken */\n      0x02\n      0x00\n      swap1\n      sload\n      swap1\n      0x0100\n      exp\n      swap1\n      div\n      0xffffffffffffffffffffffffffffffffffffffff\n      and\n        /* \"contracts/VolumICO.sol\":1662:1681  volumToken.transfer */\n      0xffffffffffffffffffffffffffffffffffffffff\n      and\n      0xa9059cbb\n        /* \"contracts/VolumICO.sol\":1682:1692  msg.sender */\n      caller\n        /* \"contracts/VolumICO.sol\":1694:1710  amountToPurchase */\n      dup5\n        /* \"contracts/VolumICO.sol\":1662:1711  volumToken.transfer(msg.sender, amountToPurchase) */\n      mload(0x40)\n      dup4\n      0xffffffff\n      and\n      0xe0\n      shl\n      dup2\n      mstore\n      0x04\n      add\n      tag_106\n      swap3\n      swap2\n      swap1\n      tag_107\n      jump\t// in\n    tag_106:\n      0x20\n      mload(0x40)\n      dup1\n      dup4\n      sub\n      dup2\n      0x00\n      dup8\n      gas\n      call\n      iszero\n      dup1\n      iszero\n      tag_109\n      jumpi\n      returndatasize\n      0x00\n      dup1\n      returndatacopy\n      revert(0x00, returndatasize)\n    tag_109:\n      pop\n      pop\n      pop\n      pop\n      mload(0x40)\n      returndatasize\n      not(0x1f)\n      0x1f\n      dup3\n      add\n      and\n      dup3\n      add\n      dup1\n      0x40\n      mstore\n      pop\n      dup2\n      add\n      swap1\n      tag_110\n      swap2\n      swap1\n      tag_111\n      jump\t// in\n    tag_110:\n      pop\n        /* \"contracts/VolumICO.sol\":1745:1755  msg.sender */\n      caller\n        /* \"contracts/VolumICO.sol\":1729:1774  TokensPurchased(msg.sender, amountToPurchase) */\n      0xffffffffffffffffffffffffffffffffffffffff\n      and\n      0x8f28852646c20cc973d3a8218f7eefed58c25c909f78f0265af4818c3d4dc271\n        /* \"contracts/VolumICO.sol\":1757:1773  amountToPurchase */\n      dup4\n        /* \"contracts/VolumICO.sol\":1729:1774  TokensPurchased(msg.sender, amountToPurchase) */\n      mload(0x40)\n      tag_112\n      swap2\n      swap1\n      tag_22\n      jump\t// in\n    tag_112:\n      mload(0x40)\n      dup1\n      swap2\n      sub\n      swap1\n      log2\n        /* \"contracts/VolumICO.sol\":1036:1782  {... */\n      pop\n      pop\n        /* \"@openzeppelin/contracts/security/ReentrancyGuard.sol\":2303:2323  _nonReentrantAfter() */\n      tag_113\n        /* \"@openzeppelin/contracts/security/ReentrancyGuard.sol\":2303:2321  _nonReentrantAfter */\n      tag_114\n        /* \"@openzeppelin/contracts/security/ReentrancyGuard.sol\":2303:2323  _nonReentrantAfter() */\n      jump\t// in\n    tag_113:\n        /* \"contracts/VolumICO.sol\":985:1782  function buyTokens() external payable nonReentrant {... */\n      jump\t// out\n        /* \"contracts/VolumICO.sol\":1909:2093  function endIco() external onlyOwner {... */\n    tag_56:\n        /* \"@openzeppelin/contracts/access/Ownable.sol\":1531:1544  _checkOwner() */\n      tag_116\n        /* \"@openzeppelin/contracts/access/Ownable.sol\":1531:1542  _checkOwner */\n      tag_64\n        /* \"@openzeppelin/contracts/access/Ownable.sol\":1531:1544  _checkOwner() */\n      jump\t// in\n    tag_116:\n        /* \"contracts/VolumICO.sol\":1983:1993  icoEndTime */\n      sload(0x04)\n        /* \"contracts/VolumICO.sol\":1965:1980  block.timestamp */\n      timestamp\n        /* \"contracts/VolumICO.sol\":1965:1993  block.timestamp < icoEndTime */\n      lt\n        /* \"contracts/VolumICO.sol\":1957:2019  require(block.timestamp < icoEndTime, \"ICO has already ended\") */\n      tag_118\n      jumpi\n      mload(0x40)\n      0x08c379a000000000000000000000000000000000000000000000000000000000\n      dup2\n      mstore\n      0x04\n      add\n      tag_119\n      swap1\n      tag_120\n      jump\t// in\n    tag_119:\n      mload(0x40)\n      dup1\n      swap2\n      sub\n      swap1\n      revert\n    tag_118:\n        /* \"contracts/VolumICO.sol\":2043:2058  block.timestamp */\n      timestamp\n        /* \"contracts/VolumICO.sol\":2030:2040  icoEndTime */\n      0x04\n        /* \"contracts/VolumICO.sol\":2030:2058  icoEndTime = block.timestamp */\n      dup2\n      swap1\n      sstore\n      pop\n        /* \"contracts/VolumICO.sol\":1909:2093  function endIco() external onlyOwner {... */\n      jump\t// out\n        /* \"@openzeppelin/contracts/access/Ownable.sol\":2543:2758  function transferOwnership(address newOwner) public virtual onlyOwner {... */\n    tag_61:\n        /* \"@openzeppelin/contracts/access/Ownable.sol\":1531:1544  _checkOwner() */\n      tag_122\n        /* \"@openzeppelin/contracts/access/Ownable.sol\":1531:1542  _checkOwner */\n      tag_64\n        /* \"@openzeppelin/contracts/access/Ownable.sol\":1531:1544  _checkOwner() */\n      jump\t// in\n    tag_122:\n        /* \"@openzeppelin/contracts/access/Ownable.sol\":2647:2648  0 */\n      0x00\n        /* \"@openzeppelin/contracts/access/Ownable.sol\":2627:2649  newOwner == address(0) */\n      0xffffffffffffffffffffffffffffffffffffffff\n      and\n        /* \"@openzeppelin/contracts/access/Ownable.sol\":2627:2635  newOwner */\n      dup2\n        /* \"@openzeppelin/contracts/access/Ownable.sol\":2627:2649  newOwner == address(0) */\n      0xffffffffffffffffffffffffffffffffffffffff\n      and\n      sub\n        /* \"@openzeppelin/contracts/access/Ownable.sol\":2623:2714  if (newOwner == address(0)) {... */\n      tag_124\n      jumpi\n        /* \"@openzeppelin/contracts/access/Ownable.sol\":2700:2701  0 */\n      0x00\n        /* \"@openzeppelin/contracts/access/Ownable.sol\":2672:2703  OwnableInvalidOwner(address(0)) */\n      mload(0x40)\n      0x1e4fbdf700000000000000000000000000000000000000000000000000000000\n      dup2\n      mstore\n      0x04\n      add\n      tag_125\n      swap2\n      swap1\n      tag_38\n      jump\t// in\n    tag_125:\n      mload(0x40)\n      dup1\n      swap2\n      sub\n      swap1\n      revert\n        /* \"@openzeppelin/contracts/access/Ownable.sol\":2623:2714  if (newOwner == address(0)) {... */\n    tag_124:\n        /* \"@openzeppelin/contracts/access/Ownable.sol\":2723:2751  _transferOwnership(newOwner) */\n      tag_126\n        /* \"@openzeppelin/contracts/access/Ownable.sol\":2742:2750  newOwner */\n      dup2\n        /* \"@openzeppelin/contracts/access/Ownable.sol\":2723:2741  _transferOwnership */\n      tag_73\n        /* \"@openzeppelin/contracts/access/Ownable.sol\":2723:2751  _transferOwnership(newOwner) */\n      jump\t// in\n    tag_126:\n        /* \"@openzeppelin/contracts/access/Ownable.sol\":2543:2758  function transferOwnership(address newOwner) public virtual onlyOwner {... */\n      pop\n      jump\t// out\n        /* \"@openzeppelin/contracts/access/Ownable.sol\":1796:1958  function _checkOwner() internal view virtual {... */\n    tag_64:\n        /* \"@openzeppelin/contracts/access/Ownable.sol\":1866:1878  _msgSender() */\n      tag_128\n        /* \"@openzeppelin/contracts/access/Ownable.sol\":1866:1876  _msgSender */\n      tag_129\n        /* \"@openzeppelin/contracts/access/Ownable.sol\":1866:1878  _msgSender() */\n      jump\t// in\n    tag_128:\n        /* \"@openzeppelin/contracts/access/Ownable.sol\":1855:1878  owner() != _msgSender() */\n      0xffffffffffffffffffffffffffffffffffffffff\n      and\n        /* \"@openzeppelin/contracts/access/Ownable.sol\":1855:1862  owner() */\n      tag_130\n        /* \"@openzeppelin/contracts/access/Ownable.sol\":1855:1860  owner */\n      tag_36\n        /* \"@openzeppelin/contracts/access/Ownable.sol\":1855:1862  owner() */\n      jump\t// in\n    tag_130:\n        /* \"@openzeppelin/contracts/access/Ownable.sol\":1855:1878  owner() != _msgSender() */\n      0xffffffffffffffffffffffffffffffffffffffff\n      and\n      eq\n        /* \"@openzeppelin/contracts/access/Ownable.sol\":1851:1952  if (owner() != _msgSender()) {... */\n      tag_131\n      jumpi\n        /* \"@openzeppelin/contracts/access/Ownable.sol\":1928:1940  _msgSender() */\n      tag_132\n        /* \"@openzeppelin/contracts/access/Ownable.sol\":1928:1938  _msgSender */\n      tag_129\n        /* \"@openzeppelin/contracts/access/Ownable.sol\":1928:1940  _msgSender() */\n      jump\t// in\n    tag_132:\n        /* \"@openzeppelin/contracts/access/Ownable.sol\":1901:1941  OwnableUnauthorizedAccount(_msgSender()) */\n      mload(0x40)\n      0x118cdaa700000000000000000000000000000000000000000000000000000000\n      dup2\n      mstore\n      0x04\n      add\n      tag_133\n      swap2\n      swap1\n      tag_38\n      jump\t// in\n    tag_133:\n      mload(0x40)\n      dup1\n      swap2\n      sub\n      swap1\n      revert\n        /* \"@openzeppelin/contracts/access/Ownable.sol\":1851:1952  if (owner() != _msgSender()) {... */\n    tag_131:\n        /* \"@openzeppelin/contracts/access/Ownable.sol\":1796:1958  function _checkOwner() internal view virtual {... */\n      jump\t// out\n        /* \"@openzeppelin/contracts/access/Ownable.sol\":2912:3099  function _transferOwnership(address newOwner) internal virtual {... */\n    tag_73:\n        /* \"@openzeppelin/contracts/access/Ownable.sol\":2985:3001  address oldOwner */\n      0x00\n        /* \"@openzeppelin/contracts/access/Ownable.sol\":3004:3010  _owner */\n      0x01\n      0x00\n      swap1\n      sload\n      swap1\n      0x0100\n      exp\n      swap1\n      div\n      0xffffffffffffffffffffffffffffffffffffffff\n      and\n        /* \"@openzeppelin/contracts/access/Ownable.sol\":2985:3010  address oldOwner = _owner */\n      swap1\n      pop\n        /* \"@openzeppelin/contracts/access/Ownable.sol\":3029:3037  newOwner */\n      dup2\n        /* \"@openzeppelin/contracts/access/Ownable.sol\":3020:3026  _owner */\n      0x01\n      0x00\n        /* \"@openzeppelin/contracts/access/Ownable.sol\":3020:3037  _owner = newOwner */\n      0x0100\n      exp\n      dup2\n      sload\n      dup2\n      0xffffffffffffffffffffffffffffffffffffffff\n      mul\n      not\n      and\n      swap1\n      dup4\n      0xffffffffffffffffffffffffffffffffffffffff\n      and\n      mul\n      or\n      swap1\n      sstore\n      pop\n        /* \"@openzeppelin/contracts/access/Ownable.sol\":3083:3091  newOwner */\n      dup2\n        /* \"@openzeppelin/contracts/access/Ownable.sol\":3052:3092  OwnershipTransferred(oldOwner, newOwner) */\n      0xffffffffffffffffffffffffffffffffffffffff\n      and\n        /* \"@openzeppelin/contracts/access/Ownable.sol\":3073:3081  oldOwner */\n      dup2\n        /* \"@openzeppelin/contracts/access/Ownable.sol\":3052:3092  OwnershipTransferred(oldOwner, newOwner) */\n      0xffffffffffffffffffffffffffffffffffffffff\n      and\n      0x8be0079c531659141344cd1fd0a4f28419497f9722a3daafe3b4186f6b6457e0\n      mload(0x40)\n      mload(0x40)\n      dup1\n      swap2\n      sub\n      swap1\n      log3\n        /* \"@openzeppelin/contracts/access/Ownable.sol\":2975:3099  {... */\n      pop\n        /* \"@openzeppelin/contracts/access/Ownable.sol\":2912:3099  function _transferOwnership(address newOwner) internal virtual {... */\n      pop\n      jump\t// out\n        /* \"@openzeppelin/contracts/security/ReentrancyGuard.sol\":2336:2623  function _nonReentrantBefore() private {... */\n    tag_77:\n        /* \"@openzeppelin/contracts/security/ReentrancyGuard.sol\":1759:1760  2 */\n      0x02\n        /* \"@openzeppelin/contracts/security/ReentrancyGuard.sol\":2468:2475  _status */\n      sload(0x00)\n        /* \"@openzeppelin/contracts/security/ReentrancyGuard.sol\":2468:2487  _status != _ENTERED */\n      sub\n        /* \"@openzeppelin/contracts/security/ReentrancyGuard.sol\":2460:2523  require(_status != _ENTERED, \"ReentrancyGuard: reentrant call\") */\n      tag_136\n      jumpi\n      mload(0x40)\n      0x08c379a000000000000000000000000000000000000000000000000000000000\n      dup2\n      mstore\n      0x04\n      add\n      tag_137\n      swap1\n      tag_138\n      jump\t// in\n    tag_137:\n      mload(0x40)\n      dup1\n      swap2\n      sub\n      swap1\n      revert\n    tag_136:\n        /* \"@openzeppelin/contracts/security/ReentrancyGuard.sol\":1759:1760  2 */\n      0x02\n        /* \"@openzeppelin/contracts/security/ReentrancyGuard.sol\":2598:2605  _status */\n      0x00\n        /* \"@openzeppelin/contracts/security/ReentrancyGuard.sol\":2598:2616  _status = _ENTERED */\n      dup2\n      swap1\n      sstore\n      pop\n        /* \"@openzeppelin/contracts/security/ReentrancyGuard.sol\":2336:2623  function _nonReentrantBefore() private {... */\n      jump\t// out\n        /* \"@openzeppelin/contracts/security/ReentrancyGuard.sol\":2629:2838  function _nonReentrantAfter() private {... */\n    tag_114:\n        /* \"@openzeppelin/contracts/security/ReentrancyGuard.sol\":1716:1717  1 */\n      0x01\n        /* \"@openzeppelin/contracts/security/ReentrancyGuard.sol\":2809:2816  _status */\n      0x00\n        /* \"@openzeppelin/contracts/security/ReentrancyGuard.sol\":2809:2831  _status = _NOT_ENTERED */\n      dup2\n      swap1\n      sstore\n      pop\n        /* \"@openzeppelin/contracts/security/ReentrancyGuard.sol\":2629:2838  function _nonReentrantAfter() private {... */\n      jump\t// out\n        /* \"@openzeppelin/contracts/utils/Context.sol\":656:752  function _msgSender() internal view virtual returns (address) {... */\n    tag_129:\n        /* \"@openzeppelin/contracts/utils/Context.sol\":709:716  address */\n      0x00\n        /* \"@openzeppelin/contracts/utils/Context.sol\":735:745  msg.sender */\n      caller\n        /* \"@openzeppelin/contracts/utils/Context.sol\":728:745  return msg.sender */\n      swap1\n      pop\n        /* \"@openzeppelin/contracts/utils/Context.sol\":656:752  function _msgSender() internal view virtual returns (address) {... */\n      swap1\n      jump\t// out\n        /* \"#utility.yul\":7:84   */\n    tag_141:\n        /* \"#utility.yul\":44:51   */\n      0x00\n        /* \"#utility.yul\":73:78   */\n      dup2\n        /* \"#utility.yul\":62:78   */\n      swap1\n      pop\n        /* \"#utility.yul\":7:84   */\n      swap2\n      swap1\n      pop\n      jump\t// out\n        /* \"#utility.yul\":90:208   */\n    tag_142:\n        /* \"#utility.yul\":177:201   */\n      tag_179\n        /* \"#utility.yul\":195:200   */\n      dup2\n        /* \"#utility.yul\":177:201   */\n      tag_141\n      jump\t// in\n    tag_179:\n        /* \"#utility.yul\":172:175   */\n      dup3\n        /* \"#utility.yul\":165:202   */\n      mstore\n        /* \"#utility.yul\":90:208   */\n      pop\n      pop\n      jump\t// out\n        /* \"#utility.yul\":214:436   */\n    tag_22:\n        /* \"#utility.yul\":307:311   */\n      0x00\n        /* \"#utility.yul\":345:347   */\n      0x20\n        /* \"#utility.yul\":334:343   */\n      dup3\n        /* \"#utility.yul\":330:348   */\n      add\n        /* \"#utility.yul\":322:348   */\n      swap1\n      pop\n        /* \"#utility.yul\":358:429   */\n      tag_181\n        /* \"#utility.yul\":426:427   */\n      0x00\n        /* \"#utility.yul\":415:424   */\n      dup4\n        /* \"#utility.yul\":411:428   */\n      add\n        /* \"#utility.yul\":402:408   */\n      dup5\n        /* \"#utility.yul\":358:429   */\n      tag_142\n      jump\t// in\n    tag_181:\n        /* \"#utility.yul\":214:436   */\n      swap3\n      swap2\n      pop\n      pop\n      jump\t// out\n        /* \"#utility.yul\":442:568   */\n    tag_143:\n        /* \"#utility.yul\":479:486   */\n      0x00\n        /* \"#utility.yul\":519:561   */\n      0xffffffffffffffffffffffffffffffffffffffff\n        /* \"#utility.yul\":512:517   */\n      dup3\n        /* \"#utility.yul\":508:562   */\n      and\n        /* \"#utility.yul\":497:562   */\n      swap1\n      pop\n        /* \"#utility.yul\":442:568   */\n      swap2\n      swap1\n      pop\n      jump\t// out\n        /* \"#utility.yul\":574:670   */\n    tag_144:\n        /* \"#utility.yul\":611:618   */\n      0x00\n        /* \"#utility.yul\":640:664   */\n      tag_184\n        /* \"#utility.yul\":658:663   */\n      dup3\n        /* \"#utility.yul\":640:664   */\n      tag_143\n      jump\t// in\n    tag_184:\n        /* \"#utility.yul\":629:664   */\n      swap1\n      pop\n        /* \"#utility.yul\":574:670   */\n      swap2\n      swap1\n      pop\n      jump\t// out\n        /* \"#utility.yul\":676:794   */\n    tag_145:\n        /* \"#utility.yul\":763:787   */\n      tag_186\n        /* \"#utility.yul\":781:786   */\n      dup2\n        /* \"#utility.yul\":763:787   */\n      tag_144\n      jump\t// in\n    tag_186:\n        /* \"#utility.yul\":758:761   */\n      dup3\n        /* \"#utility.yul\":751:788   */\n      mstore\n        /* \"#utility.yul\":676:794   */\n      pop\n      pop\n      jump\t// out\n        /* \"#utility.yul\":800:1022   */\n    tag_38:\n        /* \"#utility.yul\":893:897   */\n      0x00\n        /* \"#utility.yul\":931:933   */\n      0x20\n        /* \"#utility.yul\":920:929   */\n      dup3\n        /* \"#utility.yul\":916:934   */\n      add\n        /* \"#utility.yul\":908:934   */\n      swap1\n      pop\n        /* \"#utility.yul\":944:1015   */\n      tag_188\n        /* \"#utility.yul\":1012:1013   */\n      0x00\n        /* \"#utility.yul\":1001:1010   */\n      dup4\n        /* \"#utility.yul\":997:1014   */\n      add\n        /* \"#utility.yul\":988:994   */\n      dup5\n        /* \"#utility.yul\":944:1015   */\n      tag_145\n      jump\t// in\n    tag_188:\n        /* \"#utility.yul\":800:1022   */\n      swap3\n      swap2\n      pop\n      pop\n      jump\t// out\n        /* \"#utility.yul\":1028:1088   */\n    tag_146:\n        /* \"#utility.yul\":1056:1059   */\n      0x00\n        /* \"#utility.yul\":1077:1082   */\n      dup2\n        /* \"#utility.yul\":1070:1082   */\n      swap1\n      pop\n        /* \"#utility.yul\":1028:1088   */\n      swap2\n      swap1\n      pop\n      jump\t// out\n        /* \"#utility.yul\":1094:1236   */\n    tag_147:\n        /* \"#utility.yul\":1144:1153   */\n      0x00\n        /* \"#utility.yul\":1177:1230   */\n      tag_191\n        /* \"#utility.yul\":1195:1229   */\n      tag_192\n        /* \"#utility.yul\":1204:1228   */\n      tag_193\n        /* \"#utility.yul\":1222:1227   */\n      dup5\n        /* \"#utility.yul\":1204:1228   */\n      tag_143\n      jump\t// in\n    tag_193:\n        /* \"#utility.yul\":1195:1229   */\n      tag_146\n      jump\t// in\n    tag_192:\n        /* \"#utility.yul\":1177:1230   */\n      tag_143\n      jump\t// in\n    tag_191:\n        /* \"#utility.yul\":1164:1230   */\n      swap1\n      pop\n        /* \"#utility.yul\":1094:1236   */\n      swap2\n      swap1\n      pop\n      jump\t// out\n        /* \"#utility.yul\":1242:1368   */\n    tag_148:\n        /* \"#utility.yul\":1292:1301   */\n      0x00\n        /* \"#utility.yul\":1325:1362   */\n      tag_195\n        /* \"#utility.yul\":1356:1361   */\n      dup3\n        /* \"#utility.yul\":1325:1362   */\n      tag_147\n      jump\t// in\n    tag_195:\n        /* \"#utility.yul\":1312:1362   */\n      swap1\n      pop\n        /* \"#utility.yul\":1242:1368   */\n      swap2\n      swap1\n      pop\n      jump\t// out\n        /* \"#utility.yul\":1374:1514   */\n    tag_149:\n        /* \"#utility.yul\":1438:1447   */\n      0x00\n        /* \"#utility.yul\":1471:1508   */\n      tag_197\n        /* \"#utility.yul\":1502:1507   */\n      dup3\n        /* \"#utility.yul\":1471:1508   */\n      tag_148\n      jump\t// in\n    tag_197:\n        /* \"#utility.yul\":1458:1508   */\n      swap1\n      pop\n        /* \"#utility.yul\":1374:1514   */\n      swap2\n      swap1\n      pop\n      jump\t// out\n        /* \"#utility.yul\":1520:1679   */\n    tag_150:\n        /* \"#utility.yul\":1621:1672   */\n      tag_199\n        /* \"#utility.yul\":1666:1671   */\n      dup2\n        /* \"#utility.yul\":1621:1672   */\n      tag_149\n      jump\t// in\n    tag_199:\n        /* \"#utility.yul\":1616:1619   */\n      dup3\n        /* \"#utility.yul\":1609:1673   */\n      mstore\n        /* \"#utility.yul\":1520:1679   */\n      pop\n      pop\n      jump\t// out\n        /* \"#utility.yul\":1685:1935   */\n    tag_43:\n        /* \"#utility.yul\":1792:1796   */\n      0x00\n        /* \"#utility.yul\":1830:1832   */\n      0x20\n        /* \"#utility.yul\":1819:1828   */\n      dup3\n        /* \"#utility.yul\":1815:1833   */\n      add\n        /* \"#utility.yul\":1807:1833   */\n      swap1\n      pop\n        /* \"#utility.yul\":1843:1928   */\n      tag_201\n        /* \"#utility.yul\":1925:1926   */\n      0x00\n        /* \"#utility.yul\":1914:1923   */\n      dup4\n        /* \"#utility.yul\":1910:1927   */\n      add\n        /* \"#utility.yul\":1901:1907   */\n      dup5\n        /* \"#utility.yul\":1843:1928   */\n      tag_150\n      jump\t// in\n    tag_201:\n        /* \"#utility.yul\":1685:1935   */\n      swap3\n      swap2\n      pop\n      pop\n      jump\t// out\n        /* \"#utility.yul\":2022:2139   */\n    tag_152:\n        /* \"#utility.yul\":2131:2132   */\n      0x00\n        /* \"#utility.yul\":2128:2129   */\n      dup1\n        /* \"#utility.yul\":2121:2133   */\n      revert\n        /* \"#utility.yul\":2268:2390   */\n    tag_154:\n        /* \"#utility.yul\":2341:2365   */\n      tag_206\n        /* \"#utility.yul\":2359:2364   */\n      dup2\n        /* \"#utility.yul\":2341:2365   */\n      tag_144\n      jump\t// in\n    tag_206:\n        /* \"#utility.yul\":2334:2339   */\n      dup2\n        /* \"#utility.yul\":2331:2366   */\n      eq\n        /* \"#utility.yul\":2321:2384   */\n      tag_207\n      jumpi\n        /* \"#utility.yul\":2380:2381   */\n      0x00\n        /* \"#utility.yul\":2377:2378   */\n      dup1\n        /* \"#utility.yul\":2370:2382   */\n      revert\n        /* \"#utility.yul\":2321:2384   */\n    tag_207:\n        /* \"#utility.yul\":2268:2390   */\n      pop\n      jump\t// out\n        /* \"#utility.yul\":2396:2535   */\n    tag_155:\n        /* \"#utility.yul\":2442:2447   */\n      0x00\n        /* \"#utility.yul\":2480:2486   */\n      dup2\n        /* \"#utility.yul\":2467:2487   */\n      calldataload\n        /* \"#utility.yul\":2458:2487   */\n      swap1\n      pop\n        /* \"#utility.yul\":2496:2529   */\n      tag_209\n        /* \"#utility.yul\":2523:2528   */\n      dup2\n        /* \"#utility.yul\":2496:2529   */\n      tag_154\n      jump\t// in\n    tag_209:\n        /* \"#utility.yul\":2396:2535   */\n      swap3\n      swap2\n      pop\n      pop\n      jump\t// out\n        /* \"#utility.yul\":2541:2870   */\n    tag_60:\n        /* \"#utility.yul\":2600:2606   */\n      0x00\n        /* \"#utility.yul\":2649:2651   */\n      0x20\n        /* \"#utility.yul\":2637:2646   */\n      dup3\n        /* \"#utility.yul\":2628:2635   */\n      dup5\n        /* \"#utility.yul\":2624:2647   */\n      sub\n        /* \"#utility.yul\":2620:2652   */\n      slt\n        /* \"#utility.yul\":2617:2736   */\n      iszero\n      tag_211\n      jumpi\n        /* \"#utility.yul\":2655:2734   */\n      tag_212\n      tag_152\n      jump\t// in\n    tag_212:\n        /* \"#utility.yul\":2617:2736   */\n    tag_211:\n        /* \"#utility.yul\":2775:2776   */\n      0x00\n        /* \"#utility.yul\":2800:2853   */\n      tag_213\n        /* \"#utility.yul\":2845:2852   */\n      dup5\n        /* \"#utility.yul\":2836:2842   */\n      dup3\n        /* \"#utility.yul\":2825:2834   */\n      dup6\n        /* \"#utility.yul\":2821:2843   */\n      add\n        /* \"#utility.yul\":2800:2853   */\n      tag_155\n      jump\t// in\n    tag_213:\n        /* \"#utility.yul\":2790:2853   */\n      swap2\n      pop\n        /* \"#utility.yul\":2746:2863   */\n      pop\n        /* \"#utility.yul\":2541:2870   */\n      swap3\n      swap2\n      pop\n      pop\n      jump\t// out\n        /* \"#utility.yul\":2876:3045   */\n    tag_156:\n        /* \"#utility.yul\":2960:2971   */\n      0x00\n        /* \"#utility.yul\":2994:3000   */\n      dup3\n        /* \"#utility.yul\":2989:2992   */\n      dup3\n        /* \"#utility.yul\":2982:3001   */\n      mstore\n        /* \"#utility.yul\":3034:3038   */\n      0x20\n        /* \"#utility.yul\":3029:3032   */\n      dup3\n        /* \"#utility.yul\":3025:3039   */\n      add\n        /* \"#utility.yul\":3010:3039   */\n      swap1\n      pop\n        /* \"#utility.yul\":2876:3045   */\n      swap3\n      swap2\n      pop\n      pop\n      jump\t// out\n        /* \"#utility.yul\":3051:3214   */\n    tag_157:\n        /* \"#utility.yul\":3191:3206   */\n      0x49434f2068617320656e64656400000000000000000000000000000000000000\n        /* \"#utility.yul\":3187:3188   */\n      0x00\n        /* \"#utility.yul\":3179:3185   */\n      dup3\n        /* \"#utility.yul\":3175:3189   */\n      add\n        /* \"#utility.yul\":3168:3207   */\n      mstore\n        /* \"#utility.yul\":3051:3214   */\n      pop\n      jump\t// out\n        /* \"#utility.yul\":3220:3586   */\n    tag_158:\n        /* \"#utility.yul\":3362:3365   */\n      0x00\n        /* \"#utility.yul\":3383:3450   */\n      tag_217\n        /* \"#utility.yul\":3447:3449   */\n      0x0d\n        /* \"#utility.yul\":3442:3445   */\n      dup4\n        /* \"#utility.yul\":3383:3450   */\n      tag_156\n      jump\t// in\n    tag_217:\n        /* \"#utility.yul\":3376:3450   */\n      swap2\n      pop\n        /* \"#utility.yul\":3459:3552   */\n      tag_218\n        /* \"#utility.yul\":3548:3551   */\n      dup3\n        /* \"#utility.yul\":3459:3552   */\n      tag_157\n      jump\t// in\n    tag_218:\n        /* \"#utility.yul\":3577:3579   */\n      0x20\n        /* \"#utility.yul\":3572:3575   */\n      dup3\n        /* \"#utility.yul\":3568:3580   */\n      add\n        /* \"#utility.yul\":3561:3580   */\n      swap1\n      pop\n        /* \"#utility.yul\":3220:3586   */\n      swap2\n      swap1\n      pop\n      jump\t// out\n        /* \"#utility.yul\":3592:4011   */\n    tag_81:\n        /* \"#utility.yul\":3758:3762   */\n      0x00\n        /* \"#utility.yul\":3796:3798   */\n      0x20\n        /* \"#utility.yul\":3785:3794   */\n      dup3\n        /* \"#utility.yul\":3781:3799   */\n      add\n        /* \"#utility.yul\":3773:3799   */\n      swap1\n      pop\n        /* \"#utility.yul\":3845:3854   */\n      dup2\n        /* \"#utility.yul\":3839:3843   */\n      dup2\n        /* \"#utility.yul\":3835:3855   */\n      sub\n        /* \"#utility.yul\":3831:3832   */\n      0x00\n        /* \"#utility.yul\":3820:3829   */\n      dup4\n        /* \"#utility.yul\":3816:3833   */\n      add\n        /* \"#utility.yul\":3809:3856   */\n      mstore\n        /* \"#utility.yul\":3873:4004   */\n      tag_220\n        /* \"#utility.yul\":3999:4003   */\n      dup2\n        /* \"#utility.yul\":3873:4004   */\n      tag_158\n      jump\t// in\n    tag_220:\n        /* \"#utility.yul\":3865:4004   */\n      swap1\n      pop\n        /* \"#utility.yul\":3592:4011   */\n      swap2\n      swap1\n      pop\n      jump\t// out\n        /* \"#utility.yul\":4017:4245   */\n    tag_159:\n        /* \"#utility.yul\":4157:4191   */\n      0x416d6f756e7420746f207075726368617365206d757374206265206772656174\n        /* \"#utility.yul\":4153:4154   */\n      0x00\n        /* \"#utility.yul\":4145:4151   */\n      dup3\n        /* \"#utility.yul\":4141:4155   */\n      add\n        /* \"#utility.yul\":4134:4192   */\n      mstore\n        /* \"#utility.yul\":4226:4237   */\n      0x6572207468616e20300000000000000000000000000000000000000000000000\n        /* \"#utility.yul\":4221:4223   */\n      0x20\n        /* \"#utility.yul\":4213:4219   */\n      dup3\n        /* \"#utility.yul\":4209:4224   */\n      add\n        /* \"#utility.yul\":4202:4238   */\n      mstore\n        /* \"#utility.yul\":4017:4245   */\n      pop\n      jump\t// out\n        /* \"#utility.yul\":4251:4617   */\n    tag_160:\n        /* \"#utility.yul\":4393:4396   */\n      0x00\n        /* \"#utility.yul\":4414:4481   */\n      tag_223\n        /* \"#utility.yul\":4478:4480   */\n      0x29\n        /* \"#utility.yul\":4473:4476   */\n      dup4\n        /* \"#utility.yul\":4414:4481   */\n      tag_156\n      jump\t// in\n    tag_223:\n        /* \"#utility.yul\":4407:4481   */\n      swap2\n      pop\n        /* \"#utility.yul\":4490:4583   */\n      tag_224\n        /* \"#utility.yul\":4579:4582   */\n      dup3\n        /* \"#utility.yul\":4490:4583   */\n      tag_159\n      jump\t// in\n    tag_224:\n        /* \"#utility.yul\":4608:4610   */\n      0x40\n        /* \"#utility.yul\":4603:4606   */\n      dup3\n        /* \"#utility.yul\":4599:4611   */\n      add\n        /* \"#utility.yul\":4592:4611   */\n      swap1\n      pop\n        /* \"#utility.yul\":4251:4617   */\n      swap2\n      swap1\n      pop\n      jump\t// out\n        /* \"#utility.yul\":4623:5042   */\n    tag_84:\n        /* \"#utility.yul\":4789:4793   */\n      0x00\n        /* \"#utility.yul\":4827:4829   */\n      0x20\n        /* \"#utility.yul\":4816:4825   */\n      dup3\n        /* \"#utility.yul\":4812:4830   */\n      add\n        /* \"#utility.yul\":4804:4830   */\n      swap1\n      pop\n        /* \"#utility.yul\":4876:4885   */\n      dup2\n        /* \"#utility.yul\":4870:4874   */\n      dup2\n        /* \"#utility.yul\":4866:4886   */\n      sub\n        /* \"#utility.yul\":4862:4863   */\n      0x00\n        /* \"#utility.yul\":4851:4860   */\n      dup4\n        /* \"#utility.yul\":4847:4864   */\n      add\n        /* \"#utility.yul\":4840:4887   */\n      mstore\n        /* \"#utility.yul\":4904:5035   */\n      tag_226\n        /* \"#utility.yul\":5030:5034   */\n      dup2\n        /* \"#utility.yul\":4904:5035   */\n      tag_160\n      jump\t// in\n    tag_226:\n        /* \"#utility.yul\":4896:5035   */\n      swap1\n      pop\n        /* \"#utility.yul\":4623:5042   */\n      swap2\n      swap1\n      pop\n      jump\t// out\n        /* \"#utility.yul\":5048:5228   */\n    tag_161:\n        /* \"#utility.yul\":5096:5173   */\n      0x4e487b7100000000000000000000000000000000000000000000000000000000\n        /* \"#utility.yul\":5093:5094   */\n      0x00\n        /* \"#utility.yul\":5086:5174   */\n      mstore\n        /* \"#utility.yul\":5193:5197   */\n      0x12\n        /* \"#utility.yul\":5190:5191   */\n      0x04\n        /* \"#utility.yul\":5183:5198   */\n      mstore\n        /* \"#utility.yul\":5217:5221   */\n      0x24\n        /* \"#utility.yul\":5214:5215   */\n      0x00\n        /* \"#utility.yul\":5207:5222   */\n      revert\n        /* \"#utility.yul\":5234:5414   */\n    tag_162:\n        /* \"#utility.yul\":5282:5359   */\n      0x4e487b7100000000000000000000000000000000000000000000000000000000\n        /* \"#utility.yul\":5279:5280   */\n      0x00\n        /* \"#utility.yul\":5272:5360   */\n      mstore\n        /* \"#utility.yul\":5379:5383   */\n      0x11\n        /* \"#utility.yul\":5376:5377   */\n      0x04\n        /* \"#utility.yul\":5369:5384   */\n      mstore\n        /* \"#utility.yul\":5403:5407   */\n      0x24\n        /* \"#utility.yul\":5400:5401   */\n      0x00\n        /* \"#utility.yul\":5393:5408   */\n      revert\n        /* \"#utility.yul\":5420:5605   */\n    tag_86:\n        /* \"#utility.yul\":5460:5461   */\n      0x00\n        /* \"#utility.yul\":5477:5497   */\n      tag_230\n        /* \"#utility.yul\":5495:5496   */\n      dup3\n        /* \"#utility.yul\":5477:5497   */\n      tag_141\n      jump\t// in\n    tag_230:\n        /* \"#utility.yul\":5472:5497   */\n      swap2\n      pop\n        /* \"#utility.yul\":5511:5531   */\n      tag_231\n        /* \"#utility.yul\":5529:5530   */\n      dup4\n        /* \"#utility.yul\":5511:5531   */\n      tag_141\n      jump\t// in\n    tag_231:\n        /* \"#utility.yul\":5506:5531   */\n      swap3\n      pop\n        /* \"#utility.yul\":5550:5551   */\n      dup3\n        /* \"#utility.yul\":5540:5575   */\n      tag_232\n      jumpi\n        /* \"#utility.yul\":5555:5573   */\n      tag_233\n      tag_161\n      jump\t// in\n    tag_233:\n        /* \"#utility.yul\":5540:5575   */\n    tag_232:\n        /* \"#utility.yul\":5597:5598   */\n      dup3\n        /* \"#utility.yul\":5594:5595   */\n      dup3\n        /* \"#utility.yul\":5590:5599   */\n      div\n        /* \"#utility.yul\":5585:5599   */\n      swap1\n      pop\n        /* \"#utility.yul\":5420:5605   */\n      swap3\n      swap2\n      pop\n      pop\n      jump\t// out\n        /* \"#utility.yul\":5611:5802   */\n    tag_90:\n        /* \"#utility.yul\":5651:5654   */\n      0x00\n        /* \"#utility.yul\":5670:5690   */\n      tag_235\n        /* \"#utility.yul\":5688:5689   */\n      dup3\n        /* \"#utility.yul\":5670:5690   */\n      tag_141\n      jump\t// in\n    tag_235:\n        /* \"#utility.yul\":5665:5690   */\n      swap2\n      pop\n        /* \"#utility.yul\":5704:5724   */\n      tag_236\n        /* \"#utility.yul\":5722:5723   */\n      dup4\n        /* \"#utility.yul\":5704:5724   */\n      tag_141\n      jump\t// in\n    tag_236:\n        /* \"#utility.yul\":5699:5724   */\n      swap3\n      pop\n        /* \"#utility.yul\":5747:5748   */\n      dup3\n        /* \"#utility.yul\":5744:5745   */\n      dup3\n        /* \"#utility.yul\":5740:5749   */\n      add\n        /* \"#utility.yul\":5733:5749   */\n      swap1\n      pop\n        /* \"#utility.yul\":5768:5771   */\n      dup1\n        /* \"#utility.yul\":5765:5766   */\n      dup3\n        /* \"#utility.yul\":5762:5772   */\n      gt\n        /* \"#utility.yul\":5759:5795   */\n      iszero\n      tag_237\n      jumpi\n        /* \"#utility.yul\":5775:5793   */\n      tag_238\n      tag_162\n      jump\t// in\n    tag_238:\n        /* \"#utility.yul\":5759:5795   */\n    tag_237:\n        /* \"#utility.yul\":5611:5802   */\n      swap3\n      swap2\n      pop\n      pop\n      jump\t// out\n        /* \"#utility.yul\":5808:5981   */\n    tag_163:\n        /* \"#utility.yul\":5948:5973   */\n      0x49434f20616c6c6f636174696f6e206578636565646564000000000000000000\n        /* \"#utility.yul\":5944:5945   */\n      0x00\n        /* \"#utility.yul\":5936:5942   */\n      dup3\n        /* \"#utility.yul\":5932:5946   */\n      add\n        /* \"#utility.yul\":5925:5974   */\n      mstore\n        /* \"#utility.yul\":5808:5981   */\n      pop\n      jump\t// out\n        /* \"#utility.yul\":5987:6353   */\n    tag_164:\n        /* \"#utility.yul\":6129:6132   */\n      0x00\n        /* \"#utility.yul\":6150:6217   */\n      tag_241\n        /* \"#utility.yul\":6214:6216   */\n      0x17\n        /* \"#utility.yul\":6209:6212   */\n      dup4\n        /* \"#utility.yul\":6150:6217   */\n      tag_156\n      jump\t// in\n    tag_241:\n        /* \"#utility.yul\":6143:6217   */\n      swap2\n      pop\n        /* \"#utility.yul\":6226:6319   */\n      tag_242\n        /* \"#utility.yul\":6315:6318   */\n      dup3\n        /* \"#utility.yul\":6226:6319   */\n      tag_163\n      jump\t// in\n    tag_242:\n        /* \"#utility.yul\":6344:6346   */\n      0x20\n        /* \"#utility.yul\":6339:6342   */\n      dup3\n        /* \"#utility.yul\":6335:6347   */\n      add\n        /* \"#utility.yul\":6328:6347   */\n      swap1\n      pop\n        /* \"#utility.yul\":5987:6353   */\n      swap2\n      swap1\n      pop\n      jump\t// out\n        /* \"#utility.yul\":6359:6778   */\n    tag_93:\n        /* \"#utility.yul\":6525:6529   */\n      0x00\n        /* \"#utility.yul\":6563:6565   */\n      0x20\n        /* \"#utility.yul\":6552:6561   */\n      dup3\n        /* \"#utility.yul\":6548:6566   */\n      add\n        /* \"#utility.yul\":6540:6566   */\n      swap1\n      pop\n        /* \"#utility.yul\":6612:6621   */\n      dup2\n        /* \"#utility.yul\":6606:6610   */\n      dup2\n        /* \"#utility.yul\":6602:6622   */\n      sub\n        /* \"#utility.yul\":6598:6599   */\n      0x00\n        /* \"#utility.yul\":6587:6596   */\n      dup4\n        /* \"#utility.yul\":6583:6600   */\n      add\n        /* \"#utility.yul\":6576:6623   */\n      mstore\n        /* \"#utility.yul\":6640:6771   */\n      tag_244\n        /* \"#utility.yul\":6766:6770   */\n      dup2\n        /* \"#utility.yul\":6640:6771   */\n      tag_164\n      jump\t// in\n    tag_244:\n        /* \"#utility.yul\":6632:6771   */\n      swap1\n      pop\n        /* \"#utility.yul\":6359:6778   */\n      swap2\n      swap1\n      pop\n      jump\t// out\n        /* \"#utility.yul\":6784:7194   */\n    tag_95:\n        /* \"#utility.yul\":6824:6831   */\n      0x00\n        /* \"#utility.yul\":6847:6867   */\n      tag_246\n        /* \"#utility.yul\":6865:6866   */\n      dup3\n        /* \"#utility.yul\":6847:6867   */\n      tag_141\n      jump\t// in\n    tag_246:\n        /* \"#utility.yul\":6842:6867   */\n      swap2\n      pop\n        /* \"#utility.yul\":6881:6901   */\n      tag_247\n        /* \"#utility.yul\":6899:6900   */\n      dup4\n        /* \"#utility.yul\":6881:6901   */\n      tag_141\n      jump\t// in\n    tag_247:\n        /* \"#utility.yul\":6876:6901   */\n      swap3\n      pop\n        /* \"#utility.yul\":6936:6937   */\n      dup3\n        /* \"#utility.yul\":6933:6934   */\n      dup3\n        /* \"#utility.yul\":6929:6938   */\n      mul\n        /* \"#utility.yul\":6958:6988   */\n      tag_248\n        /* \"#utility.yul\":6976:6987   */\n      dup2\n        /* \"#utility.yul\":6958:6988   */\n      tag_141\n      jump\t// in\n    tag_248:\n        /* \"#utility.yul\":6947:6988   */\n      swap2\n      pop\n        /* \"#utility.yul\":7137:7138   */\n      dup3\n        /* \"#utility.yul\":7128:7135   */\n      dup3\n        /* \"#utility.yul\":7124:7139   */\n      div\n        /* \"#utility.yul\":7121:7122   */\n      dup5\n        /* \"#utility.yul\":7118:7140   */\n      eq\n        /* \"#utility.yul\":7098:7099   */\n      dup4\n        /* \"#utility.yul\":7091:7100   */\n      iszero\n        /* \"#utility.yul\":7071:7154   */\n      or\n        /* \"#utility.yul\":7048:7187   */\n      tag_249\n      jumpi\n        /* \"#utility.yul\":7167:7185   */\n      tag_250\n      tag_162\n      jump\t// in\n    tag_250:\n        /* \"#utility.yul\":7048:7187   */\n    tag_249:\n        /* \"#utility.yul\":6832:7194   */\n      pop\n        /* \"#utility.yul\":6784:7194   */\n      swap3\n      swap2\n      pop\n      pop\n      jump\t// out\n        /* \"#utility.yul\":7200:7322   */\n    tag_165:\n        /* \"#utility.yul\":7273:7297   */\n      tag_252\n        /* \"#utility.yul\":7291:7296   */\n      dup2\n        /* \"#utility.yul\":7273:7297   */\n      tag_141\n      jump\t// in\n    tag_252:\n        /* \"#utility.yul\":7266:7271   */\n      dup2\n        /* \"#utility.yul\":7263:7298   */\n      eq\n        /* \"#utility.yul\":7253:7316   */\n      tag_253\n      jumpi\n        /* \"#utility.yul\":7312:7313   */\n      0x00\n        /* \"#utility.yul\":7309:7310   */\n      dup1\n        /* \"#utility.yul\":7302:7314   */\n      revert\n        /* \"#utility.yul\":7253:7316   */\n    tag_253:\n        /* \"#utility.yul\":7200:7322   */\n      pop\n      jump\t// out\n        /* \"#utility.yul\":7328:7471   */\n    tag_166:\n        /* \"#utility.yul\":7385:7390   */\n      0x00\n        /* \"#utility.yul\":7416:7422   */\n      dup2\n        /* \"#utility.yul\":7410:7423   */\n      mload\n        /* \"#utility.yul\":7401:7423   */\n      swap1\n      pop\n        /* \"#utility.yul\":7432:7465   */\n      tag_255\n        /* \"#utility.yul\":7459:7464   */\n      dup2\n        /* \"#utility.yul\":7432:7465   */\n      tag_165\n      jump\t// in\n    tag_255:\n        /* \"#utility.yul\":7328:7471   */\n      swap3\n      swap2\n      pop\n      pop\n      jump\t// out\n        /* \"#utility.yul\":7477:7828   */\n    tag_101:\n        /* \"#utility.yul\":7547:7553   */\n      0x00\n        /* \"#utility.yul\":7596:7598   */\n      0x20\n        /* \"#utility.yul\":7584:7593   */\n      dup3\n        /* \"#utility.yul\":7575:7582   */\n      dup5\n        /* \"#utility.yul\":7571:7594   */\n      sub\n        /* \"#utility.yul\":7567:7599   */\n      slt\n        /* \"#utility.yul\":7564:7683   */\n      iszero\n      tag_257\n      jumpi\n        /* \"#utility.yul\":7602:7681   */\n      tag_258\n      tag_152\n      jump\t// in\n    tag_258:\n        /* \"#utility.yul\":7564:7683   */\n    tag_257:\n        /* \"#utility.yul\":7722:7723   */\n      0x00\n        /* \"#utility.yul\":7747:7811   */\n      tag_259\n        /* \"#utility.yul\":7803:7810   */\n      dup5\n        /* \"#utility.yul\":7794:7800   */\n      dup3\n        /* \"#utility.yul\":7783:7792   */\n      dup6\n        /* \"#utility.yul\":7779:7801   */\n      add\n        /* \"#utility.yul\":7747:7811   */\n      tag_166\n      jump\t// in\n    tag_259:\n        /* \"#utility.yul\":7737:7811   */\n      swap2\n      pop\n        /* \"#utility.yul\":7693:7821   */\n      pop\n        /* \"#utility.yul\":7477:7828   */\n      swap3\n      swap2\n      pop\n      pop\n      jump\t// out\n        /* \"#utility.yul\":7834:8063   */\n    tag_167:\n        /* \"#utility.yul\":7974:8008   */\n      0x496e73756666696369656e7420746f6b656e2062616c616e636520696e204943\n        /* \"#utility.yul\":7970:7971   */\n      0x00\n        /* \"#utility.yul\":7962:7968   */\n      dup3\n        /* \"#utility.yul\":7958:7972   */\n      add\n        /* \"#utility.yul\":7951:8009   */\n      mstore\n        /* \"#utility.yul\":8043:8055   */\n      0x4f20636f6e747261637400000000000000000000000000000000000000000000\n        /* \"#utility.yul\":8038:8040   */\n      0x20\n        /* \"#utility.yul\":8030:8036   */\n      dup3\n        /* \"#utility.yul\":8026:8041   */\n      add\n        /* \"#utility.yul\":8019:8056   */\n      mstore\n        /* \"#utility.yul\":7834:8063   */\n      pop\n      jump\t// out\n        /* \"#utility.yul\":8069:8435   */\n    tag_168:\n        /* \"#utility.yul\":8211:8214   */\n      0x00\n        /* \"#utility.yul\":8232:8299   */\n      tag_262\n        /* \"#utility.yul\":8296:8298   */\n      0x2a\n        /* \"#utility.yul\":8291:8294   */\n      dup4\n        /* \"#utility.yul\":8232:8299   */\n      tag_156\n      jump\t// in\n    tag_262:\n        /* \"#utility.yul\":8225:8299   */\n      swap2\n      pop\n        /* \"#utility.yul\":8308:8401   */\n      tag_263\n        /* \"#utility.yul\":8397:8400   */\n      dup3\n        /* \"#utility.yul\":8308:8401   */\n      tag_167\n      jump\t// in\n    tag_263:\n        /* \"#utility.yul\":8426:8428   */\n      0x40\n        /* \"#utility.yul\":8421:8424   */\n      dup3\n        /* \"#utility.yul\":8417:8429   */\n      add\n        /* \"#utility.yul\":8410:8429   */\n      swap1\n      pop\n        /* \"#utility.yul\":8069:8435   */\n      swap2\n      swap1\n      pop\n      jump\t// out\n        /* \"#utility.yul\":8441:8860   */\n    tag_104:\n        /* \"#utility.yul\":8607:8611   */\n      0x00\n        /* \"#utility.yul\":8645:8647   */\n      0x20\n        /* \"#utility.yul\":8634:8643   */\n      dup3\n        /* \"#utility.yul\":8630:8648   */\n      add\n        /* \"#utility.yul\":8622:8648   */\n      swap1\n      pop\n        /* \"#utility.yul\":8694:8703   */\n      dup2\n        /* \"#utility.yul\":8688:8692   */\n      dup2\n        /* \"#utility.yul\":8684:8704   */\n      sub\n        /* \"#utility.yul\":8680:8681   */\n      0x00\n        /* \"#utility.yul\":8669:8678   */\n      dup4\n        /* \"#utility.yul\":8665:8682   */\n      add\n        /* \"#utility.yul\":8658:8705   */\n      mstore\n        /* \"#utility.yul\":8722:8853   */\n      tag_265\n        /* \"#utility.yul\":8848:8852   */\n      dup2\n        /* \"#utility.yul\":8722:8853   */\n      tag_168\n      jump\t// in\n    tag_265:\n        /* \"#utility.yul\":8714:8853   */\n      swap1\n      pop\n        /* \"#utility.yul\":8441:8860   */\n      swap2\n      swap1\n      pop\n      jump\t// out\n        /* \"#utility.yul\":8866:9198   */\n    tag_107:\n        /* \"#utility.yul\":8987:8991   */\n      0x00\n        /* \"#utility.yul\":9025:9027   */\n      0x40\n        /* \"#utility.yul\":9014:9023   */\n      dup3\n        /* \"#utility.yul\":9010:9028   */\n      add\n        /* \"#utility.yul\":9002:9028   */\n      swap1\n      pop\n        /* \"#utility.yul\":9038:9109   */\n      tag_267\n        /* \"#utility.yul\":9106:9107   */\n      0x00\n        /* \"#utility.yul\":9095:9104   */\n      dup4\n        /* \"#utility.yul\":9091:9108   */\n      add\n        /* \"#utility.yul\":9082:9088   */\n      dup6\n        /* \"#utility.yul\":9038:9109   */\n      tag_145\n      jump\t// in\n    tag_267:\n        /* \"#utility.yul\":9119:9191   */\n      tag_268\n        /* \"#utility.yul\":9187:9189   */\n      0x20\n        /* \"#utility.yul\":9176:9185   */\n      dup4\n        /* \"#utility.yul\":9172:9190   */\n      add\n        /* \"#utility.yul\":9163:9169   */\n      dup5\n        /* \"#utility.yul\":9119:9191   */\n      tag_142\n      jump\t// in\n    tag_268:\n        /* \"#utility.yul\":8866:9198   */\n      swap4\n      swap3\n      pop\n      pop\n      pop\n      jump\t// out\n        /* \"#utility.yul\":9204:9294   */\n    tag_169:\n        /* \"#utility.yul\":9238:9245   */\n      0x00\n        /* \"#utility.yul\":9281:9286   */\n      dup2\n        /* \"#utility.yul\":9274:9287   */\n      iszero\n        /* \"#utility.yul\":9267:9288   */\n      iszero\n        /* \"#utility.yul\":9256:9288   */\n      swap1\n      pop\n        /* \"#utility.yul\":9204:9294   */\n      swap2\n      swap1\n      pop\n      jump\t// out\n        /* \"#utility.yul\":9300:9416   */\n    tag_170:\n        /* \"#utility.yul\":9370:9391   */\n      tag_271\n        /* \"#utility.yul\":9385:9390   */\n      dup2\n        /* \"#utility.yul\":9370:9391   */\n      tag_169\n      jump\t// in\n    tag_271:\n        /* \"#utility.yul\":9363:9368   */\n      dup2\n        /* \"#utility.yul\":9360:9392   */\n      eq\n        /* \"#utility.yul\":9350:9410   */\n      tag_272\n      jumpi\n        /* \"#utility.yul\":9406:9407   */\n      0x00\n        /* \"#utility.yul\":9403:9404   */\n      dup1\n        /* \"#utility.yul\":9396:9408   */\n      revert\n        /* \"#utility.yul\":9350:9410   */\n    tag_272:\n        /* \"#utility.yul\":9300:9416   */\n      pop\n      jump\t// out\n        /* \"#utility.yul\":9422:9559   */\n    tag_171:\n        /* \"#utility.yul\":9476:9481   */\n      0x00\n        /* \"#utility.yul\":9507:9513   */\n      dup2\n        /* \"#utility.yul\":9501:9514   */\n      mload\n        /* \"#utility.yul\":9492:9514   */\n      swap1\n      pop\n        /* \"#utility.yul\":9523:9553   */\n      tag_274\n        /* \"#utility.yul\":9547:9552   */\n      dup2\n        /* \"#utility.yul\":9523:9553   */\n      tag_170\n      jump\t// in\n    tag_274:\n        /* \"#utility.yul\":9422:9559   */\n      swap3\n      swap2\n      pop\n      pop\n      jump\t// out\n        /* \"#utility.yul\":9565:9910   */\n    tag_111:\n        /* \"#utility.yul\":9632:9638   */\n      0x00\n        /* \"#utility.yul\":9681:9683   */\n      0x20\n        /* \"#utility.yul\":9669:9678   */\n      dup3\n        /* \"#utility.yul\":9660:9667   */\n      dup5\n        /* \"#utility.yul\":9656:9679   */\n      sub\n        /* \"#utility.yul\":9652:9684   */\n      slt\n        /* \"#utility.yul\":9649:9768   */\n      iszero\n      tag_276\n      jumpi\n        /* \"#utility.yul\":9687:9766   */\n      tag_277\n      tag_152\n      jump\t// in\n    tag_277:\n        /* \"#utility.yul\":9649:9768   */\n    tag_276:\n        /* \"#utility.yul\":9807:9808   */\n      0x00\n        /* \"#utility.yul\":9832:9893   */\n      tag_278\n        /* \"#utility.yul\":9885:9892   */\n      dup5\n        /* \"#utility.yul\":9876:9882   */\n      dup3\n        /* \"#utility.yul\":9865:9874   */\n      dup6\n        /* \"#utility.yul\":9861:9883   */\n      add\n        /* \"#utility.yul\":9832:9893   */\n      tag_171\n      jump\t// in\n    tag_278:\n        /* \"#utility.yul\":9822:9893   */\n      swap2\n      pop\n        /* \"#utility.yul\":9778:9903   */\n      pop\n        /* \"#utility.yul\":9565:9910   */\n      swap3\n      swap2\n      pop\n      pop\n      jump\t// out\n        /* \"#utility.yul\":9916:10087   */\n    tag_172:\n        /* \"#utility.yul\":10056:10079   */\n      0x49434f2068617320616c726561647920656e6465640000000000000000000000\n        /* \"#utility.yul\":10052:10053   */\n      0x00\n        /* \"#utility.yul\":10044:10050   */\n      dup3\n        /* \"#utility.yul\":10040:10054   */\n      add\n        /* \"#utility.yul\":10033:10080   */\n      mstore\n        /* \"#utility.yul\":9916:10087   */\n      pop\n      jump\t// out\n        /* \"#utility.yul\":10093:10459   */\n    tag_173:\n        /* \"#utility.yul\":10235:10238   */\n      0x00\n        /* \"#utility.yul\":10256:10323   */\n      tag_281\n        /* \"#utility.yul\":10320:10322   */\n      0x15\n        /* \"#utility.yul\":10315:10318   */\n      dup4\n        /* \"#utility.yul\":10256:10323   */\n      tag_156\n      jump\t// in\n    tag_281:\n        /* \"#utility.yul\":10249:10323   */\n      swap2\n      pop\n        /* \"#utility.yul\":10332:10425   */\n      tag_282\n        /* \"#utility.yul\":10421:10424   */\n      dup3\n        /* \"#utility.yul\":10332:10425   */\n      tag_172\n      jump\t// in\n    tag_282:\n        /* \"#utility.yul\":10450:10452   */\n      0x20\n        /* \"#utility.yul\":10445:10448   */\n      dup3\n        /* \"#utility.yul\":10441:10453   */\n      add\n        /* \"#utility.yul\":10434:10453   */\n      swap1\n      pop\n        /* \"#utility.yul\":10093:10459   */\n      swap2\n      swap1\n      pop\n      jump\t// out\n        /* \"#utility.yul\":10465:10884   */\n    tag_120:\n        /* \"#utility.yul\":10631:10635   */\n      0x00\n        /* \"#utility.yul\":10669:10671   */\n      0x20\n        /* \"#utility.yul\":10658:10667   */\n      dup3\n        /* \"#utility.yul\":10654:10672   */\n      add\n        /* \"#utility.yul\":10646:10672   */\n      swap1\n      pop\n        /* \"#utility.yul\":10718:10727   */\n      dup2\n        /* \"#utility.yul\":10712:10716   */\n      dup2\n        /* \"#utility.yul\":10708:10728   */\n      sub\n        /* \"#utility.yul\":10704:10705   */\n      0x00\n        /* \"#utility.yul\":10693:10702   */\n      dup4\n        /* \"#utility.yul\":10689:10706   */\n      add\n        /* \"#utility.yul\":10682:10729   */\n      mstore\n        /* \"#utility.yul\":10746:10877   */\n      tag_284\n        /* \"#utility.yul\":10872:10876   */\n      dup2\n        /* \"#utility.yul\":10746:10877   */\n      tag_173\n      jump\t// in\n    tag_284:\n        /* \"#utility.yul\":10738:10877   */\n      swap1\n      pop\n        /* \"#utility.yul\":10465:10884   */\n      swap2\n      swap1\n      pop\n      jump\t// out\n        /* \"#utility.yul\":10890:11071   */\n    tag_174:\n        /* \"#utility.yul\":11030:11063   */\n      0x5265656e7472616e637947756172643a207265656e7472616e742063616c6c00\n        /* \"#utility.yul\":11026:11027   */\n      0x00\n        /* \"#utility.yul\":11018:11024   */\n      dup3\n        /* \"#utility.yul\":11014:11028   */\n      add\n        /* \"#utility.yul\":11007:11064   */\n      mstore\n        /* \"#utility.yul\":10890:11071   */\n      pop\n      jump\t// out\n        /* \"#utility.yul\":11077:11443   */\n    tag_175:\n        /* \"#utility.yul\":11219:11222   */\n      0x00\n        /* \"#utility.yul\":11240:11307   */\n      tag_287\n        /* \"#utility.yul\":11304:11306   */\n      0x1f\n        /* \"#utility.yul\":11299:11302   */\n      dup4\n        /* \"#utility.yul\":11240:11307   */\n      tag_156\n      jump\t// in\n    tag_287:\n        /* \"#utility.yul\":11233:11307   */\n      swap2\n      pop\n        /* \"#utility.yul\":11316:11409   */\n      tag_288\n        /* \"#utility.yul\":11405:11408   */\n      dup3\n        /* \"#utility.yul\":11316:11409   */\n      tag_174\n      jump\t// in\n    tag_288:\n        /* \"#utility.yul\":11434:11436   */\n      0x20\n        /* \"#utility.yul\":11429:11432   */\n      dup3\n        /* \"#utility.yul\":11425:11437   */\n      add\n        /* \"#utility.yul\":11418:11437   */\n      swap1\n      pop\n        /* \"#utility.yul\":11077:11443   */\n      swap2\n      swap1\n      pop\n      jump\t// out\n        /* \"#utility.yul\":11449:11868   */\n    tag_138:\n        /* \"#utility.yul\":11615:11619   */\n      0x00\n        /* \"#utility.yul\":11653:11655   */\n      0x20\n        /* \"#utility.yul\":11642:11651   */\n      dup3\n        /* \"#utility.yul\":11638:11656   */\n      add\n        /* \"#utility.yul\":11630:11656   */\n      swap1\n      pop\n        /* \"#utility.yul\":11702:11711   */\n      dup2\n        /* \"#utility.yul\":11696:11700   */\n      dup2\n        /* \"#utility.yul\":11692:11712   */\n      sub\n        /* \"#utility.yul\":11688:11689   */\n      0x00\n        /* \"#utility.yul\":11677:11686   */\n      dup4\n        /* \"#utility.yul\":11673:11690   */\n      add\n        /* \"#utility.yul\":11666:11713   */\n      mstore\n        /* \"#utility.yul\":11730:11861   */\n      tag_290\n        /* \"#utility.yul\":11856:11860   */\n      dup2\n        /* \"#utility.yul\":11730:11861   */\n      tag_175\n      jump\t// in\n    tag_290:\n        /* \"#utility.yul\":11722:11861   */\n      swap1\n      pop\n        /* \"#utility.yul\":11449:11868   */\n      swap2\n      swap1\n      pop\n      jump\t// out\n\n    auxdata: 0xa264697066735822122003347e3a7fb929a27efc0c22c84b1671736990f0391eb4893ce5eea60aa646ec64736f6c63430008140033\n}\n",
				"bytecode": {
					"linkReferences": {},
					"object": "6080604052600160055534801562000015575f80fd5b50604051620013a0380380620013a083398181016040528101906200003b9190620002f5565b3360015f819055505f73ffffffffffffffffffffffffffffffffffffffff168173ffffffffffffffffffffffffffffffffffffffff1603620000b6575f6040517f1e4fbdf7000000000000000000000000000000000000000000000000000000008152600401620000ad91906200034b565b60405180910390fd5b620000c7816200019560201b60201c565b505f73ffffffffffffffffffffffffffffffffffffffff168273ffffffffffffffffffffffffffffffffffffffff160362000139576040517f08c379a00000000000000000000000000000000000000000000000000000000081526004016200013090620003ea565b60405180910390fd5b8160025f6101000a81548173ffffffffffffffffffffffffffffffffffffffff021916908373ffffffffffffffffffffffffffffffffffffffff160217905550804262000187919062000437565b600481905550505062000471565b5f60015f9054906101000a900473ffffffffffffffffffffffffffffffffffffffff1690508160015f6101000a81548173ffffffffffffffffffffffffffffffffffffffff021916908373ffffffffffffffffffffffffffffffffffffffff1602179055508173ffffffffffffffffffffffffffffffffffffffff168173ffffffffffffffffffffffffffffffffffffffff167f8be0079c531659141344cd1fd0a4f28419497f9722a3daafe3b4186f6b6457e060405160405180910390a35050565b5f80fd5b5f73ffffffffffffffffffffffffffffffffffffffff82169050919050565b5f62000287826200025c565b9050919050565b62000299816200027b565b8114620002a4575f80fd5b50565b5f81519050620002b7816200028e565b92915050565b5f819050919050565b620002d181620002bd565b8114620002dc575f80fd5b50565b5f81519050620002ef81620002c6565b92915050565b5f80604083850312156200030e576200030d62000258565b5b5f6200031d85828601620002a7565b92505060206200033085828601620002df565b9150509250929050565b62000345816200027b565b82525050565b5f602082019050620003605f8301846200033a565b92915050565b5f82825260208201905092915050565b7f566f6c756d546f6b656e20616464726573732063616e6e6f74206265207a65725f8201527f6f00000000000000000000000000000000000000000000000000000000000000602082015250565b5f620003d260218362000366565b9150620003df8262000376565b604082019050919050565b5f6020820190508181035f8301526200040381620003c4565b9050919050565b7f4e487b71000000000000000000000000000000000000000000000000000000005f52601160045260245ffd5b5f6200044382620002bd565b91506200045083620002bd565b92508282019050808211156200046b576200046a6200040a565b5b92915050565b610f21806200047f5f395ff3fe6080604052600436106100a6575f3560e01c80639af08dd5116100635780639af08dd51461017e578063a715bf33146101a8578063b0a65b3e146101d2578063d0febe4c146101fc578063e657807b14610206578063f2fde38b1461021c576100a6565b806324600fc3146100aa5780634513ef7a146100c0578063518ab2a8146100ea578063715018a6146101145780637e1055b61461012a5780638da5cb5b14610154575b5f80fd5b3480156100b5575f80fd5b506100be610244565b005b3480156100cb575f80fd5b506100d4610299565b6040516100e19190610907565b60405180910390f35b3480156100f5575f80fd5b506100fe61029f565b60405161010b9190610907565b60405180910390f35b34801561011f575f80fd5b506101286102a5565b005b348015610135575f80fd5b5061013e6102b8565b60405161014b9190610907565b60405180910390f35b34801561015f575f80fd5b506101686102be565b604051610175919061095f565b60405180910390f35b348015610189575f80fd5b506101926102e6565b60405161019f91906109d3565b60405180910390f35b3480156101b3575f80fd5b506101bc61030b565b6040516101c99190610907565b60405180910390f35b3480156101dd575f80fd5b506101e6610317565b6040516101f39190610907565b60405180910390f35b610204610326565b005b348015610211575f80fd5b5061021a61066f565b005b348015610227575f80fd5b50610242600480360381019061023d9190610a1a565b6106c4565b005b61024c610748565b6102546102be565b73ffffffffffffffffffffffffffffffffffffffff166108fc4790811502906040515f60405180830381858888f19350505050158015610296573d5f803e3d5ffd5b50565b60055481565b60035481565b6102ad610748565b6102b65f6107cf565b565b60045481565b5f60015f9054906101000a900473ffffffffffffffffffffffffffffffffffffffff16905090565b60025f9054906101000a900473ffffffffffffffffffffffffffffffffffffffff1681565b670de0b6b3a764000081565b6af8277896582678ac00000081565b61032e610892565b6004544210610372576040517f08c379a000000000000000000000000000000000000000000000000000000000815260040161036990610a9f565b60405180910390fd5b5f34116103b4576040517f08c379a00000000000000000000000000000000000000000000000000000000081526004016103ab90610b2d565b60405180910390fd5b5f670de0b6b3a7640000346103c99190610ba5565b90505f811161040d576040517f08c379a000000000000000000000000000000000000000000000000000000000815260040161040490610b2d565b60405180910390fd5b6af8277896582678ac000000816003546104279190610bd5565b1115610468576040517f08c379a000000000000000000000000000000000000000000000000000000000815260040161045f90610c52565b60405180910390fd5b5f6064600554836104799190610c70565b6104839190610ba5565b905060025f9054906101000a900473ffffffffffffffffffffffffffffffffffffffff1673ffffffffffffffffffffffffffffffffffffffff166370a08231306040518263ffffffff1660e01b81526004016104df919061095f565b602060405180830381865afa1580156104fa573d5f803e3d5ffd5b505050506040513d601f19601f8201168201806040525081019061051e9190610cdb565b811115610560576040517f08c379a000000000000000000000000000000000000000000000000000000000815260040161055790610d76565b60405180910390fd5b8160035f8282546105719190610bd5565b9250508190555060025f9054906101000a900473ffffffffffffffffffffffffffffffffffffffff1673ffffffffffffffffffffffffffffffffffffffff1663a9059cbb33846040518363ffffffff1660e01b81526004016105d4929190610d94565b6020604051808303815f875af11580156105f0573d5f803e3d5ffd5b505050506040513d601f19601f820116820180604052508101906106149190610df0565b503373ffffffffffffffffffffffffffffffffffffffff167f8f28852646c20cc973d3a8218f7eefed58c25c909f78f0265af4818c3d4dc2718360405161065b9190610907565b60405180910390a2505061066d6108df565b565b610677610748565b60045442106106bb576040517f08c379a00000000000000000000000000000000000000000000000000000000081526004016106b290610e65565b60405180910390fd5b42600481905550565b6106cc610748565b5f73ffffffffffffffffffffffffffffffffffffffff168173ffffffffffffffffffffffffffffffffffffffff160361073c575f6040517f1e4fbdf7000000000000000000000000000000000000000000000000000000008152600401610733919061095f565b60405180910390fd5b610745816107cf565b50565b6107506108e8565b73ffffffffffffffffffffffffffffffffffffffff1661076e6102be565b73ffffffffffffffffffffffffffffffffffffffff16146107cd576107916108e8565b6040517f118cdaa70000000000000000000000000000000000000000000000000000000081526004016107c4919061095f565b60405180910390fd5b565b5f60015f9054906101000a900473ffffffffffffffffffffffffffffffffffffffff1690508160015f6101000a81548173ffffffffffffffffffffffffffffffffffffffff021916908373ffffffffffffffffffffffffffffffffffffffff1602179055508173ffffffffffffffffffffffffffffffffffffffff168173ffffffffffffffffffffffffffffffffffffffff167f8be0079c531659141344cd1fd0a4f28419497f9722a3daafe3b4186f6b6457e060405160405180910390a35050565b60025f54036108d6576040517f08c379a00000000000000000000000000000000000000000000000000000000081526004016108cd90610ecd565b60405180910390fd5b60025f81905550565b60015f81905550565b5f33905090565b5f819050919050565b610901816108ef565b82525050565b5f60208201905061091a5f8301846108f8565b92915050565b5f73ffffffffffffffffffffffffffffffffffffffff82169050919050565b5f61094982610920565b9050919050565b6109598161093f565b82525050565b5f6020820190506109725f830184610950565b92915050565b5f819050919050565b5f61099b61099661099184610920565b610978565b610920565b9050919050565b5f6109ac82610981565b9050919050565b5f6109bd826109a2565b9050919050565b6109cd816109b3565b82525050565b5f6020820190506109e65f8301846109c4565b92915050565b5f80fd5b6109f98161093f565b8114610a03575f80fd5b50565b5f81359050610a14816109f0565b92915050565b5f60208284031215610a2f57610a2e6109ec565b5b5f610a3c84828501610a06565b91505092915050565b5f82825260208201905092915050565b7f49434f2068617320656e646564000000000000000000000000000000000000005f82015250565b5f610a89600d83610a45565b9150610a9482610a55565b602082019050919050565b5f6020820190508181035f830152610ab681610a7d565b9050919050565b7f416d6f756e7420746f207075726368617365206d7573742062652067726561745f8201527f6572207468616e20300000000000000000000000000000000000000000000000602082015250565b5f610b17602983610a45565b9150610b2282610abd565b604082019050919050565b5f6020820190508181035f830152610b4481610b0b565b9050919050565b7f4e487b71000000000000000000000000000000000000000000000000000000005f52601260045260245ffd5b7f4e487b71000000000000000000000000000000000000000000000000000000005f52601160045260245ffd5b5f610baf826108ef565b9150610bba836108ef565b925082610bca57610bc9610b4b565b5b828204905092915050565b5f610bdf826108ef565b9150610bea836108ef565b9250828201905080821115610c0257610c01610b78565b5b92915050565b7f49434f20616c6c6f636174696f6e2065786365656465640000000000000000005f82015250565b5f610c3c601783610a45565b9150610c4782610c08565b602082019050919050565b5f6020820190508181035f830152610c6981610c30565b9050919050565b5f610c7a826108ef565b9150610c85836108ef565b9250828202610c93816108ef565b91508282048414831517610caa57610ca9610b78565b5b5092915050565b610cba816108ef565b8114610cc4575f80fd5b50565b5f81519050610cd581610cb1565b92915050565b5f60208284031215610cf057610cef6109ec565b5b5f610cfd84828501610cc7565b91505092915050565b7f496e73756666696369656e7420746f6b656e2062616c616e636520696e2049435f8201527f4f20636f6e747261637400000000000000000000000000000000000000000000602082015250565b5f610d60602a83610a45565b9150610d6b82610d06565b604082019050919050565b5f6020820190508181035f830152610d8d81610d54565b9050919050565b5f604082019050610da75f830185610950565b610db460208301846108f8565b9392505050565b5f8115159050919050565b610dcf81610dbb565b8114610dd9575f80fd5b50565b5f81519050610dea81610dc6565b92915050565b5f60208284031215610e0557610e046109ec565b5b5f610e1284828501610ddc565b91505092915050565b7f49434f2068617320616c726561647920656e64656400000000000000000000005f82015250565b5f610e4f601583610a45565b9150610e5a82610e1b565b602082019050919050565b5f6020820190508181035f830152610e7c81610e43565b9050919050565b7f5265656e7472616e637947756172643a207265656e7472616e742063616c6c005f82015250565b5f610eb7601f83610a45565b9150610ec282610e83565b602082019050919050565b5f6020820190508181035f830152610ee481610eab565b905091905056fea264697066735822122003347e3a7fb929a27efc0c22c84b1671736990f0391eb4893ce5eea60aa646ec64736f6c63430008140033",
					"opcodes": "PUSH1 0x80 PUSH1 0x40 MSTORE PUSH1 0x1 PUSH1 0x5 SSTORE CALLVALUE DUP1 ISZERO PUSH3 0x15 JUMPI PUSH0 DUP1 REVERT JUMPDEST POP PUSH1 0x40 MLOAD PUSH3 0x13A0 CODESIZE SUB DUP1 PUSH3 0x13A0 DUP4 CODECOPY DUP2 DUP2 ADD PUSH1 0x40 MSTORE DUP2 ADD SWAP1 PUSH3 0x3B SWAP2 SWAP1 PUSH3 0x2F5 JUMP JUMPDEST CALLER PUSH1 0x1 PUSH0 DUP2 SWAP1 SSTORE POP PUSH0 PUSH20 0xFFFFFFFFFFFFFFFFFFFFFFFFFFFFFFFFFFFFFFFF AND DUP2 PUSH20 0xFFFFFFFFFFFFFFFFFFFFFFFFFFFFFFFFFFFFFFFF AND SUB PUSH3 0xB6 JUMPI PUSH0 PUSH1 0x40 MLOAD PUSH32 0x1E4FBDF700000000000000000000000000000000000000000000000000000000 DUP2 MSTORE PUSH1 0x4 ADD PUSH3 0xAD SWAP2 SWAP1 PUSH3 0x34B JUMP JUMPDEST PUSH1 0x40 MLOAD DUP1 SWAP2 SUB SWAP1 REVERT JUMPDEST PUSH3 0xC7 DUP2 PUSH3 0x195 PUSH1 0x20 SHL PUSH1 0x20 SHR JUMP JUMPDEST POP PUSH0 PUSH20 0xFFFFFFFFFFFFFFFFFFFFFFFFFFFFFFFFFFFFFFFF AND DUP3 PUSH20 0xFFFFFFFFFFFFFFFFFFFFFFFFFFFFFFFFFFFFFFFF AND SUB PUSH3 0x139 JUMPI PUSH1 0x40 MLOAD PUSH32 0x8C379A000000000000000000000000000000000000000000000000000000000 DUP2 MSTORE PUSH1 0x4 ADD PUSH3 0x130 SWAP1 PUSH3 0x3EA JUMP JUMPDEST PUSH1 0x40 MLOAD DUP1 SWAP2 SUB SWAP1 REVERT JUMPDEST DUP2 PUSH1 0x2 PUSH0 PUSH2 0x100 EXP DUP2 SLOAD DUP2 PUSH20 0xFFFFFFFFFFFFFFFFFFFFFFFFFFFFFFFFFFFFFFFF MUL NOT AND SWAP1 DUP4 PUSH20 0xFFFFFFFFFFFFFFFFFFFFFFFFFFFFFFFFFFFFFFFF AND MUL OR SWAP1 SSTORE POP DUP1 TIMESTAMP PUSH3 0x187 SWAP2 SWAP1 PUSH3 0x437 JUMP JUMPDEST PUSH1 0x4 DUP2 SWAP1 SSTORE POP POP POP PUSH3 0x471 JUMP JUMPDEST PUSH0 PUSH1 0x1 PUSH0 SWAP1 SLOAD SWAP1 PUSH2 0x100 EXP SWAP1 DIV PUSH20 0xFFFFFFFFFFFFFFFFFFFFFFFFFFFFFFFFFFFFFFFF AND SWAP1 POP DUP2 PUSH1 0x1 PUSH0 PUSH2 0x100 EXP DUP2 SLOAD DUP2 PUSH20 0xFFFFFFFFFFFFFFFFFFFFFFFFFFFFFFFFFFFFFFFF MUL NOT AND SWAP1 DUP4 PUSH20 0xFFFFFFFFFFFFFFFFFFFFFFFFFFFFFFFFFFFFFFFF AND MUL OR SWAP1 SSTORE POP DUP2 PUSH20 0xFFFFFFFFFFFFFFFFFFFFFFFFFFFFFFFFFFFFFFFF AND DUP2 PUSH20 0xFFFFFFFFFFFFFFFFFFFFFFFFFFFFFFFFFFFFFFFF AND PUSH32 0x8BE0079C531659141344CD1FD0A4F28419497F9722A3DAAFE3B4186F6B6457E0 PUSH1 0x40 MLOAD PUSH1 0x40 MLOAD DUP1 SWAP2 SUB SWAP1 LOG3 POP POP JUMP JUMPDEST PUSH0 DUP1 REVERT JUMPDEST PUSH0 PUSH20 0xFFFFFFFFFFFFFFFFFFFFFFFFFFFFFFFFFFFFFFFF DUP3 AND SWAP1 POP SWAP2 SWAP1 POP JUMP JUMPDEST PUSH0 PUSH3 0x287 DUP3 PUSH3 0x25C JUMP JUMPDEST SWAP1 POP SWAP2 SWAP1 POP JUMP JUMPDEST PUSH3 0x299 DUP2 PUSH3 0x27B JUMP JUMPDEST DUP2 EQ PUSH3 0x2A4 JUMPI PUSH0 DUP1 REVERT JUMPDEST POP JUMP JUMPDEST PUSH0 DUP2 MLOAD SWAP1 POP PUSH3 0x2B7 DUP2 PUSH3 0x28E JUMP JUMPDEST SWAP3 SWAP2 POP POP JUMP JUMPDEST PUSH0 DUP2 SWAP1 POP SWAP2 SWAP1 POP JUMP JUMPDEST PUSH3 0x2D1 DUP2 PUSH3 0x2BD JUMP JUMPDEST DUP2 EQ PUSH3 0x2DC JUMPI PUSH0 DUP1 REVERT JUMPDEST POP JUMP JUMPDEST PUSH0 DUP2 MLOAD SWAP1 POP PUSH3 0x2EF DUP2 PUSH3 0x2C6 JUMP JUMPDEST SWAP3 SWAP2 POP POP JUMP JUMPDEST PUSH0 DUP1 PUSH1 0x40 DUP4 DUP6 SUB SLT ISZERO PUSH3 0x30E JUMPI PUSH3 0x30D PUSH3 0x258 JUMP JUMPDEST JUMPDEST PUSH0 PUSH3 0x31D DUP6 DUP3 DUP7 ADD PUSH3 0x2A7 JUMP JUMPDEST SWAP3 POP POP PUSH1 0x20 PUSH3 0x330 DUP6 DUP3 DUP7 ADD PUSH3 0x2DF JUMP JUMPDEST SWAP2 POP POP SWAP3 POP SWAP3 SWAP1 POP JUMP JUMPDEST PUSH3 0x345 DUP2 PUSH3 0x27B JUMP JUMPDEST DUP3 MSTORE POP POP JUMP JUMPDEST PUSH0 PUSH1 0x20 DUP3 ADD SWAP1 POP PUSH3 0x360 PUSH0 DUP4 ADD DUP5 PUSH3 0x33A JUMP JUMPDEST SWAP3 SWAP2 POP POP JUMP JUMPDEST PUSH0 DUP3 DUP3 MSTORE PUSH1 0x20 DUP3 ADD SWAP1 POP SWAP3 SWAP2 POP POP JUMP JUMPDEST PUSH32 0x566F6C756D546F6B656E20616464726573732063616E6E6F74206265207A6572 PUSH0 DUP3 ADD MSTORE PUSH32 0x6F00000000000000000000000000000000000000000000000000000000000000 PUSH1 0x20 DUP3 ADD MSTORE POP JUMP JUMPDEST PUSH0 PUSH3 0x3D2 PUSH1 0x21 DUP4 PUSH3 0x366 JUMP JUMPDEST SWAP2 POP PUSH3 0x3DF DUP3 PUSH3 0x376 JUMP JUMPDEST PUSH1 0x40 DUP3 ADD SWAP1 POP SWAP2 SWAP1 POP JUMP JUMPDEST PUSH0 PUSH1 0x20 DUP3 ADD SWAP1 POP DUP2 DUP2 SUB PUSH0 DUP4 ADD MSTORE PUSH3 0x403 DUP2 PUSH3 0x3C4 JUMP JUMPDEST SWAP1 POP SWAP2 SWAP1 POP JUMP JUMPDEST PUSH32 0x4E487B7100000000000000000000000000000000000000000000000000000000 PUSH0 MSTORE PUSH1 0x11 PUSH1 0x4 MSTORE PUSH1 0x24 PUSH0 REVERT JUMPDEST PUSH0 PUSH3 0x443 DUP3 PUSH3 0x2BD JUMP JUMPDEST SWAP2 POP PUSH3 0x450 DUP4 PUSH3 0x2BD JUMP JUMPDEST SWAP3 POP DUP3 DUP3 ADD SWAP1 POP DUP1 DUP3 GT ISZERO PUSH3 0x46B JUMPI PUSH3 0x46A PUSH3 0x40A JUMP JUMPDEST JUMPDEST SWAP3 SWAP2 POP POP JUMP JUMPDEST PUSH2 0xF21 DUP1 PUSH3 0x47F PUSH0 CODECOPY PUSH0 RETURN INVALID PUSH1 0x80 PUSH1 0x40 MSTORE PUSH1 0x4 CALLDATASIZE LT PUSH2 0xA6 JUMPI PUSH0 CALLDATALOAD PUSH1 0xE0 SHR DUP1 PUSH4 0x9AF08DD5 GT PUSH2 0x63 JUMPI DUP1 PUSH4 0x9AF08DD5 EQ PUSH2 0x17E JUMPI DUP1 PUSH4 0xA715BF33 EQ PUSH2 0x1A8 JUMPI DUP1 PUSH4 0xB0A65B3E EQ PUSH2 0x1D2 JUMPI DUP1 PUSH4 0xD0FEBE4C EQ PUSH2 0x1FC JUMPI DUP1 PUSH4 0xE657807B EQ PUSH2 0x206 JUMPI DUP1 PUSH4 0xF2FDE38B EQ PUSH2 0x21C JUMPI PUSH2 0xA6 JUMP JUMPDEST DUP1 PUSH4 0x24600FC3 EQ PUSH2 0xAA JUMPI DUP1 PUSH4 0x4513EF7A EQ PUSH2 0xC0 JUMPI DUP1 PUSH4 0x518AB2A8 EQ PUSH2 0xEA JUMPI DUP1 PUSH4 0x715018A6 EQ PUSH2 0x114 JUMPI DUP1 PUSH4 0x7E1055B6 EQ PUSH2 0x12A JUMPI DUP1 PUSH4 0x8DA5CB5B EQ PUSH2 0x154 JUMPI JUMPDEST PUSH0 DUP1 REVERT JUMPDEST CALLVALUE DUP1 ISZERO PUSH2 0xB5 JUMPI PUSH0 DUP1 REVERT JUMPDEST POP PUSH2 0xBE PUSH2 0x244 JUMP JUMPDEST STOP JUMPDEST CALLVALUE DUP1 ISZERO PUSH2 0xCB JUMPI PUSH0 DUP1 REVERT JUMPDEST POP PUSH2 0xD4 PUSH2 0x299 JUMP JUMPDEST PUSH1 0x40 MLOAD PUSH2 0xE1 SWAP2 SWAP1 PUSH2 0x907 JUMP JUMPDEST PUSH1 0x40 MLOAD DUP1 SWAP2 SUB SWAP1 RETURN JUMPDEST CALLVALUE DUP1 ISZERO PUSH2 0xF5 JUMPI PUSH0 DUP1 REVERT JUMPDEST POP PUSH2 0xFE PUSH2 0x29F JUMP JUMPDEST PUSH1 0x40 MLOAD PUSH2 0x10B SWAP2 SWAP1 PUSH2 0x907 JUMP JUMPDEST PUSH1 0x40 MLOAD DUP1 SWAP2 SUB SWAP1 RETURN JUMPDEST CALLVALUE DUP1 ISZERO PUSH2 0x11F JUMPI PUSH0 DUP1 REVERT JUMPDEST POP PUSH2 0x128 PUSH2 0x2A5 JUMP JUMPDEST STOP JUMPDEST CALLVALUE DUP1 ISZERO PUSH2 0x135 JUMPI PUSH0 DUP1 REVERT JUMPDEST POP PUSH2 0x13E PUSH2 0x2B8 JUMP JUMPDEST PUSH1 0x40 MLOAD PUSH2 0x14B SWAP2 SWAP1 PUSH2 0x907 JUMP JUMPDEST PUSH1 0x40 MLOAD DUP1 SWAP2 SUB SWAP1 RETURN JUMPDEST CALLVALUE DUP1 ISZERO PUSH2 0x15F JUMPI PUSH0 DUP1 REVERT JUMPDEST POP PUSH2 0x168 PUSH2 0x2BE JUMP JUMPDEST PUSH1 0x40 MLOAD PUSH2 0x175 SWAP2 SWAP1 PUSH2 0x95F JUMP JUMPDEST PUSH1 0x40 MLOAD DUP1 SWAP2 SUB SWAP1 RETURN JUMPDEST CALLVALUE DUP1 ISZERO PUSH2 0x189 JUMPI PUSH0 DUP1 REVERT JUMPDEST POP PUSH2 0x192 PUSH2 0x2E6 JUMP JUMPDEST PUSH1 0x40 MLOAD PUSH2 0x19F SWAP2 SWAP1 PUSH2 0x9D3 JUMP JUMPDEST PUSH1 0x40 MLOAD DUP1 SWAP2 SUB SWAP1 RETURN JUMPDEST CALLVALUE DUP1 ISZERO PUSH2 0x1B3 JUMPI PUSH0 DUP1 REVERT JUMPDEST POP PUSH2 0x1BC PUSH2 0x30B JUMP JUMPDEST PUSH1 0x40 MLOAD PUSH2 0x1C9 SWAP2 SWAP1 PUSH2 0x907 JUMP JUMPDEST PUSH1 0x40 MLOAD DUP1 SWAP2 SUB SWAP1 RETURN JUMPDEST CALLVALUE DUP1 ISZERO PUSH2 0x1DD JUMPI PUSH0 DUP1 REVERT JUMPDEST POP PUSH2 0x1E6 PUSH2 0x317 JUMP JUMPDEST PUSH1 0x40 MLOAD PUSH2 0x1F3 SWAP2 SWAP1 PUSH2 0x907 JUMP JUMPDEST PUSH1 0x40 MLOAD DUP1 SWAP2 SUB SWAP1 RETURN JUMPDEST PUSH2 0x204 PUSH2 0x326 JUMP JUMPDEST STOP JUMPDEST CALLVALUE DUP1 ISZERO PUSH2 0x211 JUMPI PUSH0 DUP1 REVERT JUMPDEST POP PUSH2 0x21A PUSH2 0x66F JUMP JUMPDEST STOP JUMPDEST CALLVALUE DUP1 ISZERO PUSH2 0x227 JUMPI PUSH0 DUP1 REVERT JUMPDEST POP PUSH2 0x242 PUSH1 0x4 DUP1 CALLDATASIZE SUB DUP2 ADD SWAP1 PUSH2 0x23D SWAP2 SWAP1 PUSH2 0xA1A JUMP JUMPDEST PUSH2 0x6C4 JUMP JUMPDEST STOP JUMPDEST PUSH2 0x24C PUSH2 0x748 JUMP JUMPDEST PUSH2 0x254 PUSH2 0x2BE JUMP JUMPDEST PUSH20 0xFFFFFFFFFFFFFFFFFFFFFFFFFFFFFFFFFFFFFFFF AND PUSH2 0x8FC SELFBALANCE SWAP1 DUP2 ISZERO MUL SWAP1 PUSH1 0x40 MLOAD PUSH0 PUSH1 0x40 MLOAD DUP1 DUP4 SUB DUP2 DUP6 DUP9 DUP9 CALL SWAP4 POP POP POP POP ISZERO DUP1 ISZERO PUSH2 0x296 JUMPI RETURNDATASIZE PUSH0 DUP1 RETURNDATACOPY RETURNDATASIZE PUSH0 REVERT JUMPDEST POP JUMP JUMPDEST PUSH1 0x5 SLOAD DUP2 JUMP JUMPDEST PUSH1 0x3 SLOAD DUP2 JUMP JUMPDEST PUSH2 0x2AD PUSH2 0x748 JUMP JUMPDEST PUSH2 0x2B6 PUSH0 PUSH2 0x7CF JUMP JUMPDEST JUMP JUMPDEST PUSH1 0x4 SLOAD DUP2 JUMP JUMPDEST PUSH0 PUSH1 0x1 PUSH0 SWAP1 SLOAD SWAP1 PUSH2 0x100 EXP SWAP1 DIV PUSH20 0xFFFFFFFFFFFFFFFFFFFFFFFFFFFFFFFFFFFFFFFF AND SWAP1 POP SWAP1 JUMP JUMPDEST PUSH1 0x2 PUSH0 SWAP1 SLOAD SWAP1 PUSH2 0x100 EXP SWAP1 DIV PUSH20 0xFFFFFFFFFFFFFFFFFFFFFFFFFFFFFFFFFFFFFFFF AND DUP2 JUMP JUMPDEST PUSH8 0xDE0B6B3A7640000 DUP2 JUMP JUMPDEST PUSH11 0xF8277896582678AC000000 DUP2 JUMP JUMPDEST PUSH2 0x32E PUSH2 0x892 JUMP JUMPDEST PUSH1 0x4 SLOAD TIMESTAMP LT PUSH2 0x372 JUMPI PUSH1 0x40 MLOAD PUSH32 0x8C379A000000000000000000000000000000000000000000000000000000000 DUP2 MSTORE PUSH1 0x4 ADD PUSH2 0x369 SWAP1 PUSH2 0xA9F JUMP JUMPDEST PUSH1 0x40 MLOAD DUP1 SWAP2 SUB SWAP1 REVERT JUMPDEST PUSH0 CALLVALUE GT PUSH2 0x3B4 JUMPI PUSH1 0x40 MLOAD PUSH32 0x8C379A000000000000000000000000000000000000000000000000000000000 DUP2 MSTORE PUSH1 0x4 ADD PUSH2 0x3AB SWAP1 PUSH2 0xB2D JUMP JUMPDEST PUSH1 0x40 MLOAD DUP1 SWAP2 SUB SWAP1 REVERT JUMPDEST PUSH0 PUSH8 0xDE0B6B3A7640000 CALLVALUE PUSH2 0x3C9 SWAP2 SWAP1 PUSH2 0xBA5 JUMP JUMPDEST SWAP1 POP PUSH0 DUP2 GT PUSH2 0x40D JUMPI PUSH1 0x40 MLOAD PUSH32 0x8C379A000000000000000000000000000000000000000000000000000000000 DUP2 MSTORE PUSH1 0x4 ADD PUSH2 0x404 SWAP1 PUSH2 0xB2D JUMP JUMPDEST PUSH1 0x40 MLOAD DUP1 SWAP2 SUB SWAP1 REVERT JUMPDEST PUSH11 0xF8277896582678AC000000 DUP2 PUSH1 0x3 SLOAD PUSH2 0x427 SWAP2 SWAP1 PUSH2 0xBD5 JUMP JUMPDEST GT ISZERO PUSH2 0x468 JUMPI PUSH1 0x40 MLOAD PUSH32 0x8C379A000000000000000000000000000000000000000000000000000000000 DUP2 MSTORE PUSH1 0x4 ADD PUSH2 0x45F SWAP1 PUSH2 0xC52 JUMP JUMPDEST PUSH1 0x40 MLOAD DUP1 SWAP2 SUB SWAP1 REVERT JUMPDEST PUSH0 PUSH1 0x64 PUSH1 0x5 SLOAD DUP4 PUSH2 0x479 SWAP2 SWAP1 PUSH2 0xC70 JUMP JUMPDEST PUSH2 0x483 SWAP2 SWAP1 PUSH2 0xBA5 JUMP JUMPDEST SWAP1 POP PUSH1 0x2 PUSH0 SWAP1 SLOAD SWAP1 PUSH2 0x100 EXP SWAP1 DIV PUSH20 0xFFFFFFFFFFFFFFFFFFFFFFFFFFFFFFFFFFFFFFFF AND PUSH20 0xFFFFFFFFFFFFFFFFFFFFFFFFFFFFFFFFFFFFFFFF AND PUSH4 0x70A08231 ADDRESS PUSH1 0x40 MLOAD DUP3 PUSH4 0xFFFFFFFF AND PUSH1 0xE0 SHL DUP2 MSTORE PUSH1 0x4 ADD PUSH2 0x4DF SWAP2 SWAP1 PUSH2 0x95F JUMP JUMPDEST PUSH1 0x20 PUSH1 0x40 MLOAD DUP1 DUP4 SUB DUP2 DUP7 GAS STATICCALL ISZERO DUP1 ISZERO PUSH2 0x4FA JUMPI RETURNDATASIZE PUSH0 DUP1 RETURNDATACOPY RETURNDATASIZE PUSH0 REVERT JUMPDEST POP POP POP POP PUSH1 0x40 MLOAD RETURNDATASIZE PUSH1 0x1F NOT PUSH1 0x1F DUP3 ADD AND DUP3 ADD DUP1 PUSH1 0x40 MSTORE POP DUP2 ADD SWAP1 PUSH2 0x51E SWAP2 SWAP1 PUSH2 0xCDB JUMP JUMPDEST DUP2 GT ISZERO PUSH2 0x560 JUMPI PUSH1 0x40 MLOAD PUSH32 0x8C379A000000000000000000000000000000000000000000000000000000000 DUP2 MSTORE PUSH1 0x4 ADD PUSH2 0x557 SWAP1 PUSH2 0xD76 JUMP JUMPDEST PUSH1 0x40 MLOAD DUP1 SWAP2 SUB SWAP1 REVERT JUMPDEST DUP2 PUSH1 0x3 PUSH0 DUP3 DUP3 SLOAD PUSH2 0x571 SWAP2 SWAP1 PUSH2 0xBD5 JUMP JUMPDEST SWAP3 POP POP DUP2 SWAP1 SSTORE POP PUSH1 0x2 PUSH0 SWAP1 SLOAD SWAP1 PUSH2 0x100 EXP SWAP1 DIV PUSH20 0xFFFFFFFFFFFFFFFFFFFFFFFFFFFFFFFFFFFFFFFF AND PUSH20 0xFFFFFFFFFFFFFFFFFFFFFFFFFFFFFFFFFFFFFFFF AND PUSH4 0xA9059CBB CALLER DUP5 PUSH1 0x40 MLOAD DUP4 PUSH4 0xFFFFFFFF AND PUSH1 0xE0 SHL DUP2 MSTORE PUSH1 0x4 ADD PUSH2 0x5D4 SWAP3 SWAP2 SWAP1 PUSH2 0xD94 JUMP JUMPDEST PUSH1 0x20 PUSH1 0x40 MLOAD DUP1 DUP4 SUB DUP2 PUSH0 DUP8 GAS CALL ISZERO DUP1 ISZERO PUSH2 0x5F0 JUMPI RETURNDATASIZE PUSH0 DUP1 RETURNDATACOPY RETURNDATASIZE PUSH0 REVERT JUMPDEST POP POP POP POP PUSH1 0x40 MLOAD RETURNDATASIZE PUSH1 0x1F NOT PUSH1 0x1F DUP3 ADD AND DUP3 ADD DUP1 PUSH1 0x40 MSTORE POP DUP2 ADD SWAP1 PUSH2 0x614 SWAP2 SWAP1 PUSH2 0xDF0 JUMP JUMPDEST POP CALLER PUSH20 0xFFFFFFFFFFFFFFFFFFFFFFFFFFFFFFFFFFFFFFFF AND PUSH32 0x8F28852646C20CC973D3A8218F7EEFED58C25C909F78F0265AF4818C3D4DC271 DUP4 PUSH1 0x40 MLOAD PUSH2 0x65B SWAP2 SWAP1 PUSH2 0x907 JUMP JUMPDEST PUSH1 0x40 MLOAD DUP1 SWAP2 SUB SWAP1 LOG2 POP POP PUSH2 0x66D PUSH2 0x8DF JUMP JUMPDEST JUMP JUMPDEST PUSH2 0x677 PUSH2 0x748 JUMP JUMPDEST PUSH1 0x4 SLOAD TIMESTAMP LT PUSH2 0x6BB JUMPI PUSH1 0x40 MLOAD PUSH32 0x8C379A000000000000000000000000000000000000000000000000000000000 DUP2 MSTORE PUSH1 0x4 ADD PUSH2 0x6B2 SWAP1 PUSH2 0xE65 JUMP JUMPDEST PUSH1 0x40 MLOAD DUP1 SWAP2 SUB SWAP1 REVERT JUMPDEST TIMESTAMP PUSH1 0x4 DUP2 SWAP1 SSTORE POP JUMP JUMPDEST PUSH2 0x6CC PUSH2 0x748 JUMP JUMPDEST PUSH0 PUSH20 0xFFFFFFFFFFFFFFFFFFFFFFFFFFFFFFFFFFFFFFFF AND DUP2 PUSH20 0xFFFFFFFFFFFFFFFFFFFFFFFFFFFFFFFFFFFFFFFF AND SUB PUSH2 0x73C JUMPI PUSH0 PUSH1 0x40 MLOAD PUSH32 0x1E4FBDF700000000000000000000000000000000000000000000000000000000 DUP2 MSTORE PUSH1 0x4 ADD PUSH2 0x733 SWAP2 SWAP1 PUSH2 0x95F JUMP JUMPDEST PUSH1 0x40 MLOAD DUP1 SWAP2 SUB SWAP1 REVERT JUMPDEST PUSH2 0x745 DUP2 PUSH2 0x7CF JUMP JUMPDEST POP JUMP JUMPDEST PUSH2 0x750 PUSH2 0x8E8 JUMP JUMPDEST PUSH20 0xFFFFFFFFFFFFFFFFFFFFFFFFFFFFFFFFFFFFFFFF AND PUSH2 0x76E PUSH2 0x2BE JUMP JUMPDEST PUSH20 0xFFFFFFFFFFFFFFFFFFFFFFFFFFFFFFFFFFFFFFFF AND EQ PUSH2 0x7CD JUMPI PUSH2 0x791 PUSH2 0x8E8 JUMP JUMPDEST PUSH1 0x40 MLOAD PUSH32 0x118CDAA700000000000000000000000000000000000000000000000000000000 DUP2 MSTORE PUSH1 0x4 ADD PUSH2 0x7C4 SWAP2 SWAP1 PUSH2 0x95F JUMP JUMPDEST PUSH1 0x40 MLOAD DUP1 SWAP2 SUB SWAP1 REVERT JUMPDEST JUMP JUMPDEST PUSH0 PUSH1 0x1 PUSH0 SWAP1 SLOAD SWAP1 PUSH2 0x100 EXP SWAP1 DIV PUSH20 0xFFFFFFFFFFFFFFFFFFFFFFFFFFFFFFFFFFFFFFFF AND SWAP1 POP DUP2 PUSH1 0x1 PUSH0 PUSH2 0x100 EXP DUP2 SLOAD DUP2 PUSH20 0xFFFFFFFFFFFFFFFFFFFFFFFFFFFFFFFFFFFFFFFF MUL NOT AND SWAP1 DUP4 PUSH20 0xFFFFFFFFFFFFFFFFFFFFFFFFFFFFFFFFFFFFFFFF AND MUL OR SWAP1 SSTORE POP DUP2 PUSH20 0xFFFFFFFFFFFFFFFFFFFFFFFFFFFFFFFFFFFFFFFF AND DUP2 PUSH20 0xFFFFFFFFFFFFFFFFFFFFFFFFFFFFFFFFFFFFFFFF AND PUSH32 0x8BE0079C531659141344CD1FD0A4F28419497F9722A3DAAFE3B4186F6B6457E0 PUSH1 0x40 MLOAD PUSH1 0x40 MLOAD DUP1 SWAP2 SUB SWAP1 LOG3 POP POP JUMP JUMPDEST PUSH1 0x2 PUSH0 SLOAD SUB PUSH2 0x8D6 JUMPI PUSH1 0x40 MLOAD PUSH32 0x8C379A000000000000000000000000000000000000000000000000000000000 DUP2 MSTORE PUSH1 0x4 ADD PUSH2 0x8CD SWAP1 PUSH2 0xECD JUMP JUMPDEST PUSH1 0x40 MLOAD DUP1 SWAP2 SUB SWAP1 REVERT JUMPDEST PUSH1 0x2 PUSH0 DUP2 SWAP1 SSTORE POP JUMP JUMPDEST PUSH1 0x1 PUSH0 DUP2 SWAP1 SSTORE POP JUMP JUMPDEST PUSH0 CALLER SWAP1 POP SWAP1 JUMP JUMPDEST PUSH0 DUP2 SWAP1 POP SWAP2 SWAP1 POP JUMP JUMPDEST PUSH2 0x901 DUP2 PUSH2 0x8EF JUMP JUMPDEST DUP3 MSTORE POP POP JUMP JUMPDEST PUSH0 PUSH1 0x20 DUP3 ADD SWAP1 POP PUSH2 0x91A PUSH0 DUP4 ADD DUP5 PUSH2 0x8F8 JUMP JUMPDEST SWAP3 SWAP2 POP POP JUMP JUMPDEST PUSH0 PUSH20 0xFFFFFFFFFFFFFFFFFFFFFFFFFFFFFFFFFFFFFFFF DUP3 AND SWAP1 POP SWAP2 SWAP1 POP JUMP JUMPDEST PUSH0 PUSH2 0x949 DUP3 PUSH2 0x920 JUMP JUMPDEST SWAP1 POP SWAP2 SWAP1 POP JUMP JUMPDEST PUSH2 0x959 DUP2 PUSH2 0x93F JUMP JUMPDEST DUP3 MSTORE POP POP JUMP JUMPDEST PUSH0 PUSH1 0x20 DUP3 ADD SWAP1 POP PUSH2 0x972 PUSH0 DUP4 ADD DUP5 PUSH2 0x950 JUMP JUMPDEST SWAP3 SWAP2 POP POP JUMP JUMPDEST PUSH0 DUP2 SWAP1 POP SWAP2 SWAP1 POP JUMP JUMPDEST PUSH0 PUSH2 0x99B PUSH2 0x996 PUSH2 0x991 DUP5 PUSH2 0x920 JUMP JUMPDEST PUSH2 0x978 JUMP JUMPDEST PUSH2 0x920 JUMP JUMPDEST SWAP1 POP SWAP2 SWAP1 POP JUMP JUMPDEST PUSH0 PUSH2 0x9AC DUP3 PUSH2 0x981 JUMP JUMPDEST SWAP1 POP SWAP2 SWAP1 POP JUMP JUMPDEST PUSH0 PUSH2 0x9BD DUP3 PUSH2 0x9A2 JUMP JUMPDEST SWAP1 POP SWAP2 SWAP1 POP JUMP JUMPDEST PUSH2 0x9CD DUP2 PUSH2 0x9B3 JUMP JUMPDEST DUP3 MSTORE POP POP JUMP JUMPDEST PUSH0 PUSH1 0x20 DUP3 ADD SWAP1 POP PUSH2 0x9E6 PUSH0 DUP4 ADD DUP5 PUSH2 0x9C4 JUMP JUMPDEST SWAP3 SWAP2 POP POP JUMP JUMPDEST PUSH0 DUP1 REVERT JUMPDEST PUSH2 0x9F9 DUP2 PUSH2 0x93F JUMP JUMPDEST DUP2 EQ PUSH2 0xA03 JUMPI PUSH0 DUP1 REVERT JUMPDEST POP JUMP JUMPDEST PUSH0 DUP2 CALLDATALOAD SWAP1 POP PUSH2 0xA14 DUP2 PUSH2 0x9F0 JUMP JUMPDEST SWAP3 SWAP2 POP POP JUMP JUMPDEST PUSH0 PUSH1 0x20 DUP3 DUP5 SUB SLT ISZERO PUSH2 0xA2F JUMPI PUSH2 0xA2E PUSH2 0x9EC JUMP JUMPDEST JUMPDEST PUSH0 PUSH2 0xA3C DUP5 DUP3 DUP6 ADD PUSH2 0xA06 JUMP JUMPDEST SWAP2 POP POP SWAP3 SWAP2 POP POP JUMP JUMPDEST PUSH0 DUP3 DUP3 MSTORE PUSH1 0x20 DUP3 ADD SWAP1 POP SWAP3 SWAP2 POP POP JUMP JUMPDEST PUSH32 0x49434F2068617320656E64656400000000000000000000000000000000000000 PUSH0 DUP3 ADD MSTORE POP JUMP JUMPDEST PUSH0 PUSH2 0xA89 PUSH1 0xD DUP4 PUSH2 0xA45 JUMP JUMPDEST SWAP2 POP PUSH2 0xA94 DUP3 PUSH2 0xA55 JUMP JUMPDEST PUSH1 0x20 DUP3 ADD SWAP1 POP SWAP2 SWAP1 POP JUMP JUMPDEST PUSH0 PUSH1 0x20 DUP3 ADD SWAP1 POP DUP2 DUP2 SUB PUSH0 DUP4 ADD MSTORE PUSH2 0xAB6 DUP2 PUSH2 0xA7D JUMP JUMPDEST SWAP1 POP SWAP2 SWAP1 POP JUMP JUMPDEST PUSH32 0x416D6F756E7420746F207075726368617365206D757374206265206772656174 PUSH0 DUP3 ADD MSTORE PUSH32 0x6572207468616E20300000000000000000000000000000000000000000000000 PUSH1 0x20 DUP3 ADD MSTORE POP JUMP JUMPDEST PUSH0 PUSH2 0xB17 PUSH1 0x29 DUP4 PUSH2 0xA45 JUMP JUMPDEST SWAP2 POP PUSH2 0xB22 DUP3 PUSH2 0xABD JUMP JUMPDEST PUSH1 0x40 DUP3 ADD SWAP1 POP SWAP2 SWAP1 POP JUMP JUMPDEST PUSH0 PUSH1 0x20 DUP3 ADD SWAP1 POP DUP2 DUP2 SUB PUSH0 DUP4 ADD MSTORE PUSH2 0xB44 DUP2 PUSH2 0xB0B JUMP JUMPDEST SWAP1 POP SWAP2 SWAP1 POP JUMP JUMPDEST PUSH32 0x4E487B7100000000000000000000000000000000000000000000000000000000 PUSH0 MSTORE PUSH1 0x12 PUSH1 0x4 MSTORE PUSH1 0x24 PUSH0 REVERT JUMPDEST PUSH32 0x4E487B7100000000000000000000000000000000000000000000000000000000 PUSH0 MSTORE PUSH1 0x11 PUSH1 0x4 MSTORE PUSH1 0x24 PUSH0 REVERT JUMPDEST PUSH0 PUSH2 0xBAF DUP3 PUSH2 0x8EF JUMP JUMPDEST SWAP2 POP PUSH2 0xBBA DUP4 PUSH2 0x8EF JUMP JUMPDEST SWAP3 POP DUP3 PUSH2 0xBCA JUMPI PUSH2 0xBC9 PUSH2 0xB4B JUMP JUMPDEST JUMPDEST DUP3 DUP3 DIV SWAP1 POP SWAP3 SWAP2 POP POP JUMP JUMPDEST PUSH0 PUSH2 0xBDF DUP3 PUSH2 0x8EF JUMP JUMPDEST SWAP2 POP PUSH2 0xBEA DUP4 PUSH2 0x8EF JUMP JUMPDEST SWAP3 POP DUP3 DUP3 ADD SWAP1 POP DUP1 DUP3 GT ISZERO PUSH2 0xC02 JUMPI PUSH2 0xC01 PUSH2 0xB78 JUMP JUMPDEST JUMPDEST SWAP3 SWAP2 POP POP JUMP JUMPDEST PUSH32 0x49434F20616C6C6F636174696F6E206578636565646564000000000000000000 PUSH0 DUP3 ADD MSTORE POP JUMP JUMPDEST PUSH0 PUSH2 0xC3C PUSH1 0x17 DUP4 PUSH2 0xA45 JUMP JUMPDEST SWAP2 POP PUSH2 0xC47 DUP3 PUSH2 0xC08 JUMP JUMPDEST PUSH1 0x20 DUP3 ADD SWAP1 POP SWAP2 SWAP1 POP JUMP JUMPDEST PUSH0 PUSH1 0x20 DUP3 ADD SWAP1 POP DUP2 DUP2 SUB PUSH0 DUP4 ADD MSTORE PUSH2 0xC69 DUP2 PUSH2 0xC30 JUMP JUMPDEST SWAP1 POP SWAP2 SWAP1 POP JUMP JUMPDEST PUSH0 PUSH2 0xC7A DUP3 PUSH2 0x8EF JUMP JUMPDEST SWAP2 POP PUSH2 0xC85 DUP4 PUSH2 0x8EF JUMP JUMPDEST SWAP3 POP DUP3 DUP3 MUL PUSH2 0xC93 DUP2 PUSH2 0x8EF JUMP JUMPDEST SWAP2 POP DUP3 DUP3 DIV DUP5 EQ DUP4 ISZERO OR PUSH2 0xCAA JUMPI PUSH2 0xCA9 PUSH2 0xB78 JUMP JUMPDEST JUMPDEST POP SWAP3 SWAP2 POP POP JUMP JUMPDEST PUSH2 0xCBA DUP2 PUSH2 0x8EF JUMP JUMPDEST DUP2 EQ PUSH2 0xCC4 JUMPI PUSH0 DUP1 REVERT JUMPDEST POP JUMP JUMPDEST PUSH0 DUP2 MLOAD SWAP1 POP PUSH2 0xCD5 DUP2 PUSH2 0xCB1 JUMP JUMPDEST SWAP3 SWAP2 POP POP JUMP JUMPDEST PUSH0 PUSH1 0x20 DUP3 DUP5 SUB SLT ISZERO PUSH2 0xCF0 JUMPI PUSH2 0xCEF PUSH2 0x9EC JUMP JUMPDEST JUMPDEST PUSH0 PUSH2 0xCFD DUP5 DUP3 DUP6 ADD PUSH2 0xCC7 JUMP JUMPDEST SWAP2 POP POP SWAP3 SWAP2 POP POP JUMP JUMPDEST PUSH32 0x496E73756666696369656E7420746F6B656E2062616C616E636520696E204943 PUSH0 DUP3 ADD MSTORE PUSH32 0x4F20636F6E747261637400000000000000000000000000000000000000000000 PUSH1 0x20 DUP3 ADD MSTORE POP JUMP JUMPDEST PUSH0 PUSH2 0xD60 PUSH1 0x2A DUP4 PUSH2 0xA45 JUMP JUMPDEST SWAP2 POP PUSH2 0xD6B DUP3 PUSH2 0xD06 JUMP JUMPDEST PUSH1 0x40 DUP3 ADD SWAP1 POP SWAP2 SWAP1 POP JUMP JUMPDEST PUSH0 PUSH1 0x20 DUP3 ADD SWAP1 POP DUP2 DUP2 SUB PUSH0 DUP4 ADD MSTORE PUSH2 0xD8D DUP2 PUSH2 0xD54 JUMP JUMPDEST SWAP1 POP SWAP2 SWAP1 POP JUMP JUMPDEST PUSH0 PUSH1 0x40 DUP3 ADD SWAP1 POP PUSH2 0xDA7 PUSH0 DUP4 ADD DUP6 PUSH2 0x950 JUMP JUMPDEST PUSH2 0xDB4 PUSH1 0x20 DUP4 ADD DUP5 PUSH2 0x8F8 JUMP JUMPDEST SWAP4 SWAP3 POP POP POP JUMP JUMPDEST PUSH0 DUP2 ISZERO ISZERO SWAP1 POP SWAP2 SWAP1 POP JUMP JUMPDEST PUSH2 0xDCF DUP2 PUSH2 0xDBB JUMP JUMPDEST DUP2 EQ PUSH2 0xDD9 JUMPI PUSH0 DUP1 REVERT JUMPDEST POP JUMP JUMPDEST PUSH0 DUP2 MLOAD SWAP1 POP PUSH2 0xDEA DUP2 PUSH2 0xDC6 JUMP JUMPDEST SWAP3 SWAP2 POP POP JUMP JUMPDEST PUSH0 PUSH1 0x20 DUP3 DUP5 SUB SLT ISZERO PUSH2 0xE05 JUMPI PUSH2 0xE04 PUSH2 0x9EC JUMP JUMPDEST JUMPDEST PUSH0 PUSH2 0xE12 DUP5 DUP3 DUP6 ADD PUSH2 0xDDC JUMP JUMPDEST SWAP2 POP POP SWAP3 SWAP2 POP POP JUMP JUMPDEST PUSH32 0x49434F2068617320616C726561647920656E6465640000000000000000000000 PUSH0 DUP3 ADD MSTORE POP JUMP JUMPDEST PUSH0 PUSH2 0xE4F PUSH1 0x15 DUP4 PUSH2 0xA45 JUMP JUMPDEST SWAP2 POP PUSH2 0xE5A DUP3 PUSH2 0xE1B JUMP JUMPDEST PUSH1 0x20 DUP3 ADD SWAP1 POP SWAP2 SWAP1 POP JUMP JUMPDEST PUSH0 PUSH1 0x20 DUP3 ADD SWAP1 POP DUP2 DUP2 SUB PUSH0 DUP4 ADD MSTORE PUSH2 0xE7C DUP2 PUSH2 0xE43 JUMP JUMPDEST SWAP1 POP SWAP2 SWAP1 POP JUMP JUMPDEST PUSH32 0x5265656E7472616E637947756172643A207265656E7472616E742063616C6C00 PUSH0 DUP3 ADD MSTORE POP JUMP JUMPDEST PUSH0 PUSH2 0xEB7 PUSH1 0x1F DUP4 PUSH2 0xA45 JUMP JUMPDEST SWAP2 POP PUSH2 0xEC2 DUP3 PUSH2 0xE83 JUMP JUMPDEST PUSH1 0x20 DUP3 ADD SWAP1 POP SWAP2 SWAP1 POP JUMP JUMPDEST PUSH0 PUSH1 0x20 DUP3 ADD SWAP1 POP DUP2 DUP2 SUB PUSH0 DUP4 ADD MSTORE PUSH2 0xEE4 DUP2 PUSH2 0xEAB JUMP JUMPDEST SWAP1 POP SWAP2 SWAP1 POP JUMP INVALID LOG2 PUSH5 0x6970667358 0x22 SLT KECCAK256 SUB CALLVALUE PUSH31 0x3A7FB929A27EFC0C22C84B1671736990F0391EB4893CE5EEA60AA646EC6473 PUSH16 0x6C634300081400330000000000000000 "
				},
				"gasEstimates": {
					"creation": {
						"codeDepositCost": "774600",
						"executionCost": "infinite",
						"totalCost": "infinite"
					},
					"external": {
						"ICO_ALLOCATION()": "369",
						"ICO_PRICE()": "347",
						"burnRateOnBuy()": "2448",
						"buyTokens()": "infinite",
						"endIco()": "infinite",
						"icoEndTime()": "2514",
						"owner()": "2626",
						"renounceOwnership()": "infinite",
						"tokensSold()": "2470",
						"transferOwnership(address)": "infinite",
						"volumToken()": "infinite",
						"withdrawFunds()": "infinite"
					}
				},
				"methodIdentifiers": {
					"ICO_ALLOCATION()": "b0a65b3e",
					"ICO_PRICE()": "a715bf33",
					"burnRateOnBuy()": "4513ef7a",
					"buyTokens()": "d0febe4c",
					"endIco()": "e657807b",
					"icoEndTime()": "7e1055b6",
					"owner()": "8da5cb5b",
					"renounceOwnership()": "715018a6",
					"tokensSold()": "518ab2a8",
					"transferOwnership(address)": "f2fde38b",
					"volumToken()": "9af08dd5",
					"withdrawFunds()": "24600fc3"
				}
			},
			"storageLayout": {
				"storage": [
					{
						"astId": 158,
						"contract": "contracts/VolumICO.sol:VolumICO",
						"label": "_status",
						"offset": 0,
						"slot": "0",
						"type": "t_uint256"
					},
					{
						"astId": 8,
						"contract": "contracts/VolumICO.sol:VolumICO",
						"label": "_owner",
						"offset": 0,
						"slot": "1",
						"type": "t_address"
					},
					{
						"astId": 332,
						"contract": "contracts/VolumICO.sol:VolumICO",
						"label": "volumToken",
						"offset": 0,
						"slot": "2",
						"type": "t_contract(IERC20)290"
					},
					{
						"astId": 345,
						"contract": "contracts/VolumICO.sol:VolumICO",
						"label": "tokensSold",
						"offset": 0,
						"slot": "3",
						"type": "t_uint256"
					},
					{
						"astId": 347,
						"contract": "contracts/VolumICO.sol:VolumICO",
						"label": "icoEndTime",
						"offset": 0,
						"slot": "4",
						"type": "t_uint256"
					},
					{
						"astId": 350,
						"contract": "contracts/VolumICO.sol:VolumICO",
						"label": "burnRateOnBuy",
						"offset": 0,
						"slot": "5",
						"type": "t_uint256"
					}
				],
				"types": {
					"t_address": {
						"encoding": "inplace",
						"label": "address",
						"numberOfBytes": "20"
					},
					"t_contract(IERC20)290": {
						"encoding": "inplace",
						"label": "contract IERC20",
						"numberOfBytes": "20"
					},
					"t_uint256": {
						"encoding": "inplace",
						"label": "uint256",
						"numberOfBytes": "32"
					}
				}
			},
			"userdoc": {
				"kind": "user",
				"methods": {},
				"version": 1
			}
		}
	}
}